@ba15 ; Affinity 
@bb01 ; MemBank 
@bc03 ; Command 
:020000020C00F0
:100000004CC1089581E084C082E082C083E080C05A
:10001000E7D0EAC085E07CC086E07AC087E078C09F
:1000200088E076C089E074C08AE072C08BE070C05E
:1000300071C000008DC000008EE06AC08FE068C013
:1000400080E166C081E164C082E162C083E160C09A
:1000500084E15EC085E15CC086E15AC087E158C09A
:10006000C5C0000089E154C08AE152C08BE150C094
:100070008CE14EC08DE14CC08EE14AC0F0C0000062
:10008000F9C0000081E244C082E242C0E2C0000048
:1000900084E23EC085E23CC086E23AC087E238C0D6
:1000A00088E236C089E234C08AE232C08BE230C0D6
:1000B0008CE22EC08DE22CC08EE22AC08FE228C0D6
:1000C00080E326C081E324C082E322C083E320C012
:1000D00084E31EC085E31CC086E31AC087E318C012
:1000E00088E316C089E314C08AE312C08BE310C012
:1000F0008CE30EC08DE30CC08EE30AC08FE308C012
:1001000001005FD1020100002138916870528E1108
:1001100039D2FFCF0FB73F014001E091A26AE395CA
:10012000EF3008F0EE27E093A26AF0E0E756FF4ECA
:1001300009948AC29AC29FC2B6C240C344C348C38C
:100140004CC350C354C358C35CC361C367C36EC3BD
:10015000E89B06C0E89820921301C09242081895C7
:10016000FF93EF93EFB7EF93DF93CF93BF93AF93EB
:10017000E0911C0BF0911D0BA091E469B091E56931
:10018000E093E469F093E569EA1BE093E669FB0B11
:10019000F093E7696894B2E0E037FB0708F4ED9A62
:1001A000B3E0EC30FB0730F0E894B4E0E833FB0751
:1001B00008F4ED9AF091140BE0E1A091FF69EE9B39
:1001C000FE27EE98E3E0A211E5E0E0934102F09310
:1001D000140BEFEFE093160BE091E869F3E209945A
:1001E00001E00093530118950C948C2D3F01E09190
:1001F0009A6AF0919B6A0091100601930091110692
:100200000083E0919C6AF0919D6A019100930C0635
:100210000191009308060191009309060191009352
:10022000000601910093010601910093A000019145
:1002300000939A6A019100939B6A019100930B06C7
:10024000019100930A06E0939C6AF0939D6AF30182
:1002500018950FB72092031021600FBF18953F012A
:1002600000912008E091A76AF3E70193E093A76A61
:10027000F30118953F01E091A86AF091A96AEF1384
:1002800004C0E0E8E093250806C0F4E7019100937C
:100290002208E093A86AF3011895A895F8942224FF
:1002A0002DBAE8EDE4BFE5E8E0930110EFE1F9E6EF
:1002B000EDBFFEBFE0E0F9E6C8E6D9E02192219764
:1002C000E9F720920508A2E4A0931202ABE4A09300
:1002D0001402A3E0A0934102A8E0A0935704A4E075
:1002E000A0937704A0937004A093B204A093150484
:1002F000A09314040D98059A0C98049A4F9A479865
:100300004F98479A4798A2986F9A689A679860980A
:10031000A0E8A0937304A0937104A0937204A09327
:100320007404A3E0A093E605A1E0A093030AA1E072
:10033000A093000AE0E0FBE020822182228623864F
:10034000A0EEBEE22486B587A1E0A683A1E0A58346
:10035000A3E0A083E0E1FBE02082A2E0A183A1E48E
:10036000A483A1E0A683A583A3E0A083A3E0A09338
:100370002002A5E0A0932102B8EDA1E0A093C00166
:10038000A3E4B4BFA093C901AEEEB4BFA093CB0168
:10039000A1E0B4BFA093C801A0E1A0931102E0E8DE
:1003A000FBE0A2E0A0934902A0934A02A4E0A08B44
:1003B000A18BA1E8A087A187E0E8FBE0B8EDA0E071
:1003C000A183A0E0A283A3E3B4BFA28BAFEFA2A757
:1003D00023A6A6A727A6A0A7A1A7A4A7A5A7A685E9
:1003E000A0FFFDCFC0910614A1E0C13009F4A3E045
:1003F000C23009F4A9E0C33009F4ABE0B4BFA08374
:10040000A0915101A0FDFCCFA9E1A0935001A1E072
:10041000A0935301A0935201A5E8A093A000A5E0EA
:10042000A093A400A5E0A093A200E0E0F6E0A1E183
:10043000A083A0E0A183ABE0A283A0E0A383A0E01F
:10044000A483A2E0A0930506A0E0A087A7E0A1876F
:10045000A4E0A0937604A1E4A093A006A4E72092D0
:10046000A206A093A3060F98079AA8E0A0935004B1
:10047000A0935104A0935704E0E2F8E02682A5E897
:10048000B6E0A087B187A0E0A583A3E0A783A2EC94
:10049000A68347984F9A479A489A409A0E945C2FA1
:1004A000E8EDE4BFE9E0E09300010E94AE1E0E9487
:1004B00010220E94512F0E94512F0E9459290E9400
:1004C000BB297FD01ED54DD70E942A1B0E94732CBA
:1004D0000E94022D0E94AF2B0E948D250E94512F59
:1004E000E1E0E0935068D1D3EFEFE093060BE093A7
:1004F000160BE0935301E09304100C941B2D089508
:10050000E0E006C0E79904C000C0E49924C019C027
:10051000E4990CC000C0E095E093A80B2092A90BD1
:10052000EFEFE093AC0BE093AD0B1FC0E095E093D1
:10053000AC0B2092AD0BEFEFE093A80BE093A90B6F
:1005400014C0E093AC0B2092AD0BE0E0E093A80B5D
:10055000E093A90B0AC0E093A80B2092A90BE0E05E
:10056000E093AC0BE093AD0B00C0EFEFE093AA0B70
:100570002092AB0BE093AE0B2092AF0BE1E0E09347
:10058000840B0895EFEF0E2EE0E8FBE000A601A635
:1005900004A605A6EACFE0E00E2EE0E8FBE000A608
:1005A00001A604A605A6E1CFE0913170E1FF03C0EA
:1005B00000C0E0E001C0E1E8E093880BE093890B24
:1005C00008954F9A479A0E94D4122CBA80913170A4
:1005D00084FDE79A82FD15D082FF0FD0C093A36AF5
:1005E000E0939268F093A56AE0910268E1FF0DD074
:1005F000E2E8FBE6C0E6D2E7DAC2CBE0E9E0F0EC05
:100600000895CFEFE9E0F8EF0895E0E0FE2FFF77DF
:1006100029F0EA95FA9511F4E29A01C0E298E09384
:1006200098680895E0919668EE230895E091087027
:10063000E093A8680895E0919868E078E7CFECE04F
:10064000E093A26A08950895E1E0E093A26A9ADF38
:10065000E49B6798E4996098E0910770F0E3EF9F5E
:10066000E0EBF4E0E00DF11DF0C0E1E0E093A26A00
:10067000E0EBF4E0EAC0E2E0E093A26A67986098F9
:1006800020920506E19904C0E19AEEEFFEED03C069
:10069000E198EEE2FFED0090317003FC78966BD3A9
:1006A000E0EBF4E0D2C0E09132700090317000FED7
:1006B00005C0F0919668EF0F08F4EFEFF0ECEF9FB4
:1006C000E0919E6AF0919F6AF7FF05C0F095E19571
:1006D000FF4FF7FDFFE7EE0FFF1FE0939468F093E5
:1006E0009568CF93C12DC095EC9FE12DFC9F0E0E18
:1006F000121C10F0000C111CCF91F12D08F4FFEF2B
:10070000F0939368E0919668EE2341F0529902C00D
:10071000B39B35C0FE1789F008F111C02092936891
:100720002092946820929568EFEFE093A26A20925D
:100730009168E6DEE4EFFBE088C0E89420C0E09139
:100740009168E23008F0EA95E0939168E091A96839
:10075000E211EA95E093A968E89411C0F0919268DB
:10076000E0919168EF1708F4E395E0939168E091C8
:10077000A968E395E211E093A968689400C0679ABC
:10078000609A1090A968E091A56A0EF0E19DE12DB4
:10079000B9DEE0919168F0E0E153FC4E099437C076
:1007A00030C02AC024C01EC018C012C00CC006C071
:1007B00000C0E3E0E093A26AEFEF43C0E4E0E0931F
:1007C000A26AEFEF3EC0E5E0E093A26AEFEF39C026
:1007D000E6E0E093A26AE0EF34C0E7E0E093A26ACB
:1007E000ECED2FC0E8E0E093A26AE8EC2AC0E9E073
:1007F000E093A26AE4EB25C0EAE0E093A26AECE8A9
:1008000020C0E091A36AE093A26AEFEF1AC0EFEF75
:10081000E093A26AE0E07CDEEFEF13C0EDE0E0934E
:10082000A26AE0EF78DEEFEFFFEF0CC0EFEFE093AE
:10083000A26AE0EF7BDEEFEFFFEF04C0E091A96872
:1008400061CEFCE0EF9FF00100C0E0930C0BF09351
:100850000D0BE1E0E093060B0401F3010FBF1895C7
:100860009091377010903870191A8FB780FD1194DD
:1008700000909668000C09F44EC0019C80FD91190F
:1008800080FF910D10903970919D000C111CE09922
:10089000812DE09B892FF894E0919468F091956800
:1008A0007894E89FE12DF99F0E0E121C80E0881FBE
:1008B000EAE9F8E6A081B181C281D381E09905C05F
:1008C000A019B109C80BD20904C0A00DB11DC81FE1
:1008D000D21DA083B183F894C283D3837894A4817A
:1008E000B581C681D781A00DB11DC81FD21DA483BB
:1008F000B583F894C683D7837894A285B385C485DD
:10090000D585A019B109C80BD209A287B387F8947D
:10091000C487D5877894C0919968D091726AE09124
:100920009768F0919868CF019827E89497FD6894AC
:1009300097FDF078CF018F779F77E299CC2792309F
:1009400010F0D2FD9695A091A26BAC7011F0992792
:10095000F078891721F49030A9F0891789F040F0D8
:10096000D5FDC0E0C15078F4C0910370EA950BC08A
:10097000D4FDC0E0C15038F4C0910270E39503C0CB
:10098000CC2701C0EF2FC0939968E0939768E7FFE9
:10099000E09AE7FDE098EF77E093966809F0E2E0EF
:1009A0000EF4E061F091FF69F0FDE460E09BF095EA
:1009B000F0FFE860809130709CB382FD909590FFCD
:1009C000E160FFE10E944227F0E0E0FDF160E3FD1D
:1009D000F260E4FDF860F093A66B9CB381FD909506
:1009E00090FDE49A90FFE498E4E6F091A968FE9FF8
:1009F000000C121C1092AC680895EAE9F8E6058034
:100A0000A681B781000CAA1FBB1F000CAA1FBB1F29
:100A1000000CAA1FBB1F02101196A087B187248269
:100A2000258226822782B695A795B0913C70AB9F10
:100A3000D001CFEFAA0FBB1F30F0AA0FB21D18F0E4
:100A4000ACEEAB9FC12DE2E8FBE6C0D0B093AD6841
:100A5000E091A868E211EA95E093A868E211EE132C
:100A6000EADD08952092756B0895E091756BE4308E
:100A700020F4F0E0E35CFA4E099403C005C00DC019
:100A800013C0E0915168C2CDE091726BF091736B2D
:100A90002AD0E091746BBADD19C0C8DD2AD0E0918C
:100AA000746BE078B3DD12C00895E0E012C06F709F
:100AB0007F78E62FA72FAA0FA7F9F0E0E093726BDB
:100AC000F093736BA093746BE1E003C0E091756BDE
:100AD000E395E093756B0895E091756BE03009F054
:100AE000E3300895F0E00CD028822982EA83FB836A
:100AF000089506D00B8007FC08950F900F9008957D
:100B0000C4EAD8E6A0E7BBE60895F894B6D0F89416
:100B1000C6D00C945B17F894A6D0B7D00C945B1792
:100B20000E94602FF894A895FFCF0C945D17E77092
:100B3000F0E0E65CF445E08108950102040810202D
:100B40004080019009928A95E1F7089501901990EB
:100B5000011411F48A95D1F7089529928A95E9F73D
:100B60000895208221822282238208959FEF999303
:100B70008A95E9F70895E0E0FFE80990E025E08133
:100B80008A95D9F7EE230895799FE001689FD001F7
:100B9000699FB00DC11DD21D789FB00DC11DD21D22
:100BA000089580E406C080E204C080E102C088E0CD
:100BB00000C0C083D1838283238224822582CDCF4B
:100BC00011D00BC00FD007C00DD003C00BD0AA0F9F
:100BD000BB1FAA0FBB1FAA0FBB1FAA0FBB1FAA0FC9
:100BE000BB1F0895B381A081AB0FB181B21DDC9111
:100BF000CC93A481B581AD1BB209AC0FB21DA48307
:100C0000B583C281D381D395DC1708F0DD27D38368
:100C100008951FD005FE0EC001800DC01AD006FE3B
:100C200009C001800AC015D007FE04C0018007C0BA
:100C300010D039F00895000C111C000C111C000C90
:100C4000111C10820FB6F8942182228223820FBEDB
:100C500008951180100C11821280121C12820380E0
:100C6000039403820895C0E0D8E6AAE1B0E01FC073
:100C7000C0E0D8E6AEE1B0E027C0C0E0D8E680E44E
:100C80006CDFEFEFE0931F680895C0E4D8E6AAE3B5
:100C9000B0E00DC0C0E4D8E6AEE3B0E015C0C0E4FB
:100CA000D8E680E85ADFEFEFE0937F6808950E946E
:100CB0001D17F001A095B095C095D095A083B18384
:100CC000C283D383248208950E941D17F00180837C
:100CD0000895E0913B70E53008F0E2E0F0E0EE5876
:100CE000F94E099421C01EC00AC006C000C0809100
:100CF0008868209288681AC08091A26B17C0909172
:100D00004C6880914D68892B31F00CD009D014D0FB
:100D100009D006D014C006D003D014C00C94132FF1
:100D20000C94182FFBDF05C0FBDF03C08211FACF44
:100D3000FBCF82E390E009C088EC90E006C088EE2B
:100D400093E003C088EE93E000C00C94A92EE091DC
:100D50009A6AF0919B6AEF2B0895CF93C0919A6A9B
:100D6000C21106C0C0919B6AC21102C0CF9103C0DC
:100D7000CF9188940895CF93C2E0C0930A06C1E052
:100D8000C0930D06C191C0930006C191C0930206A5
:100D9000C191C0930306C191C0930406C191C09351
:100DA0000C06C191C0930806C191C0930906C19178
:100DB000C0930006C191C0930106C191C093A000E9
:100DC000C191C0939A6AC191C0939B6AC191C0932B
:100DD0000B06C191C0930A06E0939C6AF0939D6A4A
:100DE000CF91089408957695679576956795769551
:100DF0006795769567958091061190910711861BEE
:100E0000970B6091041170910511BEDEC695B795E0
:100E1000C695B795C695B795C695B7957C2F6B2F98
:100E200008950C9410000C9411000C9412000C9472
:100E300013000C9414000C9415000C9416000C94E0
:100E400017000C9418000C9419000C941A000C94C0
:100E50001B000C941C000C941D000C941E000C94A0
:100E60001F000C9420000C9421000C9422000C9480
:100E700023000C9424000C9425000C9426000C9460
:100E800027000C9428000C9429000C942A000C9440
:100E90002B000C942C000C942D000C942E000C9420
:100EA0002F000C9430000C9431000C9432000C9400
:100EB00033000C9434000C9435000C9436000C94E0
:100EC00037000C9438000C9439000C943A000C94C0
:100ED0003B000C943C000C943D000C943E000C94A0
:100EE0003F000C9440000C9441000C9442000C9480
:100EF00043000C9444000C9445000C9446000C9460
:100F00004700EFE7E093946BE6E7FBE6C0E0D2E74B
:100F10004ADEECE7FBE6C0E2D2E745CE0895F8945E
:100F2000E091446A2092446A7894E03009F408958C
:100F3000EE3208F0E4CAC091426AD9E6EC55F0E01E
:100F4000F84E09950C94D217DACAE2C00BC10FC152
:100F5000D6CAD5CAD4CAD3CAD2CA34C148C166C156
:100F600074C187C19AC1ADC1C0C1D3C1E6C1AEC011
:100F7000C6CAC5CAC4CAC3CAC2CAC1CAC0CABFCA0D
:100F8000BECABDCABCCABBCAB1C0B9CAB8CAB7CA50
:100F9000B6CAABC0F1C1F0C1EFC1EEC1EDC1EBC14A
:100FA00007C2EBC1A895F8946091B26B7091B36BD6
:100FB000789419DFEB01CF5DD040ECE9FBE60C2E15
:100FC00028DE6894E091FF69F0913070EF27E0FD32
:100FD000E894D091AE6BC091AF6BC7FF05C0C095D0
:100FE000D195CF4FC7FDCFE7DD0FCC1FE6E7FBE67E
:100FF000E9DD16F0B093B56B16F4B093B66BD091F3
:10100000B06BC091B16BC7FF05C0C095D195CF4FF4
:10101000C7FDCFE7DD0FCC1FECE7FBE6D3DD16F411
:10102000B093B56B16F0B093B66BA091B56BAB0FE8
:10103000A795A093026AA25308F4A0E0A093A76B1F
:10104000A091B56BB091B66BAB1BA058E4E9FBE681
:101050000A2EDFDDC091A16AE8E9FBE60C2ED9DD9E
:10106000E0916A6AF0916C6AEF1708F4EF2FE09351
:101070006D6AE0916D6AE0936E6A80E0A0913470D1
:10108000A093A306B0ECAB9FB091986BB11508F09C
:101090008160A0913570B0919C6BB25308F4B0E0C0
:1010A000BA1708F08460A0913670B091026ABA173E
:1010B00008F088600E94582709F082608093A26B34
:1010C00090911A70982B90931A70089520925168FD
:1010D000E2E5F8E621922192219221922192219239
:1010E000219221922192D1DD3CC10895E091456A7F
:1010F000E33019F099818A8103C090E089818F776C
:10110000EFB7F89480932E6A90932F6AEFBF0895FB
:10111000E881E4FBEE0FE0F9E6FBEF71E43010F458
:10112000E6950DC0E450F0E08091197084FDE35C19
:1011300084FDFF4884FFE85B84FFFE44E081E7F91B
:1011400094D1EF13A2DD0FC103070C1015191E2255
:10115000272B3034393D42464B4F54585D61666A07
:101160006F73787EE98181D1EF138FDDFCC0E98157
:101170007CD1FE27F0E08A8190915268809352687A
:101180008927F82BE091456AE530C8F08B81909172
:101190005368809353688927F82BE63080F08C8160
:1011A00090915468809354688927F82BE73038F081
:1011B0008D8190915568809355688927F82BF2119D
:1011C00064DDCFC0FF27E091306A8091316A869557
:1011D000EE1FE095EF71888184FB880F80F9909174
:1011E00052683CD180935268F2114FDDBEC0FF2798
:1011F00088818295880F90915268E091306AEE0F55
:10120000E095E07E2BD1809352688881880F82958B
:1012100090915368E091306AEE0FEE1FE095E17017
:101220001DD180935368F21130DD9FC0FF27888164
:10123000880F90915368E091316AE095EE710ED17C
:1012400080935368F21121DD90C0FF27E091316A4D
:10125000E5FD0895898190915368F7D08093536894
:10126000898190915468F5D080935468F2110DDD16
:101270007CC0FF27E091316AE5FD08958981909156
:101280005468E3D080935468898190915568E1D087
:1012900080935568F211F9DC68C0FF27E091316A4C
:1012A000E6FD0895898190915568CFD08093556867
:1012B000898190915668CDD080935668F211E5DC13
:1012C00054C0FF27E091316AE6FD0895898190912D
:1012D0005668BBD080935668898190915768B9D081
:1012E00080935768F211D1DC40C0FF27E091316A4A
:1012F000E6FD0895898190915768A7D0809357683B
:10130000898190915868A5D080935868F211BDDC0E
:101310002CC0FF27E091316AE6FD08958981909104
:10132000586893D08093586889819091596891D07A
:1013300080935968F211A9DC18C0FF27E091316A47
:10134000E6FD08958981909159687FD0809359680E
:10135000898190915A687DD080935A68F21195DC0A
:1013600004C001D002C062D992C3809152688091BA
:1013700053685CD98CC389CC089554D9C1F430D05A
:1013800031F482E0CEEFD5E10E949C29C0CB809160
:10139000456A853038F02196E0E2F8E683E0D6DB56
:1013A00031F0B5CBF981E0912268FE13B0CB0895FE
:1013B000E881E93008F00895F0E0E052F64E099433
:1013C00008C008C008C008C0089508950895089589
:1013D000089508959ACB99CBE1E0E093506855CCFD
:1013E000F0914C68E0914D68EF2B0895E23060F188
:1013F00000900570109001700118039400928E689F
:1014000000900470109005700118039400928F688A
:10141000FE2FE03408F0FFE300908E680F9E000C72
:10142000111CF0910170F695F10DE03438F0EF5396
:1014300000908F680E9E000C111CF10DEF2FE7FD40
:10144000EFE7E23008F4E2E008958295880FE0EEDD
:1014500005C0869586958695EFE100C08E23E095C0
:10146000E9238E2B9827F92B0895FE2F8091326A5D
:1014700082110895F0910F70F078EC99EF27809128
:101480001970F0E880FDEF2780912268F091FF69E4
:10149000F07887FDEF27E7FBEF77A8DFE7F9F0911A
:1014A0005168E09351680895529B05C0E0E8FFED54
:1014B00054CC5299FBCFE8E9FFED4FCCA881A37043
:1014C0000E941A2BB981CF93DF930E94B62ADF9135
:1014D000CF91689409F4E89440F5F881EA81FC70B2
:1014E00039F0F43031F0FC3041F0E4FF14C00CC0AE
:1014F0001CC0DEF0AE17C1F018C0AE2F0E94BB2A90
:10150000A1F498F4216010C0AE2F0E94BF2A69F4A4
:1015100060F4216009C04EF0E3FB09DBAE230EF05E
:10152000EE27EA2709F001C08AC80895A881A370B0
:101530000E941A2BB9810E94B62A11F4EA2FFAC22E
:10154000EEC2AA81B9810E941B2BE881E370E0936F
:10155000A96BBB810E94B62A99F7A093AA6BB39599
:101560000E94B62A69F7A093AB6BB3950E94B62A86
:1015700039F7A093AC6BB3950E94B62A09F7A093F4
:10158000AD6BC9EADBE6D8C2CAC2E89402C068946F
:1015900000C081F40E945E29E53060F0A881A3704C
:1015A0000E941A2BB981AA810E94BA2A21F42160D3
:1015B000EA2FC0C2BCC2B3C2B9F50E945E29E131B4
:1015C00098F1B981AA810E941B2BE9EAFBE6A88168
:1015D000A370A083AC81A183BD81B283BE81B3839C
:1015E000BF81B483BB810E94BB2AF9F4A093AA6B8C
:1015F000B395A091AB6B0E94BB2AB9F4A093AB6BDF
:10160000B395A091AC6B0E94BB2A79F4A093AC6B0C
:10161000B395A091AD6B0E94BB2A39F4A093AD6B3A
:101620002160C9EADBE688C282C279C20E946B29C6
:1016300078F0A0E00E941A2BBCE10E94B62A49F47F
:10164000E881E0FBA5F90E94BB2A19F4216089C258
:101650006EC265C2E0EFE093496A0E941117E09301
:101660004A6A0E942117D0934B6AC0934C6AB09388
:101670004D6AA0934E6AC5E5DAE6E0E8E88385E0C6
:101680000E94BB15E883CFE4DAE6E0EDE883E0E012
:10169000E983E0E0EA832B822C8285E00E94BB157F
:1016A000E88322D000C0F7E0E0910A0BEF230DC0E1
:1016B000E0915F6AF091606AEA953AF4FF0FF76093
:1016C000FF77E0910A0BEF2300C0E0935F6AF0938D
:1016D000606A0895F0914C68E0914D68EF2B089591
:1016E000E0915E6AEE23089520925E6A0895F0917B
:1016F0005D6AE0935D6AFE1B08F4F195F53008F031
:10170000F3CF0895CF93DF93E9E4FAE6A991AF70A0
:10171000B191BF70AB1731F4A991B191AB1711F42E
:10172000EF34D1F7DF91CF9108958F93E3E3FAE699
:10173000A091456A8A2F8C0FB081A193BA17A0811E
:10174000B991BA07B1938C13FACFC091426A8F91C5
:101750000895E2E013C0E3E011C0E4E00FC0E5E06B
:101760000DC0E6E00BC0EAE009C0E3E0F4E007C02A
:10177000E4E0F7E004C0E6E0F9E001C0FE2FAE17B8
:1017800018F0FA1708F00895E0918C68F0918D68D0
:101790003196E0938C68F0938D68E0918468E395CE
:1017A000E0938468EF91EF9100C0E0E0A7C083D19F
:1017B000E4E2A4C0CEDFEEE1A1C0CBDFD2D1E1E014
:1017C0009DC0C9DFCED1E5E299C0C5DFCAD1E2E054
:1017D00095C0CEDFC6D1E3E091C0BFDFA5D1E4E084
:1017E0008DC0C3DF9ED1E0E289C0B3DF9AD1E1E2D0
:1017F00085C0AFDF99D1E2E281C0B3DFE5E07EC012
:10180000ACDFE6E07BC0A7DF8FD1E7E077C0A5DFE4
:101810008BD1E8E073C09DDFA4D1E9E06FC099DF10
:10182000A0D1EAE06BC095DF9CD1EBE067C093DF0D
:1018300098D1ECE063C08FDF94D1EDE05FC08BDF27
:1018400090D1EEE05BC087DF8CD1EFE057C083DF43
:1018500088D1E0E153C07FDF84D1E1E14FC07BDF7D
:1018600080D1E2E14BC075DFE091476AE395E21178
:10187000E093476AE3E144C06CDF56D1E4E13EC047
:1018800074DF52D1E5E13AC0A43011F098F425C0DC
:10189000E881E3FD05C0E2FF1DC048DEE6E12EC0A1
:1018A000E2FF04C042DF71DEE7E128C03EDF6FDE09
:1018B000E8E124C0E881FE2FE370F3FD06C0F2FFEB
:1018C00009C04DDF3EDEE9E119C055DF2EDF74DED1
:1018D000EAE114C029D1ECE111C026D1E3E20EC047
:1018E000EFE10CC042DFE091486AE395E211E0933A
:1018F000486AE23009F4E2DDEBE104C02092476A75
:101900002092486AE093446AE091EE69E093436A6A
:101910002062089524DFEA81EADEDCDE39F4E0DECD
:1019200029F4C6DE19F4D1D1E6E2E8CF3ECF17DFC5
:10193000EA81DDDECFDE39F4D3DE29F4B9DE19F435
:10194000C4D1E7E2DBCF31CF0ADFEA81D0DE2DCF91
:1019500006DFEA81CCDEBEDE31F4C2DE21F4A3DE96
:10196000B4D1E9E2CBCF21CF2197CCDE09F01FCF54
:10197000E1E0E0935E6AB1D1EAE2C0CFF4DE219704
:10198000C1DE09F014CFFE81EF81F06CF0932D6A77
:10199000E0932C6AE1E0E0935E6A9BD1EBE2AECF8C
:1019A000EDE2ACCFE091456AE350EB30F8F4E09320
:1019B000456AF0E0E750F34E0995D1F4E091456AAD
:1019C000A8E0BAEBAE0FB21DBC91CB0FAE2FAB1B94
:1019D000A093456AC093426AD9E6E881E93040F4B1
:1019E000F0E0E65FF24E0995ECE288CFCDDEDDCE89
:1019F000DECE1FC01CC01DC02DC019C025C02AC00E
:101A000026C022C016C023C0000000020004020647
:101A10000400060008C007C006C005C006C005C017
:101A200004C003C002C097D0089581D008951894CF
:101A3000089598940895E8E4F8E621C0ECE4F8E607
:101A40001EC0EEE4F8E61BC0E0E4F8E610C0E4E4F3
:101A5000F8E605C0F3DFD1F0EEDFC1F0F2CFA581EB
:101A6000BD81AB1799F4A481BC81AB1779F4A38134
:101A7000BB81AB1759F4A281BA81AB1739F4A181AC
:101A8000B981AB1719F4A081B881AB170895E09123
:101A90009068E3FDEA95E83008F4E0E0E0939068B0
:101AA0000895E0919068E3FFE395E73009F4EFE0F3
:101AB000E09390680895E091B76BE395E33008F008
:101AC000E0E0E093B76BF0E0E959F24E099402C010
:101AD0000CC015C0E0911970E5FF05C0E0910D70D4
:101AE000EF73E068BFC0E0E0BDC0E0911970E5FFB2
:101AF00003C0E0910E70BBC0E0910070B3C0E091F4
:101B00001870E3FFD8CFF091706AE0E0F2FDE16079
:101B1000F3FDE260F1FDE460F5FDE860ADC09DD04D
:101B2000CACF9BD0AED0C7CF98D0AFD0C4CF95D0BE
:101B3000AED0C1CFB0D0BFCFE991DE0181D0E85F98
:101B4000E883ED91E983ED91EA83ED91EB83ED91EB
:101B5000EC83A6D0B0CFE0E0F0E0A0E0B0E0C1D0F0
:101B6000C8C07BD0E091B86BE395EA3008F0E0E0C4
:101B7000E093B86BF0E0E054F24E62D009959BCF51
:101B800090C008C009C00AC00BC00CC00DC00EC078
:101B90000FC010C011D014C03FD042C045D04CC0BF
:101BA00047D02EC011D014C017D01AC01DD020C0ED
:101BB00023D026C029D02CC0E091AD68F0E080C0D1
:101BC000E0918768F7E07CC0E091986BF8E078C01E
:101BD000E0910468F9E074C0E091F06AFAE070C046
:101BE000E091EC6AFBE06CC0E091A268FCE068C0A8
:101BF000E091A368FDE064C0E091946BFEE060C0FA
:101C0000E091F56AFFE05CC0E091AC68F0E158C09B
:101C1000E0919168F1E154C0E0919C68F8E150C016
:101C2000E0919D68F9E14CC0E0919C6BFAE148C0FD
:101C3000E091A66BFBE144C0E091A76BFEE240C0DF
:101C4000CCE0DAE60895A4E0BAE60895A6E0BAE6A4
:101C50000895A091036ABAE60895F8DFA093036A95
:101C6000089547C0EDDFF1E0F883E98349C0E8DF7C
:101C7000F2E0F883E98344C0E3DFF3E0F883E9832B
:101C80003FC0CFE041C0C0EF3FC0CCE33DC0CFE09C
:101C90003BD0CCE339C0D4DFE0DF2882E9833AC00F
:101CA00042C0C4E1DAE6E4E0E883A0E8B8E6ED91FA
:101CB000EC83ED91EB83ED91EA83ED91E98333C001
:101CC000E983FA83F7E0F8832AC0EF9AC9E4DAE6F9
:101CD00034C0EF9ACFE4DAE630C0EF9AC5E5DAE631
:101CE0002CC0AEDFE883F983AA83BB83E0E1EC83F9
:101CF0001FC0F091196AFF0F28F1FF0F18F12BC0D8
:101D0000A2DFE3E021D0F1C8A4DFE1E01DD0CD9354
:101D1000A5CF9FDFE3E018D0E8D8A0CF9ADFE7E0B7
:101D200013D0E1D89BCF92DFFFE315D0D8D896CF60
:101D30008DDFFFE310D0D5D891CF85DFFFEF0BD03B
:101D4000CCD88CCFF0E007C0F091196A02C0FF1F19
:101D5000C8F3E695E0F3F093196A08950895C0EF8B
:101D6000D9E6A091EF692092446AE881E654F0E058
:101D7000F14E0994FFC014C113C112C111C110C1A9
:101D80000FC10EC10DC10CC10BC10AC109C108C1EF
:101D900007C106C105C104C103C102C101C100C11F
:101DA000FFC0FEC0FDC0FCC0FBC0FAC0F9C0F8C057
:101DB000F7C0F6C0F5C0F4C0F3C0F2C0F1C0F0C087
:101DC000EFC0EEC0EDC0ECC0EBC0EAC0E9C0E8C0B7
:101DD000E7C0E6C0E5C0E4C0E3C0E2C0E1C0E0C0E7
:101DE000DFC0DEC0DDC0DCC0DBC0DAC0D9C0D8C017
:101DF000D7C0D6C0D5C0D4C0D3C0D2C0D1C0D0C047
:101E0000CFC0CEC0CDC0CCC0CBC0CAC0C9C0C8C076
:101E1000C7C0C6C0C5C0C4C0C3C0C2C0C1C0C0C0A6
:101E2000BFC0BEC0BDC0BCC0BBC0BAC0B9C0B8C0D6
:101E3000B7C0B6C0B5C0B4C0B3C0B2C0B1C0B0C006
:101E4000AFC0AEC0ADC0ACC0ABC0AAC0A9C0A8C036
:101E5000A7C0A6C0A0C09FC09EC09DC09CC09BC084
:101E60009AC099C098C097C096C095C094C093C0BE
:101E700092C091C0B0C0AFC0AEC0ADC0ACC0ABC02E
:101E8000AAC0A9C0A8C0A7C0A6C0A5C0A4C0A3C01E
:101E9000A2C0A1C0A0C09FC09EC09DC09CC09BC04E
:101EA0009AC099C098C097C096C095C094C093C07E
:101EB00092C091C090C08FC08EC08DC08CC08BC0AE
:101EC0008AC089C088C087C086C085C084C083C0DE
:101ED00082C081C080C07FC07EC07DC07CC07BC00E
:101EE0007AC079C078C077C076C075C074C073C03E
:101EF00072C071C071C070C06FC06EC06DC06CC068
:101F00006BC06AC069C068C067C066C065C064C095
:101F100063C062C061C060C05FC05EC05DC05CC0C5
:101F20005BC05AC059C058C057C056C055C054C0F5
:101F300053C052C051C050C04FC04EC04DC04CC025
:101F40004BC04AC01AC019C018C017C016C015C06F
:101F500014C013C012C011C010C00FC00EC00DC0FD
:101F60000CC00BC00AC009C008C007C006C00DC025
:101F700009C00EC0A150219670C0A093456AC093BD
:101F8000426AABCCA150219625C1A15021962BC20B
:101F9000A150219617C1E091476AE33008F0A2CC26
:101FA000EA9AE991A1506894F0912E6AFE13E894A0
:101FB000B0912F6AB211E894BF2BF0912C6AFE17F2
:101FC00039F4F0912D6AF7FD03C0B21128C045C065
:101FD0000EF0EDCB32C081CCEA9AE981F881A250B3
:101FE0002296E33021F4F03C11F4EB9A57C0B09103
:101FF0002D6ABF17B0912C6ABE0741F4E0912E6A9A
:10200000F0912F6AEF2BE2110AC027C0B0912F6A1E
:10201000BF17B0912E6ABE0709F0C9CB0EC0E09180
:102020001170EC67E093306AE0911270E160E09328
:10203000316AE1E0E093326A16C0EC9AE0911170E7
:10204000E095E378E093306AE0911270E095EE7FDE
:10205000E093316A2092326A06C02092306A209260
:10206000316A2092326AA093456AC093426AE8813D
:10207000E295EF70E25CF0E0FF4D09942BC040C0A8
:1020800055C054C09ACB99CB98CB97CBC4CBC3CB7C
:10209000CACBC5CB71C070C0F7CBF2CBA093456A59
:1020A000C093426AEA98E881E295EF70E65AF0E060
:1020B000FF4D09947ACB79CB78CB77CB76CB75CBA8
:1020C00074CB73CB72CB71CB70CB6FCB6ECB6DCB34
:1020D000DBCBD6CBE991EF70E059F0E0FF4D0994EE
:1020E000C2CBCACBFDCBFCCBF5CBF4CBF3CBF2CB45
:1020F000F1CBF0CB7ECB7DCBEDCBECCBEBCB75CB73
:10210000E991EF70EA57F0E0FF4D0994E3CBE2CBA1
:1021100068CB67CBDFCBDECBDDCBDCCBDBCBDACB6D
:10212000D9CBD8CBD7CBD6CBD5CBD4CBE991EF710C
:10213000E456F0E0FF4D0994CDCBCCCBCBCBCACB52
:10214000C9CBC8CBC7CBC6CBC5CBC4CBC3CBC2CB0B
:10215000C1CBC0CBBFCBBECBBDCBBCCBBBCBBACB3B
:10216000B9CBB8CBB7CBB6CBB5CBB4CBB3CBB2CB6B
:1021700030CB33CB26CB29CBE991EF71EE53F0E096
:10218000FF4D099444CB39CB3BCBA4CBA3CBA2CB03
:10219000A1CBA0CB9FCB9ECB9DCB9CCB9BCB9ACBFB
:1021A00099CB98CB97CB96CB95CB94CB93CB92CB2B
:1021B00091CB90CB44CB47CB4ACB4DCB50CB23CB11
:1021C00036CB39CBA093456AC093426AE881E211CD
:1021D000ECCAF0CAA093456AC093426AE991ED50F7
:1021E000F0E0FF4D0994E1CAE0CADFCADECADDCAE9
:1021F000DCCADBCADACAD9CAD8CAD7CAD6CAD5CACB
:10220000D4CAD3CAD2CAD1CAD0CACFCACECACDCAFA
:10221000CCCACBCACACAC9CAC8CAC7CAC6CAC5CA2A
:10222000C4CAC3CAC2CAC1CAC0CABFCABECABDCA5A
:10223000BCCABBCABACAB9CAB8CAB7CAB6CAB5CA8A
:10224000B4CAB3CAB2CAB1CAB0CAAFCAAECAADCABA
:10225000ACCAABCAAACAA9CAA8CAA7CAA6CAA5CAEA
:10226000A4CAA3CAA2CAA1CAA0CA9FCA9ECA9DCA1A
:102270009CCA9BCA9ACA99CA98CA97CA96CA95CA4A
:1022800094CA93CA92CA91CA90CA8FCA8ECA8DCA7A
:102290008CCA8BCA8ACA89CA88CA87CA86CA85CAAA
:1022A00084CA83CA82CA81CA80CA7FCA7ECA7DCADA
:1022B0007CCA7BCA7ACA79CA78CA77CA76CA75CA0A
:1022C00074CA73CA72CA71CA70CA6FCA6ECA6DCA3A
:1022D0006CCA6BCA6ACA69CA68CA67CA66CA65CA6A
:1022E00064CA63CA62CA61CA60CA5FCA5ECA5DCA9A
:1022F0005CCA5BCA5ACA59CA58CA57CA56CA55CACA
:1023000054CA53CA52CA51CA50CA4FCA4ECA4DCAF9
:102310004CCA4BCA4ACA49CA48CA47CA46CA45CA29
:1023200044CA43CA42CA41CA40CA3FCA3ECA3DCA59
:102330003CCA3BCA3ACA39CA38CA37CA36CA35CA89
:1023400034CA33CA32CA31CA30CA2FCA2ECA2DCAB9
:102350002CCA2BCA2ACA29CA28CA27CA26CA25CAE9
:1023600024CA23CA22CA21CA20CA1FCA1ECA1DCA19
:102370001CCA1BCA1ACA19CA18CA17CA16CA15CA49
:1023800014CA13CA12CAF0CAEFCAEECAEDCAECCA1E
:10239000EBCAEACAE9CAE8CAE7CAE6CAE5CAE4CAB1
:1023A000E3CAE2CAE1CAEACAE9CAE8CAE7CAE6CAAF
:1023B000E5CAE4CAE3CAE2CAE1CAE0CADFCADECAC1
:1023C000DDCADCCADBCAF1C9F0C9EFC9EEC9EDC983
:1023D000ECC9EBC9EAC9E9C9E8C9E7C9E6C99ACABB
:1023E000A6CAB2CAB5CAA093456AC093426AE99127
:1023F000E03F08F4DAC9EF70E050F0E0FE4D0994D8
:10240000CFCAD3C9D2C9D1C9D0C9CFC9CEC9CACA06
:10241000CCC9CBC9CAC9C9C9C8C9C7C9C6C9C5C930
:10242000E0E0E093E8692092196A0895FFFFFFFF5A
:1026000026C04EC050C055C05AC061C068C07FC10E
:10261000A5C1D9C1E7C109C210C21EC226C22EC2BD
:1026200036C241C268C082C0BFC011C126C143C109
:1026300044C145C146C147C148C149C14AC14BC156
:102640004CC14DC14EC14FC150C151C152C1E2E058
:10265000E093110B332424C0E0918868F0918968DD
:102660003196E0938868F09389680AC0E0918A689F
:10267000F0918B683196E0938A68F0938B6800C084
:10268000E0918468E395E093846800C0332403C03C
:10269000E3E03E2E00C0E398E998ED98E1E032C215
:1026A0000E94012A00C0ED99F1CF86F73394E3E050
:1026B00029C2ED99EBCF56F73394E4E023C2ED99AC
:1026C000E5CF26F733940E94541AE5E01BC2ED993A
:1026D000DDCFE6F633940E94591AE6E013C2ED9975
:1026E000D5CF2EF4339409F43A94E6E00BC2E32DEF
:1026F000E43108F4CBCF3092EE69E091E669F091D5
:10270000E769F695E795F695E795F695E795E21D65
:10271000E001FBEAEF9F10921C6A0E01E0EFF9E680
:10272000CFE02192CA95E9F7E3E1ECC10EF0ED9913
:10273000ADCFE091E669F091E769F695E795F695FA
:10274000E795F695E795E21DE001FBEAEF9F109211
:102750001D6A0E01EE27529BEFEFF091FF69E093A7
:10276000FF69FE13EE9AE998EA98EF98EB98EC98D7
:102770002092EF692092ED69E0918568E395E43657
:1027800050F0E0918468F0918668E0938668EF1BD2
:10279000E0938768E0E0E0938568E091016AE39563
:1027A000E093016AE7E1AEC1ED9956CFE091EF69A0
:1027B000EF3008F05BCFF0EFEF0FF9E6F21D31924A
:1027C000E05FE093EF69E091ED69E325E093ED6967
:1027D0005EF509F04BCFE3E0E093110BE0918068E8
:1027E000F09181683196E0938068F0938168E09180
:1027F0008268F0918368E21DF21DE0938268F09395
:102800008368E091E669F091E769F695E795F695BA
:10281000E795F695E795E21DE001FBEAEF9F109240
:10282000206A0E01E6E16EC1E091E669F091E76988
:10283000F695E795F695E795F695E795E21DE001A3
:10284000FBEAEF9F10921E6A0E01E5E15BC1ED9B72
:102850000EF402CFE091E669F091E769F695E7950D
:10286000F695E795F695E795E21DE001FBEAEF9F07
:1028700010921F6A0E01E7E145C1E2E0E093110BFF
:102880002092E4692092E569ED9B0EF0E5CEE0919F
:10289000E669F091E769F695E795F695E795F6957F
:1028A000E795E21DE001FBEAEF9F1092216A0E011D
:1028B00056DAE7E027C1E8E11EC0E9E121C0EAE11C
:1028C0001AC0EBE11DC0ECE116C0EDE119C0EEE16C
:1028D00012C0EFE115C0E0E20EC0E1E211C0E2E299
:1028E0000AC0E3E20DC0E4E206C0E5E209C0E6E2A8
:1028F00002C0E4E105C0ED99AFCE330C30F802C15F
:102900001EF030FCA9CEFEC030FEA6CEFBC0E39A7E
:10291000EEE5FFED0E94AD160EF0B8CEC091196A3B
:10292000D0911970EB99D860D3FFC070D091187016
:10293000EB99D260E0919068E3FDDB7FD2FDDE7F12
:10294000EA99D0FFCC7FEC9BD1FFC370EF99CFEF1A
:10295000C093196A529BB3999BCE00C0E99AD0915B
:102960002A70C0910A0BCD23D0912970CD0FCF7062
:10297000C0931A6AC15BDCE0F001CD9F00921C0B92
:1029800010921D0B0F01E091E669F091E769F69551
:10299000E795F695E795F695E795E21DE001FBEAE8
:1029A000EF9F1092226A0E01E0E0E093110BE0919C
:1029B000196AE0FF06C0C090046AE89AEDE0E0936F
:1029C0001301E9E09FC0F091196AE091056AF1FDF9
:1029D000E0934208E8E6F1E0E0931C0BF0931D0B56
:1029E000EAE090C0D0912C70C0910A0BCD23D09119
:1029F0002B70CD0FCF70C0931B6ACE5AD0911A6A3C
:102A0000CD1BDCE0F001CD9F00921C0B10921D0B42
:102A10000F01E091196AE2FF06C0C090066AE89AC9
:102A2000EDE0E0931301EBE06DC0E0EFF0E0E09348
:102A30001C0BF0931D0BECE065C0F091196AE0915E
:102A4000076AF3FDE0934208E0EEF1E0E0931C0B2F
:102A5000F0931D0BEDE056C0F091196AE091086A01
:102A6000F4FDE0934208EEE04DC0F091196AE09168
:102A7000096AF5FDE0934208EFE044C0F091196A5D
:102A8000E0910A6AF6FDE0934208E0E13BC0F09174
:102A9000196AE0910B6AF7FDE0934208E2E0E093E7
:102AA000110BE1E12FC0E001E091E469F091E569EB
:102AB000F695E795F695E795F695E795E21DFBEA1D
:102AC000EF9FE12DEC51F0911B6AEF0FE093236A29
:102AD0000E01F091196AFC7F91F0ECE1FAE6C191E8
:102AE000C783C191C783C191C783C191C783C19176
:102AF000C783C191C783C191C783C191C783209206
:102B0000196AC4CDE093E869AF91BF91CF91DF918D
:102B1000EF91EFBFEF91FF911895E2E0FBE6A4E0A3
:102B2000B1EDD0E0C1E0D583C083B183A28326821A
:102B30002782208624823A96D395DA30A1F76B98C3
:102B400069986A986C9892C113D0ED91FD91FC83BD
:102B5000FD91F887FD91F9876BD1EFB7E0FB92D239
:102B6000E885E03108F0E0E0E359F0E0F84D099441
:102B7000AD81AA0FAA0FB0E0AC57BF480895C6E6D2
:102B8000DBE6CF93DF930E946A2EDF91CF912A97E5
:102B9000DBDF8E819F8196FB9827907409F0BDD072
:102BA0008881815041F008F088838D81882349F71E
:102BB00024D134D15BC1F981EA8181918C3008F054
:102BC00080E090E086519A4D8F939F930895F9830A
:102BD000EA83EBCF0BC00DC011C02CC036C03FC084
:102BE00042C048C055C05DC063C069C00B807CD086
:102BF000DCCF019079D011901882E9CF0E94AE26E7
:102C00009F938F938191982F92958F709F70092E2B
:102C1000081A03941F90109C180E65D08191982F6C
:102C200092958F709F70092E081A1F90109C180E95
:102C30001882CDCF0E94AE2601909191091A03947B
:102C4000182E109C190E4FD0B8CF0E94AE260190BE
:102C50009191091A182E109C190E1882B8CF9191D3
:102C60008191FC01AACF919181910F01FC018D818D
:102C70000995A3CF0E94AE2601909191981708F470
:102C8000A6CF0394102C100C100CE119F20995CF6B
:102C9000E89410800B80101460F021F43196319686
:102CA00096CF689411900B800114C8F7039415C057
:102CB000689411900B80101490F70A940EC00E9433
:102CC000AE2601909191091A0394182E109C190EAA
:102CD0000B80101408F407D070CF06D01190188222
:102CE0000EF475CF62CF012C0B82A6E6BBE61D80E9
:102CF000A10DB21D0C920895F2EDEEE503C0F2EDC8
:102D0000E8E800C08C81853108F080E0880FE80F8A
:102D1000F21D91918191FC0108958E8186F98E8337
:102D200091ED86E016F491ED8AE099838A8391E033
:102D30009883089513D08F77089510C00FD009F4A9
:102D4000917008950BD009F49370089507D009F499
:102D50009770089503D009F49F70089580911A0B1D
:102D600090910A0B89270895E6E6FBE6D091EB6A7D
:102D7000DF70D395D4FDDA95C0916F6AC211D0612E
:102D8000C191CD17C091010ACF7E08F0C061C093F8
:102D9000010AC191CD17C091010ACD7F08F0C26030
:102DA000C093010AC191CD17C091010ACB7F08F0F1
:102DB000C460C093010AC191CD17C091010ACF7DB3
:102DC00008F0C062C093010AC191CD1708F04B9A78
:102DD00008F44B98C191CD1708F06D9A08F46D98DE
:102DE000C191CD1708F00E9A08F40E98C191CD1735
:102DF00008F00B9A08F40B980895ACE6B0E708D0F9
:102E00008093736A05D0E091726A8093726A089524
:102E100081E0EE910DD0881FE0F70895ACE6B0E7B1
:102E200080E8ED9105D08795E0F78093746A089566
:102E3000E7FBEF77E53410F0EE2712C0EF771E2E98
:102E4000E770F0E0EC59F143008016941694169464
:102E5000E2E5F8E6E10DF21DE0810EF4E025E02167
:102E6000E19508950102040810204080ECE7F0E7A6
:102E7000A0EBBFEDDAE08191CD91C2118883E238F9
:102E8000D1F708951FB6F095F8940090706A0F225C
:102E90000E2A0092706A1FBE08951FB6F095F8942E
:102EA0000090716A0F220E2A0092716A1FBE089567
:102EB000E0916F6AEE230895E0913A70E0939506F1
:102EC000FFB7F894E0916F6AE211EA95E0936F6AB8
:102ED000FFBFE1E0E093960608950FC00FC018C051
:102EE00020C028C030C038C03EC046C04EC072C0EE
:102EF00073C07DC05BC064C050C002C1ECC036F47A
:102F000083FDFEC082FDE7C080FF90FFF9C0E3C0F3
:102F100036F483FDF5C082FDDEC080FF90FFF0C077
:102F2000DAC036F483FDECC082FDD5C081FF90FD90
:102F3000E7C0D1C036F483FDCEC082FF80FDE0C083
:102F400090FDDEC0C8C036F483FDC5C082FF81FDA0
:102F5000D7C090FFD5C0BFC0EEF783FF91FDC1C0C1
:102F600082FFBFC0AFC036F483FF91FDBAC082FFBD
:102F7000B8C090FFC5C0A6C0EEF783FF91FDB1C0F9
:102F800082FFAFC090FDBCC09DC0EEF783FF82FF03
:102F9000A8C091FD089596D0AAC0AEF782FD08950D
:102FA000B3E0B823B21183FDABC095C066F782FDD4
:102FB0000895B3E0B823B21183FDA2C089D09DC0AB
:102FC00016F782FD0895B3E0B823B21183FD98C0CF
:102FD00076D08DC001D00BC06894E0E1B4FD12C082
:102FE000B6FD15C081FD089580FF11C00BC0E894A7
:102FF000E0E2B5FD07C0B7FD11C080FD089581FF77
:103000000DC000C06091B5707091B67013C0E0E45F
:10301000B6FD0BC080FF90FF089507C0E0E8B7FD44
:1030200004C081FF90FD089500C06091B37070915D
:10303000B47000C0B0FD0BC0B3FF089583FF91FDD5
:103040000895FE2F0E9453280E94571527C0B1FDF6
:103050000FC00E946C1509F491FD08953CD0629553
:103060007295EFB7E894E6FF68940E94571516C072
:103070000E946C1511F491FFB3FD089541D00E9498
:10308000551509C08091726A9091706AA985B091B6
:10309000756AB3F90895E0E0FFE305C0E091756A51
:1030A0000894EE1FF3E0EF23B091756AF095BF230B
:1030B000BE2BE093756A08953DDE69F008953DDE0C
:1030C00051F008953BDE39F008953CDE21F008957B
:1030D0003DDE09F00895E0E4EF8308952BDE81F0F2
:1030E00008952BDE69F0089529DE51F008952ADE57
:1030F00039F008952BDE21F008952CDE09F00895B3
:103100002F820895000006267F0006267C0001001D
:103110000000010F01000100000001020101040193
:10312000080F0100010401080001000002008102F3
:10313000108102FF210703A002FE810701FF0000AA
:103140000200F10210F102FF210703A000000101BB
:10315000140211F102FF210702800000080101049E
:103160003010010F010008010104301001040808AB
:103170000F01000001000000090F010450200702A8
:10318000FF00010000000804010008000100010820
:10319000010253110801010406010704C004C040E4
:1031A000090F010702FF0000010F01010101045096
:1031B00020046010090F010702FF00000B03010447
:1031C00080400A00010702FF0000080401010F030C
:1031D0000104010801010101080705FF00000800C2
:1031E0000100010F0A01000A0702FF000200F102BC
:1031F000FFB90200B90702FF000001000100010F42
:10320000010100130702FF00010F01010001010F7E
:10321000010100110704FF00010F01010001010F6E
:1032200001010001010F0101000F0706FF0001006D
:103230000100010001080F010801010702FF000061
:10324000010011080F010801010702FF000008003A
:103250000100010F14010000000001000000D10E68
:10326000D112D11AD12CD140D14ED15CD166D178B6
:10327000D186D18ED1A8D1CAD1E2D1ECD1FED2086B
:10328000D218D232D240D252D10ED116D124D1741A
:10329000D174D174D174D174D182D18AD1BCD1BC52
:1032A000D1DED1FAD1FAD22ED22ED22ED24ED24E99
:1032B000D25A2092766A2092776A089504D0FE2F1F
:1032C000E0E2EF1B0895E091776AF091766AEF1BD8
:1032D00008F4E1950895E091776AF091766A889410
:1032E000EF1308940895C091776AC858D0E0D54983
:1032F000B993E993F993A993C857C03208F0CC2742
:10330000C093776A0895C091766AC858D0E0D549CD
:10331000B991E991F991A991C857C03208F0CC2729
:10332000C093766A089590E3889410C0A881A8237A
:10333000A81711F492E106C0A881A823A817B1F339
:1033400093E100C0A881A817A9F00894A0910210E9
:10335000A1FDFCCFA0FDFACFADE9A4BF9093001072
:1033600008F48993A4BFA1E0A0930010A0910210DB
:10337000A1FDFCCF0895A1D092D00BD00E941517CB
:10338000E093676AF093686A2092616A2092626AA9
:10339000089582E010904E6800904F68F0914C685C
:1033A000E0914D68EF01CD2BD9F4E0911070F4E677
:1033B000EF9FF0E0E211F0ECE0910F70EF770E0E6E
:1033C000121C1F2A81E0E0910070EF77F0E0C091BD
:1033D0001970C5FF05C0F0910D70E0910E70F06C92
:1033E000E0932C6AF0932D6A00922E6A10922F6A55
:1033F0000128E0E0F0E20210EF2F44DDCEEFD5E14E
:103400009BCF22D1E091616AE23060F0E091626A84
:103410002092616A2092626AEE3020F4F0E0ED5E64
:10342000F54D0994089508950CC00DC00EC00FC04D
:1034300010C0089508950FC01EC029C010C013C049
:1034400016C00C9485150C9487150C948B150C9450
:1034500095150C949015F89466DF0C948515A0E0F2
:10346000B3E48CE15EC0A0E0B8E988E25AC0A2E013
:10347000B0E080E856C0F89481E0CEEFD5E15CDFA3
:10348000E6E8F4ED3DC00001111213141D00E4E95B
:10349000F4ED36C000020506090A37383900D4D0E9
:1034A00004D0D6D002D0D8D000C0B0E078D0B39548
:1034B000A091656ABA17D1F70895E091FF15E03041
:1034C00069F0EF3F09F02FDFBFD009D0C1D007D09E
:1034D000C3D005D0CFEFD5E180E02EDF0895B0E076
:1034E000A89506D0B395A091656ABA17D1F708954B
:1034F0003AD028F4D091636ACE2F8A2F17CF08953F
:10350000F894A191EF93FF9395D0A895FF91EF9137
:10351000B191B15010F40C948515EF93FF93E8DF4F
:10352000F5CFF8948F93BF9385D0A895BF918F91D5
:10353000B3958A9509F40C9485158F93BF93D8DFC2
:10354000F5CFE091636AE431EEE0EB0751F0E091F2
:103550000B70F0910C70EF1721F0EF91EF919894B0
:103560000895189408954AD033960994F0DF46D010
:103570003196099426F0E5DF41D032960994E1DFD7
:10358000AF93F4DFEF91E3FB0E949715E095AE2334
:10359000E0950EF0EE27AE2B31D0329609942ED066
:1035A00030960994A0E027C0EA81A98121C0EA8170
:1035B000F091636AA081F091646AA08319C0EA81E6
:1035C000F091646AA08114C0EA81F091646AB091BC
:1035D000636A89DE0DC0E981FA81A08109C0E981B1
:1035E000FA81A08305C00F92C895A02D0F9000C04E
:1035F000189408940895189488940895CB2FD09126
:10360000656ACD1778F4D0E0CC0FDD1FCC0FDD1F3D
:10361000F091666ADF0FE881E43149F0F0E0E552AD
:10362000F04D0895C0E0D4EEEBEDFFE20895E9819E
:10363000FA810895B0E0B03099F4A03029F0A130BB
:1036400039F0A23049F00CC0A4EDB0EEF0E00BC0B0
:10365000ADE7B4EEF0E007C0A1E0B6EEF1E003C0E4
:10366000A0E0B0EEF0E0A093656AB093666AFC5EFD
:10367000F093636AF45AF093646A089503C007C034
:1036800009C012C0A0910014A0930070B1CFA09106
:103690000070AECFAA2339F032F0E0E0F0E7B0914D
:1036A000636A21DEA5CF7ECFE0E0A3E0A1CF7ACF91
:1036B00002C003C077CFADE09BCF0E94121361F42C
:1036C000E091616AF091626AFA13E0E0E395E093B9
:1036D000616AA093626A8CCF65CF03C007C009C03E
:1036E00015C0A0910B14A0930B7082CFA0910B700A
:1036F0007FCFAF3F11F4A0910C70A03F30F4EBE00E
:10370000F0E7B091636AEFDD73CF4CCFEBE0A1E05F
:103710006FCF03C007C009C011C0A0910C14A093C3
:103720000C7066CFA0910C7063CFA03F30F4ECE03A
:10373000F0E7B091636AD7DD5BCF34CFECE0A1E076
:1037400057CF30CF06C02ECF2DCF2CCF05C02ACFDC
:1037500029CFE1E0F1E947CFE0E0F1E944CF19C03A
:10376000C0911E75E0910668CE1BC158E8E8FBE6E3
:103770000E94E415B093AB6AC0911C75E091076894
:10378000CE1BC158EEE8FBE60E94E415B093AC6A8C
:1037900008950F9803D008D00F9A0895E0E0E093C1
:1037A000A66AE093A76A0895A0E0A093A86AA093F0
:1037B000A96A089592E0E091A66AF091A76AFE13C3
:1037C000E3959A95E1F7E093A66A089592E0F3DF16
:1037D000E091A66AF3E79091A76A9E1729F090817D
:1037E0009993E3958A95B9F7E093A66A0895CAE696
:1037F000D8ED1EC0CEEBD8ED1BC0C0E7D8ED18C089
:10380000C6E7D8ED15C0C2E8D8ED12C0CCE7D8EDB8
:103810000FC0C8E8D8ED0CC0CEE8D8ED09C0C4E9A7
:10382000D8ED06C0CAE9D8ED03C0C0EAD8ED00C0A3
:103830009991899103D09A95E1F70895E091A96A49
:10384000F091A86AFA95EF1739F0F4E78193E093C5
:10385000A96AE0EAE09325080895F0912408F5FFAD
:10386000FCCF00C080932208089505AA003F0120E4
:1038700005AA0007010005AA003E010005AA003DB7
:10388000010005AA003D010C04AA0120080004AAB9
:10389000011A060004AA0134020004AA0155160008
:1038A00004AA01006B0006AA00410221040006AA36
:1038B00000410224000006AA00410224060006AAD4
:1038C00000410221020006AA00410224030006AAC8
:1038D00000410221010006AA00410221070006AAB8
:1038E0000041022405000895D7E949C24AD2F9D11E
:1038F00048D2E0910210E1FDFACFEDDCC0F703DD24
:10390000C081CA17B1F3A083FB2FCDE9D3E1C4BFB7
:10391000D0930010A083D1E0C4BFD0930010D1E0B9
:10392000D0930410D0930310E2CF84E190E00E9482
:10393000A92EFBCF82E390E00E94A92E0E94BF2512
:10394000F9CFE8E8FBE6C0E4D2E70E94D515EEE83F
:10395000FBE6C0E5D2E70E94D51580ED97E00E9416
:10396000A92E22DF1BDF82E390E00E94A92E45DF13
:1039700082E390E00E94A92E3DDF82E390E00E9466
:10398000A92E3EDF82E390E00E94A92E3CDF82E375
:1039900090E00E94A92E02DF07DF80ED97E00E94F1
:1039A000A92EFCDE42DF84E690E00E94A92EC0E052
:1039B000D5E78BE60BDF0E946A2ED2DEF2CFE1D193
:1039C0000E948F170E947F128CD1F9CF88EE93E06E
:1039D0000E94A92E32D20E946916FCCF0C94B42604
:1039E0000C9430140C9435150E945C270E948E179D
:1039F0000C94FD14E091016A2092016AE093006A40
:103A00000C94511DFEEDE0E9DAE6CDEA82E10E9478
:103A1000A11514D037D03FD047D04FD057D05FD06A
:103A200067D06FD011272227D9E0C9E9C093E96A8E
:103A3000D093EA6A089578940C94252DEDEAFAE67D
:103A4000E093E66AF093E76A08950E94742C20924E
:103A5000ED6A2092EE6A2092EF6A1D7FE091ED6A96
:103A6000F091EE6AC091EF6A3196C21D11FDEFCF61
:103A70002223D1F3E093ED6AF093EE6AC093EF6AEC
:103A800030D1ECCFE9E4FDE2E0933F69F0933E6989
:103A900008950C94762CE2E5FDE2E0935F69F093E3
:103AA0005E6908950C94952CEBE5FDE2E0937F6947
:103AB000F0937E6908950C949A2CE4E6FDE2E0937D
:103AC0008169F09380690895A3E924C0EDE6FDE2E1
:103AD000E093A169F093A06908950C94A12CE6E706
:103AE000FDE2E093C169F093C06908950C94DF2C66
:103AF000EFE7FDE2E093C369F093C2690895A6E998
:103B000009C0E8E8FDE2E093E369F093E269089513
:103B10000C94E62C0C94471710FD7FC0F093F86AC4
:103B2000FFB7F093F76A1160E093F96AD093FA6AED
:103B3000C093FB6AB093FC6AA093FD6A9093FE6AFF
:103B40008093FF6A1092006B0092016BC091EB6A48
:103B5000C395C093EB6A09F41860CF7009F4146040
:103B6000C0FD14C01061C091E96AD091EA6AC150E9
:103B700015F41062C97F10F41064C979D04010F4B4
:103B80001068D970C093E96AD093EA6A17FD55D0DE
:103B900076D00E94EE2C14FD0E94F02C12FD0E94A3
:103BA000F22C13FD0E94F42C17FD0E94FA2C14FF36
:103BB0001BC0DAE6C3ECA1E0E881F981319788F017
:103BC00071F42A2BE883F983EA81FB81FE2B49F00B
:103BD000FB810180A0950A22A095018202C0E883A2
:103BE000F9832496AA0F41F70090016B1090006BA7
:103BF0008091FF6A9091FE6AA091FD6AB091FC6A83
:103C0000C091FB6AD091FA6AE091F96A1270F09162
:103C1000F76AFFBFF091F86A0895F894E1E0F1E0E7
:103C20000E94552FFFEF3197F1F7E0E0F1E00E949D
:103C3000552FF0E43197F1F7F0CFE091EE6AF09173
:103C4000EF6AEE0FFF1FEBE8FE9F000C111CE4E68D
:103C5000E119E093EC6A1260C091F16AD091F26AC6
:103C6000C093F36AD093F46AD695C795D695C79555
:103C7000C093F06A2092F26A2092F16A0895E0916E
:103C8000EB6AEF70E093E86AEE0FF0E0E65BF14D6F
:103C9000099408950C94492E0C94492E0C94492EA5
:103CA0000C94492E0C94492E0C94492E0C94492EB8
:103CB0000C94492E0C94492E0C94492E0C94492EA8
:103CC0000C94492E0C94492E0C94492E0C94492E98
:103CD0000C94492EF091E36AFF0F11F02F1708F4AE
:103CE0000895E091F16AF091F26A3196E093F16AF9
:103CF000F093F26AC091E66AD091E76AEDB7FEB739
:103D0000E993F883E0E2F22FC0E8FF0F30F019F0FA
:103D1000C695E450D1F7CC27EE27C093E36AE09331
:103D2000E56AE695E093E46ADAE6CDEACE0FD21DC5
:103D3000C093E66AD093E76AE991F881CFB7F89427
:103D4000EDBFFEBFCFBF089591E0899FC00101C0C4
:103D50009927CFEBDAE6B091E56ACB0FD21DBFB75A
:103D6000F89488839983D091E36AD0952D23BFBFBF
:103D7000B8CF07D0B6CF03D0B4CFD091E36A2D2B04
:103D80000895D091E36AD0952D2308952082218251
:103D90000895689401C0E894D091E36ABFB7F8949D
:103DA000C081CC2321F0CE7FC083BFBF0895C181E5
:103DB000CD2BC183BFBF0EF0DCCFCBCFBFB7F89404
:103DC000C191D081DD2321F4C160C293BFBF0895AA
:103DD00020822292BFBF0DC0BFB7F894D081D260BD
:103DE000D193D081DD2311F4BFBF08952082BFBFDE
:103DF00000C0EFEBFAE6CD2F3496CC0F41F0E0F7A0
:103E0000F8942192219221922192BFBFF6CFB7CF91
:103E100020820895BFB7F894A081AE7FA083BFBF72
:103E20000895F8DFB8CFE1E0F1E00E94552F089542
:103E3000E0E0F1E00E94552F0895C9EBDBE6ECE7E6
:103E4000FEED0C2E9FEFA191B191BF3F81F0119635
:103E50008FEF83951D901120E1F382118395899353
:103E6000981788F38211982F82110C2EECCF909323
:103E7000F56A0894C009C093F66A0895006920693C
:103E80004069606980698269A269C269C469FFFF8B
:103E90001F693D695D697D697F699F69BF69C16906
:103EA000E1690895E2E0F2E000C0EF23F0950090B0
:103EB000A06B0F22E02906C0E0E004C0EFEF02C0D3
:103EC000E1E000C0E093A06B00C0E091A06B0C9417
:103ED0001B17EF23F0950090A16B0F22E02908C07B
:103EE000E0E006C0E5E504C0EFEF02C0EFE000C08F
:103EF000E093A16B00C0E091A16B0C941917310BFA
:103F000000000100073100809E6A0001004040313E
:103F1000008000000002310B000001000731008327
:103F20009E6A000100404031008300000002310B16
:103F300000000107003100809E6A0001004040310E
:103F4000008000000002310B0000010700310083F7
:103F50009E6A000100404031008300000002110B06
:103F60000000011240110183A06A000101424011CA
:103F70000081B26B0001004040110081000000028E
:103F800031030000011110310080AE6B00010040D0
:103F900040310080000000063103000001101131A3
:103FA0000080B06B0001004040310080000000063E
:103FB000292A2C2B0000F6CAF5CAF4CAF3CAF2CAA1
:103FC000F3CAF0CAEFCAF3CAFACAFECAEDCAEACA0D
:103FD00002CBE8CAE7CAE6CAFECA01CBE3CAE2CA14
:103FE000E1CAE0CADFCAFFFFFFFFFFFFFFFFFFFFDD
:10400000143E2B7F0801017F080802FF080803FF08
:1040100008FF04FF088005FF0415000014572B005B
:1040200008000603083207FF081008FF0404000018
:104030000800090008000A00146D2BFF14892BFFEB
:1040400008C30DFF08E80EFF08000FFF080010FF6F
:10405000080011FF080012FF0800130008001400F8
:104060000000000000000000080017FF089E181163
:10407000080A1911101A7000040000FF04FF00FF65
:104080000000000000000000000000000000000030
:104090000000000000000000000000000000000020
:1040A0000000000000000000000000000000000010
:1040B00000000000000000000804290F08002A0F7B
:1040C00008042B0F08002C0F000000000000000067
:1040D00000000000080030070802310F08D432FF4A
:1040E00000000000086434FF084135FF08B436FFC3
:1040F000085637FF085638FF088039FF08283AFF6E
:1041000008023B0008A03CFF08033D7F08073E7FF4
:10411000080C3F7F0810407F0815417F0819427F37
:10412000081E437F0822447F0827457F082B467FCF
:104130000830477F0834487F0839497F083D4A7F67
:1041400008424B7F08464C7F084B4D7F084F4E7FFF
:1041500008544F7F0858507F085D517F0861527F97
:104160000866537F086A547F086F557F0873567F2F
:104170000878577F087E587F000000000406000082
:104180000C4068000C4168000C4268000C43680059
:104190000C4468000C4568000C4668000C47680039
:1041A00008005AFF08005BFF04010000040900003A
:1041B0000C01A1000C0091000C0191000C00910079
:1041C0000C1180000C10800014A12BFF14A52BFFF4
:1041D0000C1717000CFF15000CFE150008015CFF02
:1041E00008025DFF08035EFF08045FFF080560FF2B
:1041F000080661FF080762FF08FF63FF08FF64FF0E
:1042000008FF65FF08FF66FF08FF67FF08FF68FFFC
:1042100008FF69FF08086AFF08096BFF083D6CFF8B
:10422000083E6DFF083F6EFF08406FFF084170FFBA
:10423000084271FF084372FF084473FF08FF74FFD0
:1042400008FF75FF08FF76FF08FF77FF08FF78FF7C
:1042500008FF79FF08FF7AFF08FF7BFF08FF7CFF5C
:1042600008FF7DFF08FF7EFF08FF7FFF08FF80FF3C
:1042700008FF81FF0000820000008300080084FF27
:10428000080285FF080286FF08FF87FF080088FFF5
:10429000080289FF08038AFF08FF8BFF08008CFFD4
:1042A00008018DFF08078EFF08FF8FFF080090FFB1
:1042B000080191FF080892FF08FF93FF08FF94FF91
:1042C000080095FF080096FF08FF97FF08FF98FF7A
:1042D000080099FF08009AFF08FF9BFF08FF9CFF5A
:1042E00008009DFF08009EFF08FF9FFF08FFA0FF3A
:1042F0000800A1FF0800A2FF08FFA3FF08FFA4FF1A
:104300000800A5FF0800A6FF08FFA7FF08FFA8FFF9
:104310000800A9FF0800AAFF08FFABFF0887ACFF51
:104320000803ADFF0800AEFF0820AFFF08E0B0FFB4
:104330000880B1FF0880B2FF0825B3FF083FB4FF33
:104340000853B5FF0833B6FF10756B000455000025
:10440000040900000401000000000000000000009A
:104410000C4368000C4268000C4168000C406800C6
:104420000C4768000C4668000C4568000C446800A6
:104430000C0875000C0975000C0A75000C0B750052
:104440000C0C75000C0D75000C0E75000C0F750032
:104450000C1075000C1175000C1275000C13750012
:104460000C1475000C1575000C1675000C177500F2
:104470000C1875000C1975000C1A75000C1B7500D2
:104480000C1C75000C1D75000C1E75000C1F7500B2
:104490000C2075000C2175000C2275000C23750092
:1044A0000C2475000C2575000C2675000C27750072
:1044B0000C2875000C2975000C2A75000C2B750052
:1044C0000C2C75000C2D75000C2E75000C2F750032
:1044D0000C3075000C3175000C3275000C33750012
:1044E0000C3475000C3575000C3675000C397500F0
:1044F0000C3A75000C1A75000C1B75000CAB6A00A9
:104500000CAC6A0000000000000000000000000089
:104510000000000000000000000000000C9A68008D
:104520000C9B68000C9C68000C9D68000CA2680045
:104530000CA368000C8068000C8168000C82680085
:104540000C8368000C8868000C8968000C8A68007D
:104550000C8B68000C8C68000C8D68000C246A00C1
:104560000C256A000C266A000C276A000C286A00D9
:104570000C296A000C2A6A000C2B6A000CEE6900F8
:104580000CFF69000C006A000CB56B000CB66B00E8
:104590000C946B000C0268000C0368000C046800AB
:1045A0000C0568000C0068000C0168000CFD15008B
:1045B0000CB96B000CBA6B000CBB6B000CBC6B0035
:1045C0000CBD6B000CBE6B000CBF6B000CC06B0015
:1045D0000CC16B000C2168000C2068000C226800E4
:1045E0000C2C6A000C2D6A000C2E6A000C2F6A003D
:1045F00004550000FFFFFFFFFFFFFFFFFFFFFFFF6E
:1046000004550000FFFFFFFFFFFFFFFFFFFFFFFF5D
:00000001FF
; 
; *** EOF 
