@ba15 ; Affinity 
@bb01 ; MemBank 
@bc03 ; Command 
:020000020C00F0
:100000005BC1089581E084C082E082C083E080C04B
:10001000F6D0F9C085E07CC086E07AC087E078C081
:1000200088E076C089E074C08AE072C08BE070C05E
:1000300071C000008DD09FC08EE06AC08FE068C0A4
:1000400080E166C081E164C082E162C083E160C09A
:1000500084E15EC085E15CC086E15AC087E158C09A
:10006000D4C0000089E154C08AE152C08BE150C085
:100070008CE14EC08DE14CC08EE14AC0FFC0000053
:1000800008C1000081E244C082E242C0F1C0000029
:1000900084E23EC085E23CC086E23AC087E238C0D6
:1000A00088E236C089E234C08AE232C08BE230C0D6
:1000B0008CE22EC08DE22CC08EE22AC08FE228C0D6
:1000C00080E326C081E324C082E322C083E320C012
:1000D00084E31EC085E31CC086E31AC087E318C012
:1000E00088E316C089E314C08AE312C08BE310C012
:1000F0008CE30EC08DE30CC08EE30AC08FE308C012
:1001000001005FD102010000426AF9667163DBE120
:1001100014D2FFCF0FB73F014001E0915F6AE39532
:10012000EF3008F0EE27E0935F6AF0E0E756FF4E0D
:1001300009946CC277C280C2B0C23BC33EC341C304
:1001400044C347C34AC34DC350C353C359C360C319
:10015000E89B08C0E89820921301C0924208CF9013
:10016000CF901895209252010091160B0093160B18
:100170002092150B1895FF93EF93EFB7EF93DF9352
:10018000CF93BF93AF93F894E0911C0BF0911D0BAC
:100190007894A091C669B091C769E093C669F0935D
:1001A000C769EA1BE093C869FB0BF093C9696894BF
:1001B000B2E0E037FB0708F4ED9AB3E0EC30FB0760
:1001C00058F0E894B4E0E833FB0708F4ED9AB5E0A2
:1001D000E03AFB0708F0ED9AF091140BE0E1A091F2
:1001E000E169EE9BFE27EE98E3E0A211E5E0E093E3
:1001F0004102F093140BE091CA69FCE1099401E01B
:100200000093530118950C94DA233F01E0914A6A58
:10021000F0914B6A00911006019300911106008342
:10022000E0914C6AF0914D6A019100930C060191A6
:1002300000930806019100930906019100930006BE
:1002400001910093010601910093A0000191009398
:100250004A6A019100934B6A019100930B06019148
:1002600000930A06E0934C6AF0934D6AF3011895E7
:100270000FB72092031021600FBF18953F01009126
:100280002008E091656AF5E70193E093656AF30160
:1002900018953F01E091666AF091676AEF1304C018
:1002A000E0E8E093250806C0F6E7019100932208F4
:1002B000E093666AF3011895A895F89422242DBA64
:1002C000E8EDE0933400E5E8E0930110EFE1F9E6B2
:1002D000EDBFFEBFE0E0F9E6C0EADBE02192219746
:1002E000E9F720920508A2E4A0931202ABE4A093E0
:1002F0001402A3E0A0934102A8E0A0935604A4E056
:10030000A0937004A0937704A093B2040D98059A6B
:100310000C98049A4F9A47984F98479A4798A298F2
:1003200068986F9860986798A0E8A0937304A0936A
:100330007104A0937204A0937404A3E0A093E60553
:10034000A6E3A093010AA1E0A093030AABE0A09367
:10035000000AE0E0FBE02082218222862386A0EED4
:10036000BEE22486B587A1E0A683A1E0A583A3E031
:10037000A083E0E1FBE02082A2E0A183A1E4A483CA
:10038000A1E0A683A583A3E0A083A3E0A09320021D
:10039000A5E0A0932102E1E0E093C001E3E4E09353
:1003A000C901EEEEE093CB01E1E0E093C801A0E1EA
:1003B000A0931102E0E8FBE0A2E0A0934902A09321
:1003C0004A02A4E0A08BA18BA1E8A087A187E0E866
:1003D000FBE0B8EDA0E0A183A0E0A283A3E3B0938B
:1003E0003400A28BAFEFA2A723A6A6A727A6A0A79B
:1003F000A1A7A4A7A5A7A685A0FFFDCFA1E0B093C4
:100400003400A083A0915101A0FDFCCFA9E1A093ED
:100410005001A1E0A0935301A0935201E0E0F6E067
:10042000A1E1A083A0E0A183ABE0A283A0E0A3832D
:10043000A0E0A483A2E0A0930506A0E0A087A7E027
:10044000A187A5E8A093A200A4E0A0937604A1E46C
:10045000A093A006AFEF2092A206A093A3060F9848
:10046000079AA8E0A0935004A0935104A0935704C6
:10047000E0E2F8E02682A5E8B6E0A087B187A0E038
:10048000A583A3E0A783A2ECA68347984F9A479A37
:10049000489A409A0E944A26E8EDE4BFE8E0E093DB
:1004A00000010E944C1E0E94341B0E949A250E944B
:1004B0009D250E9498210E94682073D073D4F1D5A5
:1004C0000E94B6220E9450230E94F2210E942C26F4
:1004D000E1E0E0931168E0911068E395E093106823
:1004E000C3D20C9469230895E0E003C0E0E101C0A9
:1004F000EFEFE4990BC0E095E093A80B2092A90BD5
:10050000EFEFE093AC0BE093AD0B0AC0E095E09306
:10051000AC0B2092AD0BEFEFE093A80BE093A90B8F
:10052000EFEFE093AA0B2092AB0BE093AE0B20927F
:10053000AF0BE1E0E093840B089500240A94E0E817
:10054000FBE000A601A604A605A6EACF0024E0E889
:10055000FBE000A601A604A605A6E2CFE0912F705D
:10056000E1FF03C000C0E0E001C0E1E8E093880BD8
:10057000E093890B0895E1E0F2E02092A80B20922D
:10058000A90B2092AC0BE093AD0B2092AA0BE09349
:10059000AB0B2092AE0BF093AF0BE1E0E093840B3A
:1005A00008954F9A479AE0913868E211EE13E4ED0E
:1005B000E09338680E94AE122CBAE0E000C0FE2F33
:1005C000FF7721F0EA9509F4E29A09F0E298E093C6
:1005D000536A0895E091536AEF77E13009F4EE270A
:1005E000EE230895E0910870E09337680895E09154
:1005F000536AE078E4CFE69903C0E69AECE002C0E3
:10060000E698EDE0E0935F6A0895089520925F6AAE
:1006100094DFE0910770F0E3EF9FE0ECF3E0E00D92
:10062000F11DFEC0E1E0E0935F6AE1996098E19B13
:100630006798E0ECF3E0F4C0E2E0E0935F6A609872
:100640006798E39927C0E091606AF3E70090616AD8
:100650001090626AF0810F1A1208F0914F6A0F0E23
:10066000121C0092616A1092626A0F2EF3E70192E7
:10067000E093606A20920506E19904C0E19AE2EDF8
:10068000FCEC03C0E198E2E0FDEC00902F7002FC6E
:10069000789620D2E0ECF3E0C3C0E091596AF09183
:1006A0005A6AF7FF05C0F095E195FF4FF7FDFFE7A8
:1006B000EE0FFF1FEE0FF21D08F4FFEFF093506AEC
:1006C000E0910470E095E6950E2E0694E00D0694F8
:1006D000E00DE05FEF9FF001EE0FFF1F08F4FFEF6A
:1006E000FF2321F4E091506AE211F1E0F0934F6AA8
:1006F000E091516AEE2321F0FE1769F068F022C004
:1007000020924F6A2092506AEFEFE0935F6AECDE2E
:10071000E0ECFDE585C090CFE0914E6AF09132703B
:10072000EF1720F4E395E0934E6A86CF0090516A6C
:100730001090626AE0E0101410F4E0913170E093E0
:10074000556A31C0E0914E6AE211EA95E0934E6A33
:100750005DCFF091516AF695EF0F08F4EFEF0BC003
:10076000F091516AF695EF0F08F4EFEFF091556AAA
:10077000EF0F08F4EFEFF0913868EF9FE12DEF3FB6
:1007800008F0EFEFB6CEF091576AF695F695EF0FB9
:1007900006C0F091516AF695F695EF0F00C0FCE0A7
:1007A000EF9FF0013DC0609A679AECECD9DFEAEA6E
:1007B000F6CFE2EBD5DFE2E8ECCFECECD1DFEAEA12
:1007C000EECFE2EBCDDFE2E8E4CFECECC9DFEAEA22
:1007D000E6CFE2EBC5DFE2E8DCCFECECC1DFEAEA32
:1007E000DECFE2EBBDDFE2E8D4CFECECB9DFEAEA42
:1007F000D6CFEFEFE0935F6AE2EBBDDFE2E8CFCF69
:10080000EFEFE0935F6AEFEF76DEEFEFFFEFC8CF39
:10081000EFEFE0935F6AEFEF79DEEFEFFFEFC0CF2E
:10082000E0930C0BF0930D0BE1E0E093060B040159
:10083000F3010FBF1895E09B90913770E09990916C
:100840003870E0912F70E0FF04C0E091A96AE1FDEB
:1008500035C0E091516AEE2389F1E091506AE99F39
:100860000894001C111C80E0881F90912F7092FD4D
:10087000000C92FD111C92FD881FEDE2F8E6A081AC
:10088000B181C281D381E09B05C0A019B109C80B19
:10089000D20904C0A00DB11DC81FD21DA083B18311
:1008A000C283D383A481B581C681D781A00DB11D38
:1008B000C81FD21DA483B583C683D783E091576A2E
:1008C000F0913070EF1BE093576AC091546AE09149
:1008D000526AF091536ACF01982797FDF078CF01C3
:1008E0008F779F77E299CC27891721F4903089F090
:1008F000891769F030F0C150F0F4C0910370EA95A7
:1009000009C0C150C0F4C0910270E39503C0CC2768
:1009100001C0EF2FE7FFE09AE7FDE098E093526A0D
:10092000EF77E093516AE099E498E09BE49AE099CC
:10093000E598E09BE59AC093546A0895EDE2F8E6E5
:100940000580A681B781000CAA1FBB1F000CAA1F3F
:10095000BB1F000CAA1FBB1F02101196A087B187F6
:100960002482258226822782E0913768E211EA9567
:10097000E0933768E211EE133ADEE0910470E195FE
:10098000E03408F4E0E4E03C08F0E0ECE093586A7E
:100990000090516A1090626A101899F0E0913868DE
:1009A00010F0EA9504C0F2E0EF0F08F4EFEFF091D9
:1009B0003370EF1708F4EF2FEF3F08F0EEEFE093FE
:1009C00038680895E770F0E0E053F645E081089557
:1009D0000102040810204080019009928A95E1F7F5
:1009E000089529928A95E9F70895799FE001689F13
:1009F000D001699FB00DC11DD21D789FB00DC11DE2
:100A0000D21D089580E404C080E202C080E100C0ED
:100A1000C083D1838283238224822582E2CF0DD0BA
:100A200007C00BD003C009D0AA0FBB1FAA0FBB1F62
:100A3000AA0FBB1FAA0FBB1F0895B381A081AB0FE4
:100A4000B181B21DDC91CC93A481B581AD1BB209FB
:100A5000AC0FB21DA483B583C281D381D395DC17BB
:100A600008F0DD27D3830895C0E0D8E6A6E1B0E022
:100A70000ED0C0E0D8E6AAE1B0E014C0C0E0D8E6ED
:100A800080E0AFDF00C0EFEFE0931B68089584D0F3
:100A9000F001A095B095C095D095A083B183C28395
:100AA000D383089579D0F00180830895E0914A6A54
:100AB000F0914B6AEF2B0895CF93C0914A6AC2110F
:100AC00006C0C0914B6AC21102C0CF9103C0CF9142
:100AD00088940895CF93C2E0C0930A06C1E0C09302
:100AE0000D06C191C0930006C191C0930206C19149
:100AF000C0930306C191C0930406C191C0930C0634
:100B0000C191C0930806C191C0930906C191C093D9
:100B10000006C191C0930106C191C093A000C1918C
:100B2000C0934A6AC191C0934B6AC191C0930B06AE
:100B3000C191C0930A06E0934C6AF0934D6ACF913D
:100B40000894089576956795769567957695679557
:100B5000769567958091061190910711861B970BEA
:100B6000609104117091051140DFC695B795C69547
:100B7000B795C695B795C695B7957C2F6B2F0895F9
:100B80000C9410000C9411000C9412000C9413009F
:100B90000C9414000C9415000C9416000C9417007F
:100BA0000C9418000C9419000C941A000C941B005F
:100BB0000C941C000C941D000C941E000C941F003F
:100BC0000C9420000C9421000C9422000C9423001F
:100BD0000C9424000C9425000C9426000C942700FF
:100BE0000C9428000C9429000C942A000C942B00DF
:100BF0000C942C000C942D000C942E000C942F00BF
:100C00000C9430000C9431000C9432000C9433009E
:100C10000C9434000C9435000C9436000C9437007E
:100C20000C9438000C9439000C943A000C943B005E
:100C30000C943C000C943D000C943E000C943F003E
:100C40000C9440000C9441000C9442000C9443001E
:100C50000C9444000C944500A881A3700E940421C8
:100C6000B981CF93DF930E94BA20DF91CF9158F5DD
:100C7000F881EA81FC7039F0F43031F0FC3039F061
:100C8000E4FF18C00AC01FC0AE17E1F01CC0AE2FB1
:100C90000E94BD20C0F4216015C0E3FB0E94E21455
:100CA000E095AE23E0950EF4AE2B0E94BD2058F4E3
:100CB000216008C0E3FB86DEAE230EF0EE27EA27B4
:100CC00009F001C098CC0895A881A3700E94042166
:100CD000B9810E94BA20EA2FCAC3AA81B9810E94B1
:100CE0000521E881E370E093EB6ABB810E94BA20A2
:100CF000A093EC6AB3950E94BA20A093ED6AB395D5
:100D00000E94BA20A093EE6AB3950E94BA20A093E5
:100D1000EF6ACBEEDAE6ADC379F40E949D21E530AF
:100D200058F0A881A3700E940421B981AA810E9471
:100D3000BD202160EA2F9BC3B1C396C3E9F70E948F
:100D40009D21E131C8F3B981AA810E940521EBEE12
:100D5000FAE6A881A370A083AC81A183BD81B28390
:100D6000BE81B383BF81B483BB810E94BD20A093A9
:100D7000EC6AB395A091ED6A0E94BD20A093ED6A44
:100D8000B395A091EE6A0E94BD20A093EE6AB39540
:100D9000A091EF6A0E94BD20A093EF6A2160CBEE84
:100DA000DAE667C3ECECFAE6C0E0D4E72DDEE0EC6F
:100DB000FAE6C0E2D4E728DEE6ECFAE6C0E4D4E7DF
:100DC00023DEE2EDFAE6C0E6D4E71ECE809113689A
:100DD000F3E0E0E080FF04C0E59BE160E599E260BC
:100DE0000E945F210895F894E0911D6A20921D6A87
:100DF0007894E03009F40895EC3208F074CBC09197
:100E00001B6AD9E6E85FF0E0F84E09950C943517B7
:100E10006ACB69CBB2C0BAC066CB65CB64CB63CBBF
:100E200062CBE2C0EFC001C10CC11BC15CCB5BCB8C
:100E30005ACB59CB58CB95C056CB55CB54CB53CB73
:100E400052CB51CB50CB4FCB4ECB4DCB4CCB4BCBD6
:100E50004ACB49CB48CB47CB46CB45CB44CB43CB06
:100E600042CB41CB52C146C10895A895F8946091F8
:100E7000F46A7091F56A789465DEEB01CF5DD0403D
:100E8000ECECFAE6CEDDB093E86A6894E091E169B3
:100E9000E0FDE894C091F06ACC0FC091F16ACC1FDC
:100EA00008F4CC27E0ECFAE6BCDD0EF0B093F76A6C
:100EB0000EF4B093F86AC091F26ACC0FC091F36A55
:100EC000CC1F08F4CC27E6ECFAE6ABDD0EF4B093C9
:100ED000F76A0EF0B093F86AA091F76AAB0FA79586
:100EE000A093E469A25308F4A0E0A093E96AA0915A
:100EF000F76AB091F86AAB1BA058A093F96AC09149
:100F00005B6AD0915C6ACC0FDD1F08F4DFEFCD2F58
:100F1000E2EDFAE686DDB093FA6A80911A70A0914C
:100F20003470B091FA6ABA1708F08160A0913570F8
:100F3000B091E86ABA1708F08460A0913670B09159
:100F4000E96ABA1708F0886080931A700895529B76
:100F500005C0E2E3FDECB0CD5299FBCFEAE4FDEC35
:100F6000ABCD2092126820921368209214682092D0
:100F700015682092166878DD94C034DB89819091E1
:100F800012688093126889136FDD8DC02BDB898115
:100F9000F091126880931268F8278A819091136803
:100FA000809313688927F82BE0911E6AE530C8F01A
:100FB0008B8190911468809314688927F82BE63010
:100FC00080F08C8190911568809315688927F82BA3
:100FD000E73038F08D8190911668809316688927E4
:100FE000F82BF21141DD5DC0FF27888184FB880F5B
:100FF00080F990911368EFE14DD080931368F2115E
:1010000033DD55C0FF278881909113683AD08093D3
:1010100013688881880F829590911468E1E03AD036
:1010200080931468F21120DD42C0FF278881880F69
:1010300090911468EEE12ED080931468F21114DDC3
:1010400036C0FF278981909114681BD08093146863
:1010500089819091156819D080931568F21104DD8B
:1010600026C0FF278981909115680BD08093156861
:1010700089819091166809D080931668F211F4DC8A
:1010800016C08295880FE0EE05C0869586958695F8
:10109000EFE100C08E23E095E9238E2B9827F92BF2
:1010A000089501D004C0E09112680C94DF12809181
:1010B0001368FCE0E0E081FF04C0E59BE460E59993
:1010C000E8600E945F2184FF08C020922D68209272
:1010D0002E6820922F682092306885FF08C0E0912A
:1010E0001C77E0931E68E0911E77E0931D68809165
:1010F0001468089526D041F46DDA31F482E0CEEF21
:10110000D5E10E94D72188CD0895E881E93008F023
:101110000895F0E0E357F74E099408C008C008C0EE
:1011200007C008950895089508950895089574CD09
:10113000EF58E093116898DCE0911168E130B9F75D
:101140000895F0910C68E0910D68EF2B08958F934E
:10115000ECE0FAE6A0911E6A8A2F8C0FB081A19371
:10116000BA17A081B991BA07B1938C13FACFC09185
:101170001B6A8F910895E2E013C0E3E011C0E4E040
:101180000FC0E5E00DC0E6E00BC0EAE009C0E3E017
:10119000F4E007C0E4E0F7E004C0E6E0F9E001C0F5
:1011A000FE2FAE1718F0FA1708F00895E0912B689B
:1011B000F0912C683196E0932B68F0932C68E091C5
:1011C0002368E395E0932368EF91EF9100C0E0E09E
:1011D0009AC01CD1E3E297C0CEDFEDE194C0CBDF33
:1011E00043D1E1E090C0C9DF59D1E2E08CC0D2DF49
:1011F00055D1E3E088C0C1DF37D1E4E084C0BDDF72
:1012000033D1EFE180C0B7DF2CD1E0E27CC0B3DFA7
:101210002BD1E1E278C0B7DFE5E075C0B0DFE6E0F2
:1012200072C0ABDF21D1E7E06EC0A9DF1DD1E8E0DD
:101230006AC0A1DF33D1E9E066C09DDF2FD1EAE0CB
:1012400062C099DF2BD1EBE05EC097DF27D1ECE0E5
:101250005AC093DF23D1EDE056C08FDF1FD1EEE0FF
:1012600052C08BDF1BD1EFE04EC087DF17D1E0E12A
:101270004AC083DF13D1E1E146C07FDF0FD1E2E155
:1012800042C079DFE091206AE395E211E093206AA1
:10129000E3E13BC070DFE8D0E4E135C078DFE4D0C3
:1012A000E5E131C0A43011F058F41CC0E881E3FD41
:1012B00003C00ADDE6E127C04ADF2EDDE7E123C0F7
:1012C000E881FE2FE370F3FD06C0F2FF09C059DF8D
:1012D00004DDE8E118C061DF3ADF30DDE9E113C089
:1012E000EBE111C0E2E20FC0BFD0EEE10CC04FDF76
:1012F000E091216AE395E211E093216AE23009F47A
:10130000ABDCEAE104C02092206A2092216AE093DB
:101310001D6AE091D069E0931C6A20620895EBE2B7
:10132000F2CFE0911E6AE350EB30F8F4E0931E6ACE
:10133000F0E0E854F64E0995D1F4E0911E6AA6E873
:10134000B3EBAE0FB21DBC91CB0FAE2FAB1BA09376
:101350001E6AC0931B6AD9E6E881E93040F4F0E0E8
:10136000E753F64E0995EAE2CECF20DF30CF31CFFA
:101370001FC01CC01DC02DC019C025C02AC026C05A
:1013800022C016C023C000000002000402060400B0
:10139000060008C007C006C005C006C005C004C0DE
:1013A00003C002C075D008955FD0089518940895C1
:1013B00098940895E8E0F8E621C0ECE0F8E61EC055
:1013C000EEE0F8E61BC0E0E0F8E610C0E4E0F8E686
:1013D00005C0F3DFD1F0EEDFC1F0F2CFA581BD8112
:1013E000AB1799F4A481BC81AB1779F4A381BB81BD
:1013F000AB1759F4A281BA81AB1739F4A181B98135
:10140000AB1719F4A081B881AB170895E091FB6A7E
:10141000E395E33008F0E0E0E093FB6AF0E0EE5E95
:10142000F54E099402C00CC015C0E0911970E5FF9B
:1014300005C0E0910D70EF73E068AAC0E0E0A8C0BD
:10144000E0911970E5FF03C0E0910E70A6C0E09135
:1014500000709EC0E0911870E3FFD8CFE0910000CB
:10146000A1C091D0A4D0D2CF8ED0A5D0CFCFA5D0BF
:10147000CDCFE991DE017AD0E85FE883ED91E98391
:10148000ED91EA83ED91EB83ED91EC839BD0BECFA0
:10149000E0E0F0E0A0E0B0E0AAD0B1C074D0E0910C
:1014A000FC6AE395E93008F0E0E0E093FC6AF0E0E4
:1014B000E35AF54E5BD00995A9CF85C007C008C097
:1014C00009C00AC00BC00CC00DC00EC00FD012C0A6
:1014D0003DD040C043D046C011D014C017D01AC070
:1014E0001DD020C023D026C029D02CC0E091626A34
:1014F000F0E078C0E0912668F7E074C0E091FA6A05
:10150000F8E070C0E0911068F9E06CC0E091AE6A5C
:10151000FAE068C0E091AA6AFBE064C0E091356837
:10152000FCE060C0E0913668FDE05CC0E091F96AE3
:10153000FEE058C0E091F96AFFE054C0E0911768FE
:10154000F0E150C0E0911B68F1E14CC0E0912F68E0
:10155000F8E148C0E0913068F9E144C0E091E86A00
:10156000FAE140C0E091E96AFEE23CC0CEEED9E685
:101570000895A6EEB9E60895A8EEB9E60895A091FB
:10158000E569B9E60895F8DFA093E569089537C0E5
:10159000EDDFF1E0F883E98339C0E8DFF2E0F883BA
:1015A000E98334C0E3DFF3E0F883E9832FC0CFE0C1
:1015B00031C0C0EF2FC0CCE32DC0D8DFE4DF2882DC
:1015C000E9832EC036C0C6EFD9E6E4E0E883AFE198
:1015D000B8E6ED91EC83ED91EB83ED91EA83ED912B
:1015E000E98327C0E983FA83F7E0F8831EC0BEDFF2
:1015F000E883F983AA83BB83E0E1EC831FC0F09109
:10160000FB69FF0F28F1FF0F18F12BC0B2DFE3E0F9
:1016100021D01ACBB4DFE1E01DD0CD93B5CFAFDF41
:10162000E3E018D011DBB0CFAADFE7E013D00ADB8C
:10163000ABCFA2DFFFE315D001DBA6CF9DDFFFE339
:1016400010D0FEDAA1CF95DFFFEF0BD0F5DA9CCFFB
:10165000F0E007C0F091FB6902C0FF1FC8F3E695F8
:10166000E0F3F093FB690895E0E0E093CA6920920B
:10167000FB690895FFFFFFFFFFFFFFFFFFFFFFFF75
:1018000021C049C040C15DC193C1A3C1C7C1D0C1FE
:10181000E0C1E8C1F0C1F8C103C24AC04FC081C0F5
:10182000D3C0E8C005C107C108C109C10AC10BC1C5
:101830000CC10DC10EC10FC110C111C112C113C124
:1018400014C115C1E2E0E093110B332424C0E091F0
:101850002768F09128683196E0932768F09328680C
:101860000AC0E0912968F0912A683196E0932968CE
:10187000F0932A6800C0E0912368E395E093236821
:1018800000C0332403C0E3E03E2E00C0E398E99893
:10189000ED98E1E0F0C1EC990C948F20ED99F1CF37
:1018A0001EF43394E1E0E7C1E32DE43108F4E9CF1D
:1018B0003092D069E39A4BDBEEE0DDC1ED99E1CFE8
:1018C00006F3E39A49DBEE27529BE395F091E16939
:1018D000E093E169FE13EE9AE998EA98EB9820927A
:1018E000D1692092CF69E2EDF9E6CFE02192CA9565
:1018F000E9F7E0912468E395E43650F0E09123683D
:10190000F0912568E0932568EF1BE0932668E0E0FE
:10191000E0932468E091E369E395E093E369E2E111
:10192000AAC1ED9994CFE091D169EF3008F099CF39
:10193000F2EDEF0FF9E6F21D3192E25DE093D1692D
:10194000E091CF69E325E093CF695EF509F089CF97
:10195000E3E0E093110BE0911F68F091206831966D
:10196000E0931F68F0932068E0912168F09122686D
:10197000E21DF21DE0932168F0932268E091C869AE
:10198000F091C969F695E795F695E795F695E7958F
:10199000E21DE001FBEAEF9F1092006A0E01E1E117
:1019A0006AC1E091C869F091C969F695E795F69525
:1019B000E795F695E795E21DE001FBEAEF9F1092AF
:1019C000FE690E01E0E157C1ED9B0EF440CFE091BE
:1019D000C869F091C969F695E795F695E795F6958A
:1019E000E795E21DE001FBEAEF9F1092FF690E010F
:1019F000E2E141C1E2E0E093110B2092C66920923E
:101A0000C769ED9B0EF023CFE091C869F091C969D9
:101A1000F695E795F695E795F695E795E21DE001D1
:101A2000FBEAEF9F1092016A0E0137D1E2E023C179
:101A3000E398E3E11EC0E4E11FC0E5E11AC0E6E17E
:101A40001BC0E7E116C0E8E117C0E9E112C0EAE116
:101A500013C0EBE10EC0ECE10FC0EDE10AC0EEE116
:101A60000BC0EFE106C0E0E207C0E1E202C0EFE038
:101A700003C0330C30F8FFC01EF030FCE8CEFBC0D2
:101A800030FEE5CEF8C0E39AE2E6FDEC0E945C157C
:101A90000EF0F7CEC091FB69D0911970EB99D86028
:101AA000D3FFC070D0911870EB99D260EA99D0FF43
:101AB000CC7FD1FFC370C093FB69529BB399E3CE37
:101AC00000C0E99AD0912A70C0910A0BCD23D09121
:101AD0002970CD0FCF70C093FC69C15BDCE0F001D1
:101AE000CD9FF89400921C0B10921D0B78940F015F
:101AF000E091C869F091C969F695E795F695E79583
:101B0000F695E795E21DE001FBEAEF9F1092026A6D
:101B10000E01E0E0E093110BE091FB69E0FF06C0ED
:101B2000C090E669E89AEDE0E0931301E4E0A3C019
:101B3000F091FB69E091E769F1FDE0934208E8E686
:101B4000F1E0F894E0931C0BF0931D0B7894E5E022
:101B500092C0D0912C70C0910A0BCD23D0912B70E4
:101B6000CD0FCF70C093FD69CE5AD091FC69CD1BCB
:101B7000DCE0F001CD9FF89400921C0B10921D0B3D
:101B800078940F01E091FB69E2FF06C0C090E8691C
:101B9000E89AEDE0E0931301E6E06DC0E0EFF0E0DD
:101BA000F894E0931C0BF0931D0B7894E7E063C06E
:101BB000F091FB69E091E969F3FDE0934208E0EE02
:101BC000F1E0F894E0931C0BF0931D0B7894E8E09F
:101BD00052C0F091FB69E091EA69F4FDE09342089C
:101BE000E9E049C0F091FB69E091EB69F5FDE09314
:101BF0004208EAE040C0F091FB69E091EC69F6FD33
:101C0000E0934208EBE037C0F091FB69E091ED69A9
:101C1000F7FDE0934208E2E0E093110BECE02BC00B
:101C2000E001E091C669F091C769F695E795F695F0
:101C3000E795F695E795E21DFBEAEF9FE12DEC5164
:101C4000F091FD69EF0FE093036A0E01F091FB69DB
:101C5000FC7F71F0EEEFF9E6C191C583C191C583B8
:101C6000C191C583C191C583C191C583C191C5830C
:101C70002092FB6906CEE093CA69AF91BF91CF91E4
:101C8000DF91E1E0E093150BE1E0E0935201EF9189
:101C9000EFBFEF91FF9108950895C2EDD9E6A091AD
:101CA000D16920921D6AE881E85AF0E0F14E09946A
:101CB000FFC014C113C112C111C110C10FC10EC1A7
:101CC0000DC10CC10BC10AC109C108C107C106C1C0
:101CD00005C104C103C102C101C100C1FFC0FEC0F2
:101CE000FDC0FCC0FBC0FAC0F9C0F8C0F7C0F6C028
:101CF000F5C0F4C0F3C0F2C0F1C0F0C0EFC0EEC058
:101D0000EDC0ECC0EBC0EAC0E9C0E8C0E7C0E6C087
:101D1000E5C0E4C0E3C0E2C0E1C0E0C0DFC0DEC0B7
:101D2000DDC0DCC0DBC0DAC0D9C0D8C0D7C0D6C0E7
:101D3000D5C0D4C0D3C0D2C0D1C0D0C0CFC0CEC017
:101D4000CDC0CCC0CBC0CAC0C9C0C8C0C7C0C6C047
:101D5000C5C0C4C0C3C0C2C0C1C0C0C0BFC0BEC077
:101D6000BDC0BCC0BBC0BAC0B9C0B8C0B7C0B6C0A7
:101D7000B5C0B4C0B3C0B2C0B1C0B0C0AFC0AEC0D7
:101D8000ADC0ACC0ABC0AAC0A9C0A8C0A7C0A6C007
:101D9000A0C09FC09EC09DC09CC09BC09AC099C05F
:101DA00098C097C096C095C094C093C092C091C08F
:101DB000A2C0A1C0A0C09FC09EC09DC09CC09BC02F
:101DC0009AC099C098C097C096C095C094C093C05F
:101DD00092C091C090C08FC08EC08DC08CC08BC08F
:101DE0008AC089C088C087C086C085C084C083C0BF
:101DF00082C081C080C07FC07EC07DC07CC07BC0EF
:101E00007AC079C078C077C076C075C074C073C01E
:101E100072C071C070C06FC06EC06DC06CC06BC04E
:101E20006AC069C068C067C066C065C064C063C07E
:101E300063C062C061C060C05FC05EC05DC05CC0A6
:101E40005BC05AC059C058C057C056C055C054C0D6
:101E500053C052C051C050C04FC04EC04DC04CC006
:101E60004BC04AC049C048C047C046C045C044C036
:101E700043C042C041C040C03FC03EC03DC03CC066
:101E80001AC019C018C017C016C015C014C013C09E
:101E900012C011C010C00FC00EC00DC00CC00BC0CE
:101EA0000AC009C008C007C006C00DC009C00EC0E6
:101EB000A150219654C0A0931E6AC0931B6A12CAF7
:101EC000A1502196E7C0A1502196E5C0A1502196CE
:101ED000D9C0E091206AE33008F009CAEA9AE881A3
:101EE000F0910A6AFF77B0910B6AB7FFEF1371C9DF
:101EF000A150219634C0F6C9EA9AE981E330E8811D
:101F000011F4E03C61F0F0910B6AEF1362C9E981D2
:101F1000F0910A6AEF135DC9A250229620C0A25028
:101F20002296EB9A00C0EA98A0931E6AC0931B6A9F
:101F3000E881E295EF70E156F0E0F04E0994D0C9E7
:101F4000CFC9CEC9CDC9CCC9CBC9CAC9C9C9C8C9ED
:101F5000C7C9C6C9C5C9C4C9C3C9A4C99FC9A093B3
:101F60001E6AC0931B6AE881E295EF70E654F0E0C8
:101F7000F04E09940FC024C039C038C030C92FC9F1
:101F80002EC92DC956C955C95CC957C955C054C0B9
:101F900089C984C9E991EF70E053F0E0F04E0994EB
:101FA00070C978C9A1C9A0C99BC99AC999C998C95A
:101FB00097C996C92CC92BC993C992C991C923C97C
:101FC000E991EF70EA51F0E0F04E099489C988C9AF
:101FD00016C915C985C984C983C982C981C980C97F
:101FE0007FC97EC97DC97CC97BC97AC9E991EF7176
:101FF000E450F0E0F04E099473C972C971C970C918
:102000006FC96EC96DC96CC96BC96AC969C968C92C
:1020100067C966C965C964C963C962C961C960C95C
:102020005FC95EC95DC95CC95BC95AC959C958C98C
:10203000DEC8E1C855C9D7C8E991EF71EE5DF0E09F
:10204000FF4D0994F2C8E7C8E9C84AC949C948C957
:1020500047C946C945C944C943C942C941C940C91C
:102060003FC93EC93DC93CC93BC93AC939C938C94C
:1020700037C936C9F2C8F5C8F8C8FBC8FEC8D1C808
:10208000E4C8E7C8A0931E6AC0931B6AE881E21106
:1020900027C9A2C825C9A0931E6AC0931B6AE991EB
:1020A000E03F08F41DC9EF70E85AF0E0FF4D0994D5
:1020B00036C916C915C914C913C912C911C931C9FC
:1020C0000FC90EC90DC90CC90BC90AC909C908C96C
:1020D00034D02AD007D00E94C415E093246AF0932C
:1020E000256A089582E0F0910C68E0910D68EF0197
:1020F000CD2B71F481E0E0910070EF77F0E0C091BA
:102100001970C5FF05C0F0910D70E0910E70F06C74
:10211000E0930A6AF0930B6ACEEFD5E148C1F894D8
:102120000E94D2210C940C166ED0B0E029D0B39549
:10213000A091226ABA17D1F70895E091FF15E03017
:10214000A9F0EF3F09F02ED15ED0B0E0A8950FD0F6
:1021500020F4CE2FD4E18A2F28D1B395A091226A02
:10216000BA17A9F7CFEFD5E180E021D108952FD09C
:10217000339609942CD03196099429D0329609943B
:1021800026D030960994A0E020C0EA81A9811BC026
:10219000EA81F4E1A081F0E7A08315C0EA81F0E7CD
:1021A000A08111C0EA81F0E7DDD00DC0E981FA819C
:1021B000A08109C0E981FA81A08305C00F92C8956A
:1021C000A02D0F9000C00894089588940895CB2FF7
:1021D000D091226ACD1778F4D0E0CC0FDD1FCC0F60
:1021E000DD1FF091236ADF0FE881E43149F0F0E070
:1021F000E953F94D0895C0E0D0EDE7ECF6E208951B
:10220000E981FA810895A0E0B0E0B03059F4A0303F
:1022100019F0A13021F006C0A6E7BEEC05C0A5E686
:10222000B0ED02C0A0E0BEECA093226AB093236A96
:10223000089503C007C009C010C0A0910014A09366
:102240000070C1CFA0910070BECFAA2329F022F068
:10225000E0E0F0E787D0B7CF96CFE0E0A3E0B3CFE0
:1022600092CF02C003C08FCFADE0ADCFA83011F444
:10227000EC9AA9CF88CF03C007C009C00FC0A091B6
:102280002F14A0932F709FCFA0912F709CCFEA2F77
:102290000E94B012EFE2F0E765D095CFEFE2A0E048
:1022A00092CF71CF06C06FCF6ECF6DCF05C06BCF11
:1022B0006ACFE1E0F1E982CFE0E0F1E97FCF809100
:1022C0003B70E0FF80E0F0FD8093396880913C70C6
:1022D000E1FF80E0F1FD80933B6880913D70E2FF7B
:1022E00080E0F2FD80933D6880913E70E3FF80E0E6
:1022F000F3FD80933F6880913F70E4FF80E0F4FD40
:10230000809341680C945526E9E3F8E6A4E9B1ED21
:10231000DAE081919081891721F010F09F5F01C070
:1023200091509193CD91C2119883AA3991F7089554
:102330002092266A2092276A089504D0FE2FE0E2B8
:10234000EF1B0895E091276AF091266AEF1B08F4CD
:10235000E1950895E091276AF091266A8894EF1339
:1023600008940895C091276AC85DD0E0D549B99313
:10237000E993F993A993C852C03208F0CC27C093CF
:10238000276A0895C091266AC85DD0E0D549B99101
:10239000E991F991A991C852C03208F0CC27C093B5
:1023A000266A089590E3889408C092E102C093E100
:1023B00000C0A881A817A9F00894A0910210A1FD5F
:1023C000FCCFA0FDFACFADE9A4BF9093001008F4B4
:1023D0008993A4BFA1E0A0930010A0910210A1FDD9
:1023E000FCCF089519C0C0911E77E0911D68CE1BE7
:1023F000C158E8EDFAE60E941315B093696AC091DE
:102400001C77E0911E68CE1BC158EEEDFAE60E94E3
:102410001315B0936A6A08950F9803D008D00F9AE5
:102420000895E0E0E093646AE093656A0895A0E0AF
:10243000A093666AA093676A089592E0E091646A47
:10244000F091656AFE13E3959A95E1F7E093646A6B
:10245000089592E0F3DFE091646AF5E79091656A90
:102460009E1729F090819993E3958A95B9F7E093A7
:10247000646A0895C0EFD4EC1EC0C4E4D5EC1BC060
:10248000C6EFD4EC18C0CCEFD4EC15C0C8E0D5EC46
:1024900012C0C2E0D5EC0FC0CEE0D5EC0CC0C4E158
:1024A000D5EC09C0CAE1D5EC06C0C0E2D5EC03C04A
:1024B000C6E2D5EC00C09991899103D09A95E1F7D5
:1024C0000895E091676AF091666AFA95EF1739F01E
:1024D000F6E78193E093676AE0EAE09325080895C0
:1024E000F0912408F5FFFCCF00C0809322080895E6
:1024F00005AA003F012005AA0007010005AA003E29
:10250000010005AA003D010005AA003D010C04AA36
:102510000120080004AA011A060004AA01340200DE
:1025200004AA0155160004AA01006B0006AA004186
:102530000221040006AA00410224000006AA00416C
:102540000224060006AA00410221020006AA004158
:102550000224030006AA00410221010006AA00414C
:102560000221070006AA0041022405000895D3EBCA
:1025700048C249D2FCD147D2E0910210E1FDFACF26
:10258000E9DEC0F7FFDEC081CA17B1F3A083F4E132
:10259000CDE9D3E1C4BFD0930010A083D1E0C4BF84
:1025A000D0930010D1E0D0930410D0930310E2CF69
:1025B00084E190E00E94EB240E9493250E94BF25B5
:1025C000F7CFE8EDFAE6C0E8D4E70E940615EEED95
:1025D000FAE6C0E9D4E70E94061580ED97E00E9474
:1025E000EB2425DF1EDF82E390E00E94EB2448DF2E
:1025F00082E390E00E94EB2440DF82E390E00E94BF
:10260000EB2441DF82E390E00E94EB243FDF82E392
:1026100090E00E94EB2405DF0ADF03DF49DF84E658
:1026200090E00E94EB24C0E0D7E78FE712DF98D15B
:10263000DADEF3CFE8D19BD1E6D10E94F316FBCFCF
:1026400000003DD2F0910C68E0910D68EF2BA9F0ED
:102650002CD282E390E00E94EB242CD288EC90E014
:102660000E94EB2422D282E390E00E94EB2422D24B
:1026700088EE93E00E94EB24E4CF17D282E390E04F
:102680000E94EB2417D282EE94E00E94EB24D9CF73
:102690000E9484210C941B140E94E6160C949E1434
:1026A000FBECE4E1DAE6CBE682E10E94EC1414D024
:1026B00037D03FD047D04FD057D05FD067D06FD002
:1026C00011272227D9E0C9E9C093A76AD093A86A45
:1026D000089578940C947323EBE6FAE6E093A46AE9
:1026E000F093A56A08950E94B7222092AB6A2092C7
:1026F000AC6A2092AD6A1D7FE091AB6AF091AC6A42
:10270000C091AD6A3196C21D11FDEFCF2223D1F3E6
:10271000E093AB6AF093AC6AC093AD6A28D1ECCF7A
:10272000E7E9F3E2E0933F69F0933E6908950C9482
:10273000B922E0EAF3E2E0935F69F0935E690895FD
:102740000C94D822E9EAF3E2E0936169F0936069BE
:102750000895A2E92DC0E2EBF3E2E0936369F09300
:1027600062690895A3E924C0EBEBF3E2E093836987
:10277000F093826908950C94E122E4ECF3E2E09393
:10278000A369F093A26908950C941A23EDECF3E287
:10279000E093A569F093A4690895A6E909C0E6ED60
:1027A000F3E2E093C569F093C46908950C94202383
:1027B0000C94F61510FD77C0F093B66AFFB7F0934E
:1027C000B56A1160E093B76AD093B86AC093B96AEA
:1027D000B093BA6AA093BB6A9093BC6A8093BD6AB7
:1027E0001092BE6A0092BF6AC091A96AC395C09355
:1027F000A96A09F41860CF7009F41460C0FD14C010
:102800001061C091A76AD091A86AC15015F41062F6
:10281000C97F10F41064C979D04010F41068D970E1
:10282000C093A76AD093A86A17FD4DD06ED014FD4F
:102830000E94482313FD0E944C2314FF1BC0DAE6BC
:10284000C1E8A1E0E881F981319788F071F42A2B81
:10285000E883F983EA81FB81FE2B49F0FB8101804B
:10286000A0950A22A095018202C0E883F9832496EC
:10287000AA0F41F70090BF6A1090BE6A8091BD6AAE
:102880009091BC6AA091BB6AB091BA6AC091B96AD2
:10289000D091B86AE091B76A1270F091B56AFFBF43
:1028A000F091B66A0895F894E1E0F1E00E944326C1
:1028B000FFEF3197F1F7E0E0F1E00E944326F0E40A
:1028C0003197F1F7F0CFE091AC6AF091AD6AEE0F7D
:1028D000FF1FEBE8FE9F000C111CE4E6E119E093FA
:1028E000AA6A1260C091AF6AD091B06AC093B16A0F
:1028F000D093B26AD695C795D695C795C093AE6A60
:102900002092B06A2092AF6A0895E091A96AEF70B0
:10291000E093A66AEE0FF0E0E057FB4D09940895AE
:102920000C948F240C948F240C948F240C948F245B
:102930000C948F240C948F240C948F240C948F244B
:102940000C948F240C948F240C948F240C948F243B
:102950000C948F240C948F240C948F240C948F242B
:10296000F091A16AFF0F11F02F1708F40895E0917C
:10297000AF6AF091B06A3196E093AF6AF093B06AB3
:10298000C091A46AD091A56AEDB7FEB7E993F88328
:10299000E0E2F22FC0E8FF0F30F019F0C695E450E6
:1029A000D1F7CC27EE27C093A16AE093A36AE695FE
:1029B000E093A26ADAE6CBE6CE0FD21DC093A46AFA
:1029C000D093A56AE991F881CFB7F894EDBFFEBF27
:1029D000CFBF08959927CDE7DAE6B091A36ACB0F70
:1029E000D21DBFB7F89488839983D091A16AD095FE
:1029F0002D23BFBFBCCF07D0BACF03D0B8CFD09163
:102A0000A16A2D2B0895D091A16AD0952D23089508
:102A1000208221820895689401C0E894D091A16A2F
:102A2000BFB7F894C081CC2321F0CE7FC083BFBF55
:102A30000895C181CD2BC183BFBF0EF0DCCFCBCFBA
:102A4000BFB7F894C191D081DD2321F4C160C29356
:102A5000BFBF089520822292BFBF0DC0BFB7F894B8
:102A6000D081D260D193D081DD2311F4BFBF08950E
:102A70002082BFBF00C0EDE7FAE6CD2F3496CC0F21
:102A800041F0E0F7F8942192219221922192BFBF68
:102A9000F6CFB7CF20820895BFB7F894A081AE7F5C
:102AA000A083BFBF0895F8DFB8CFE1E0F1E00E9456
:102AB00043260895E0E0F1E00E9443260895CDEF1B
:102AC000DAE6E0E0FBEC0C2E9FEFA191B191BF3F65
:102AD00081F011968FEF83951D901120E1F3821103
:102AE00083958993981788F38211982F82110C2E61
:102AF000ECCF9093B36A0894C009C093B46A089568
:102B00000069206940696069626964698469A469CF
:102B1000A669FFFF1F693D695D695F696169816938
:102B2000A169A369C369B69904C0E5E5119B0C943A
:102B3000F61507C0442455240895AD980895AD9A1C
:102B40000895E0910408E7FF0895E0910008E093FC
:102B50000071089502D08CE23BC001D003C08F9376
:102B6000829501C08F938F70805D8A3308F0895FF2
:102B70002FD08F9108958AE02BD08DE029C00F01CE
:102B8000451451F0F0910408F5FF06C0F2E7E52D79
:102B9000F081F09302085394F0010895451459F020
:102BA000F0910408F5FFFACFF2E7E52DF081F093FC
:102BB00002085394F3CF0895C42DD2E7019000206A
:102BC00029F00882C395C511F9CFCA954C2ED8CFEC
:102BD0000F01F201FA95EF1719F0F2E780834394A1
:102BE000CFCF8F938E2FF201FA95EF1719F0F2E7FE
:102BF000808343948F9108958991ACDF9A95E1F792
:102C000008958991821188130895E2DFFACFC2E214
:102C1000DCECF7DF80911C68A0DFC2E3DCECF1DFC5
:102C2000BDCF0A0D1B5B34346D2E2E2E5B424C44FF
:102C30002D005D1B5B6D0A0D0000C2E4DCECE1DFE2
:102C4000ADCF0A0D1B5B34336D2E2E2E5B555044D9
:102C50005D1B5B6D0A0D0000CAE6DCECD2DFC0E054
:102C6000D8E690E1C9DF87DF99CF0A0D1B5B3432CC
:102C70006D2E2E2E5B4150505D1B5B6D202D200074
:102C8000E2E0F2E000C0EF23F0950090E46A0F224A
:102C9000E02904C0E0E002C0EFEF00C0E093E46A86
:102CA00000C0E091E46A0C94CA15EF23F0950090FF
:102CB000E56A0F22E02906C0E0E004C0E5E502C0B5
:102CC000EFEF00C0E093E56A00C0E091E56A0C9484
:102CD000C815310B0000010007310080596A00015E
:102CE00000404031008000000002310B0000010074
:102CF00007310081596A0001004040310081000025
:102D00000002310B0000010700310080596A000108
:102D100000404031008000000002310B000001073C
:102D200000310081596A00010040403100810000FB
:102D3000000231030000011110310080F06A00012F
:102D4000004040310080000000023103000001100B
:102D500011310080F26A0001004040310080000023
:102D60000002110B0000011240110080486A0001AE
:102D70000112401100835B6A000101424011008191
:102D8000F46A000100404011008000000002FBC90D
:102D9000FAC9F9C9F8C9F7C9F8C9F5C9F4C9F8C930
:102DA000FDC900CAF2C9EFC901CAEDC9ECC9EBC936
:102DB000FDC900CAE8C9E7C9E6C9E5C9E4C9FFFF1A
:102E00001419217F080101FF080402FF080403FFD1
:102E1000088004FF084005FF04150000143021005D
:102E2000040206FF080007FF081008FF0404000062
:102E30000800090008000A0008010BFF08010CFF48
:102E400008C30DFF08E80EFF08000FFF080010FF81
:102E50000800110008001200080013000800140008
:102E60000000000000000000080017FF089618117D
:102E7000080A1911101A7000040000FF04FF00FF77
:102E800008011BFF08021CFF08041DFF08081EFFA5
:102E900008101FFF082020FF084021FF088022FFA4
:102EA000080023FF080024FF080025FF080026FF74
:102EB000080027FF080028FF0804290F08002A0F30
:102EC00008042B0F08002C0F000000000000000079
:102ED000143B21FF080B30FF081E313F0803320F5F
:102EE00008D433FF08C834FF086435FF086436FF90
:102EF000088037FF088038FF000000000000000055
:102F000008FF3BFF08FF3CFF08FF3DFF08FF3EFFB7
:102F100008FF3FFF08FF40FF000000000000000026
:102F200000000000000000000000000000000000A1
:102F30000000000000000000000000000000000091
:102F40000000000000000000000000000000000081
:102F50000000000000000000000000000000000071
:102F60000000000000000000000000000000000061
:102F70000000000000000000000000000000000051
:102F80000C0068000C0168000C0268000C0368006B
:102F90000C0468000C0568000C0668000C0768004B
:102FA000080041FF080042FF04010000040900007E
:102FB0000C01A1000C0091000C0191000C0091008B
:102FC0000C1180000C108000145121FF145521FFBA
:102FD0000CFF15000CFE1500FFFFFFFFFFFFFFFFBA
:1030000004090000040100000000000000000000AE
:103010000C0368000C0268000C0168000C006800DA
:103020000C0768000C0668000C0568000C046800BA
:103030000C0877000C0977000C0A77000C0B77005E
:103040000C0C77000C0D77000C0E77000C0F77003E
:103050000C1077000C1177000C1277000C1377001E
:103060000C1477000C1577000C1677000C177700FE
:103070000C1877000C1977000C1A77000C1B7700DE
:103080000C1C77000C1D77000C1E77000C1F7700BE
:103090000C2077000C2177000C2277000C2377009E
:1030A0000C2477000C2577000C2677000C2777007E
:1030B0000C2877000C2977000C2A77000C2B77005E
:1030C0000C2C77000C2D77000C2E77000C2F77003E
:1030D0000C3077000C3177000C3277000C3377001E
:1030E0000C3477000C3577000C3677000C397700FC
:1030F0000C3A77000C1A77000C1B77000C696A00F9
:103100000C6A6A00000000000000000000000000DF
:103110000000000000000000000000000C2D68000E
:103120000C2E68000C2F68000C3068000C3568000D
:103130000C3668000C1F68000C2068000C21680029
:103140000C2268000C2768000C2868000C29680015
:103150000C2A68000C2B68000C2C68000C046A0018
:103160000C056A000C066A000C076A000C086A006D
:103170000C096A000CD069000CE169000CE26900DE
:103180000CF76A000CF86A000CF96A000C1C680065
:1031900004550000292A2C2B0000FFFFFFFFFFFF32
:00000001FF
; 
; *** EOF 
