:020000020000FC
:100000000C9448000C944C020C944C020C94E201A9
:10001000010050D1000000001775DE674095A43B39
:10002000FEC100C202C204C2F3C0E9C0F1C5F2C5FC
:1000300004C201C209C2B7C3BCC341C444C4CDC3D6
:10004000D7C3DEC371C44AC458C4C1C3B6C3BAC39C
:10005000EAC418C20CC211C25AC35FC36AC36BC3DD
:1000600073C37FC396C39AC3A5C408C10FC19CC400
:10007000CFC3D9C3B5C3F5C4FEC410C5E1C6E4C639
:10008000E6C6E8C6EDC6FBC60BC7C6C1C3C0F3C013
:10009000F8942224E7E2F9E6EDBFFEBFE8EDF7E0D1
:1000A000E4BFF0930001A895E8EDF4E2E4BFF0931B
:1000B0006800E0914000E0934000EFBBE8EDE4BF52
:1000C000209201102BBE0F98079AE8E0E0935104AC
:1000D000E0935004E8EDF0E6E4BFF0931001E09106
:1000E0004101E211FCCF2092480120924901E1E058
:1000F000E0934001E0E1E093E205EFE0E093E40506
:10010000E8E0E093B504E093B604E0931104E093D3
:100110001004E0E0F8E02682A0ECB0E0A087B18710
:10012000A0E8A583A3E0A783A2ECA683A6980198E4
:10013000AD9A089AA59A009AF89BFB9967D05DD072
:10014000029A639A619A629A649A439A659A069AA5
:10015000039A0F98079AF89B06C0E0E0F0E6AFEF2D
:10016000A193F836E8F3E0ECF8E6FB99E0E4FB99BC
:10017000F8E6F899E0E0F899F8E62192F038E8F32B
:10018000E0914801F0914901F230D0F3E2E037D03C
:100190003BD0B69B0FC0BAD2C2E037D5E0910090F9
:1001A000EF3F11F0DFD419F07DD4DCD409F487C11E
:1001B000E1E068C160D0E0E0FAE0208221822282A2
:1001C0002382AFE0A083E0E0FBE020822182AEE664
:1001D000B1E0A487B587A1E0A583A5E0A083E0D224
:1001E000E5D2789406D010D0C2E606D5E0E00FD272
:1001F0006BC0E0E004C0EFEF02C0E1E000C0E0FD52
:100200000A98E0FF0A9A0895E0E002C0EFE000C01B
:10021000FFE000C0F0FF04C0E0FD6B98E0FF6B9AC8
:10022000F1FF04C0E1FD6998E1FF699AF2FF04C0A3
:10023000E2FD6A98E2FF6A9AF3FF04C0E3FD6C985E
:10024000E3FF6C9AF4FF04C0E4FD4B9AE4FF4B9883
:10025000F5FF04C0E5FD6D9AE5FF6D98F6FF04C05B
:10026000E6FD0E9AE6FF0E98F7FF04C0E7FD0B9A35
:10027000E7FF0B980895E0E0F0EFCCCFF894E8EDBD
:10028000F1E0E0933400F0934100FFCFF894A8959B
:10029000E8EDE4BFE1E0E0930001FFCFCDD316D35A
:1002A0009681C1D30C92BED3CCC3C6D3BBD39781A6
:1002B000BAD30CD309901C9001100C92119601979F
:1002C000C9F7B0D3BED30895E7E2F9E6EDBFFEBFAC
:1002D000222734E0EAE29BD1C091006996D43CD158
:1002E000203491F324FD10C026FFF9CFE8E8F3E0B5
:1002F000059000160590159019F4F0010995E4CFCA
:10030000E43CB1F720FFEBCF003449F7622F637074
:10031000613029F720620DD17A3B21F46531A1F6D5
:100320002061DDCF24FFD0CF7B3B39F4693060F60C
:10033000C62F6BD4246031E0D2CF7C3B21F422FF66
:10034000C3CF98D1CCCF7F3B51F6603011F40AD0A7
:10035000BBCF613009F40AD0B7CF68E08BC1C02FA2
:100360004BD4B2CF87D3E0EE52D1AECF9BD3EEEEDB
:100370004ED1AACF0053E1E00A9512F0EE0FFCCF68
:10038000FEB3FE27FEBB089530BA0131BA0132BA7E
:100390000133BA0134BA0135BA0136BA0137BA01AC
:1003A000535502523C0264AD0161AF0162AF01637B
:1003B000AF0165AF0166AF0173AF0175AF016CAFFF
:1003C00001006401EFB64F01E0910408E7FF13C09C
:1003D000E72DE619E03C23FF08F0AD9AE091010813
:1003E000E2FD82C0F0E7E72D7090000871927E2E4A
:1003F000F401EFBE1895E091060BE093060B76141E
:1004000011F442104A943A9422F4332EE4E0E0933B
:100410000704F401EFBE1895E0E0F0E00895EDE088
:10042000F0E00895E0E5F1ED0895E1E0F0E00895F1
:10043000E0E5F1ED089503D0EDC301D0E9C3AFE0ED
:10044000B0E0C0E1D1E10895F8DFA193B193C19389
:10045000D193F1DFA193B193C193D1930895DFEFCD
:10046000672C94D06710FBCF2197D9F7089517D048
:1004700048F00895EBE001C0EAE0CADE20924801AE
:1004800020924901A895F894AD98F0E208D0E8F7D9
:10049000BFDEF0E404D0E8F7ACDEB6DEEFCE0090CD
:1004A000480100904901F0150895C0910069ADD34D
:1004B00059D3C9F4CF3511F0CB35A9F4D0DF209250
:1004C00005082092000A2092000B2092050B209232
:1004D00048012092490193D1FE01E050F048F69581
:1004E000E795F8940994FBCEF89420920608AD980D
:1004F000E8E085DEE5E58CDEEFEFA89500C000C002
:1005000000C0E211EA95119BF8CFE211F5CFC4CFFC
:100510008E2F99277DDEE8E072DEE6EA78D0F09152
:100520000100E2E0F2FDEAE06ADE32E0672C2ED064
:10053000F6CF04D0702F02D0602F089507D0029517
:100540000F9304D00F900029F00E089505D00F7D71
:10055000075308F4095D089519D0421002C025FD23
:10056000B3CE7614C9F3F0E7E62D008163942064DE
:1005700042102F7B26FD2F7EFBE04F2E21FF23957F
:100580000A3011F00D3009F42C7F00C00F01A8953E
:1005900023FD06C0E72DE619E03218F4AD9801C03E
:1005A000AD9AF0010895019101D003C00F93029517
:1005B00001C00F930F70005D0A3308F0095F1BD074
:1005C0000F910895092FF0DF082FEECF0AE013D026
:1005D0000DE011C0E0E0F1E1E6DFE5DFE4DF0EE28F
:1005E0000AD029DFCE01EEDFCD01ECDF26DFCE0120
:1005F000E9DFCD01E7CFD8E1C9DF0090040805FEAF
:10060000FBCF2197B699C1F7009302080895E093B4
:100610000169FDE0E091016905910DBBE09301697D
:10062000002391F012F0E7DFF4CFE9990ED0EA99B8
:1006300011D0EB991AD0EC99CDDFEE9913D0ED994A
:10064000B4D2E899C3DFE5CF0895C591E09301697D
:10065000DCD292C200900069109031690AE2101059
:100660000895C9CF09E0C7DF89C2EC9BABCFEC98F6
:100670000EB39ACF6CBBE099BCD2E19907D0E39955
:100680009CD2E6991CCFE799F5CE089517D1B7D043
:10069000C0930269D09303695FDF20FFFDCF0A3367
:1006A000D9F74CDF502EF02E44DFC0910269D09173
:1006B0000369C60FD71F42DF003031F00130F1F07F
:1006C000023069F0E4E024CFFDD008945208A0F095
:1006D0002AD1E5E0C8F032DF802F0ED1F6CF29DF36
:1006E000660F771F660F771F660F771F660F771FDE
:1006F000609302697093036903D0CECF5AD100C0D2
:100700001DDFF21411F0E6E003CF0895BBD0CBE873
:10071000D3E049D04EC0A8950895C487D5870895E1
:10072000C93008F0C9E0DCE0CD9FE001C451D547F5
:100730000895F6DFADC0C083D183C48BD58BCA0FBB
:10074000DB1FC283D3830895A68FA895C28FD38F52
:10075000D5D020F0C28DD38D2197B9F70895AA275F
:10076000BB27C48FD58FEC8FFD8FA895A28FB38F39
:10077000C48DD58DFE01B2D048F0C48DD58DFE015B
:10078000BCD020F0A28DB38D119779F708958FEF2B
:1007900079D0868FA895B2D0E8F70CC1FADF76CD74
:1007A00071D0C6E2D5E0C68BD78B08956BD0CFE26F
:1007B000D5E0C08FD18F089565D081D00ED018D0EC
:1007C00027C260D07CD009D013D024C25BD0F5DF23
:1007D00002841384C015D1050895C489D58908956C
:1007E000C489D58900801180C019D10908954AD0E3
:1007F000A281B38104881588A019B109089542D057
:10080000C081D18108953ED0C281D38108953AD06C
:1008100000801180C281D381C019D10909F02196CD
:100820000024021C08957CDFFE0100801180C2813B
:10083000D381F2CF0C2EC8EFDAE81884101419F027
:100840002C96C835D1F70895DCE0CD9FE001C45166
:10085000D5470895CE01C8EFDAE8088019808015E1
:10086000910530F00A801B808015910531F028F049
:100870002C96C83591F70894089588940895A0E0BF
:10088000B1E70895E8E2F9E60895FCDFA487B587AB
:100890008CE0099001928A95E1F73C97C481D5815B
:1008A0002197C095D095C28BD38BC081D181C6874B
:1008B000D787C08BD18B278E02D07EC0E3DFC0816B
:1008C000D18101C0DFDFC48BD58B089584819581F0
:1008D000A685B785C485D5850895D4DF25D038F0A1
:1008E000C489D58950D020F08991C48BD58B0895C7
:1008F00021968FEF0894F9CFC5DF868F15D090F041
:1009000053D0C481D5812197A489B589CA23DB231B
:100910001196A48BB58BA485B585CA0FDB1F868D78
:10092000888388940895AEDF0488108001140588B8
:100930001180010440F0048812800114058813809E
:10094000010419F010F008940895889408959ADF2E
:10095000C489D589A685B785CA17DB0730F0A08979
:10096000B189CA17DB0719F010F00894089588942C
:10097000089588DFC685D78506D0A78DAE7F08F499
:10098000A160A78F0895C034B0E1DB0748F0D631ED
:1009900048F0D03628F0D03828F0D03908F002C01E
:1009A0000894089588940895D3DF10F403D004D0F8
:1009B000089568DF2BD026C0C489D58902881388A2
:1009C000C021D121C687D78784819581C80FD91FBF
:1009D0002197C08BD18BCEDF40F0A685B785C4852B
:1009E000D5850D9009920197E1F70895078C00FCD9
:1009F00007C06CDF09901D90011419F40197D1F71D
:100A000018940895F3DF09F050CC0895078C00FC8A
:100A100008955CDF09901D90102001103FCC0197D4
:100A2000C9F7089590E0809102108370E1F78DE995
:100A300084BF90930010089506880F9207880F9244
:100A40000895008C0F92018C0F9208952860AD9A42
:100A5000FF93F4E69BDDFA95E9F7FF910895277F70
:100A600095CDC2E066DE80E180930110B0DE209279
:100A70000110089507DFEF01DFDF2DD069F09BE063
:100A8000D2DFE895CFDF92E0CEDF00801180E895DD
:100A90003296F03AD1F7C6DFFE01D3CFC2E049DE8D
:100AA00002D0F4CBEFDEFF93EF93C6DFDADF81F401
:100AB00012D071F094919F3F59F09BE0B4DF008217
:100AC000B1DF92E0B0DF04900192F03AE1F7AADFE3
:100AD000EF91FF91B6CFE0E0F0E994918191891711
:100AE00011F4F03AD1F7E0E0F0E908950000FFFFDB
:100AF000010000002D00000000A0FFFF000208021E
:100B000066015FD10090FF9F0002080262025BD184
:100B10000014FF150100181265035ED180109F10AC
:100B20002000080263045CD100111F1101000000C5
:100B300073050000501058100100000075060000F9
:100B40000060FF670002000061075AD140104F109B
:100B5000010000006C0800000011001101000000FD
:100B60002D09000033DEA0930469B0930569C0939A
:100B70000669D09307690895F5DF06C0E0E1E093C8
:100B80000110F0DF20920110E0ED09F4E6ED0ED047
:100B9000909107698091066915DD909105698091B2
:100BA000046910DD02C0E0ED01C0ECEDFDE005914F
:100BB000002311F020DDFBCF089508DD7FDEF3DF99
:100BC00061DE8489958900E1080F090FF02EE2E9C2
:100BD0001EDD83DE38F0082FF00EE6DC53DE0489DC
:100BE0000F70B9F7E0DFF1940F2DDEDC9CDE40F7EB
:100BF000089564DECCDDDDCE05D00091316900932F
:100C00000069089517DE3BDE40CE1EDE38DE3DCEA5
:100C1000E89404C06894CA0FDB1F00C0EF93FF93F1
:100C20006FEF7FEFCB01FF27A8950EF019900EF420
:100C30001A9008941794062E0F1E9695879577950F
:100C4000679500FE08C0EDEE9E27E8EB8E27E3E8EF
:100C50007E27E0E26E27169471F7119728F790959A
:100C60008095709560950E01DB01EC01862387234A
:100C700089238095FF91EF910895FFFFFFFFFFFF0C
:100D0000A1811B5B34316D2E2E2E5B524553455411
:100D10002D885DA11B5B34346D2E2E2E5B524F4D02
:100D20002E4D4F422E4431355D00A1814944205B58
:100D3000905D814C3A208708523A201B5B33326D1C
:100D40004431355230303031A1533A208705553A7D
:100D500020870681413A208707423A20C702433A5A
:100D6000208704453A208703463A20870181524F65
:100D70004D205B987C527C537C645D202D205B6110
:100D80007C627C637C657C667C6C7C737C755D3E80
:100D90002000813A31301B5B39346DA81B5B393040
:100DA0006D3030A0000081811B5B34356D2E2E2EFE
:100DB0005B4572726F722023885DA0202D203C62FB
:100DC0007265616B3E20746F20726573756D65008E
:100DD0001B5B39306D001B5B33326D001B5B6D009C
:100DE000A1811B5B34346D5B532D3E5D0000A181FE
:100DF0001B5B34346D5B3C2D525D0000FFFFFFFF39
:100E0000ACAAA9A5A3A69C9A999593968E8D8BB111
:100E1000B2B4B874726C6A696563665C5A595553AA
:100E2000564E4D4B4771E8E4E2D1C9C5D8D4D2CA79
:100E3000C6CC78171B1D1E2E363A272B2D3539337D
:100E40001ED00ED01CD00CC00BD019D009C017D0AA
:100E500007D015C005D0E991EF73E081ED930895B7
:100E6000E991EF70F881FF0FEE1FFF0FEE1FFEE814
:100E7000E081ED93E991EF73E081ED930895FEE851
:100E8000E881E695E695E081ED93E991E370E295DE
:100E9000F881F07FF295EF2BFEE8E081ED93089565
:100EA000FEE8E881E081ED930895FFFFFFFFFFFF7B
:100F0000005EBCE2613FDD83C29C7E20A3FD1F41E9
:100F10009DC3217FFCA2401E5F01E3BD3E6082DCD9
:100F2000237D9FC1421CFEA0E1BF5D0380DE3C62C9
:100F3000BEE0025CDF81633D7C22C09E1D43A1FFB9
:100F40004618FAA427799BC584DA3866E5BB5907A9
:100F5000DB856739BAE406581947A5FB7826C49A99
:100F6000653BD987045AB8E6A7F91B45C6987A2489
:100F7000F8A6441A99C7257B3A6486D85B05E7B979
:100F80008CD2306EEDB3510F4E10F2AC2F7193CD69
:100F9000114FADF3702ECC92D38D6F31B2EC0E5059
:100FA000AFF1134DCE90722C6D33D18F0C52B0EE49
:100FB000326C8ED0530DEFB1F0AE4C1291CF2D7339
:100FC000CA947628ABF517490856B4EA6937D58B29
:100FD0005709EBB536688AD495CB2977F4AA481619
:100FE000E9B7550B88D6346A2B7597C94A14F6A809
:100FF000742AC896154BA9F7B6E80A54D7896B35F9
:1010000087C0FFCFFFC7FFCFFFC7FFCFFFC7FFCF0F
:10101000FFC7FFCFFFC7FFCFFFC7FFCFFFC7FFCF80
:10102000FFC7FFCFFFC7FFCFFFC7FFCFFFC7FFCF70
:10103000FFC7FFCFFFC7FFCFFFC7FFCFFFC7FFCF60
:10104000FFC7FFCFFFC7FFCFFFC7FFCFFFC7FFCF50
:10105000FFC7FFCFFFC7FFCFFFC7FFCFFFC7FFCF40
:10106000FFC7FFCFFFC7FFCFFFC7FFCFFFC7FFCF30
:10107000FFC7FFCFFFC7FFCFFFC7FFCFFFC7FFCF20
:10108000FFC7FFCFFFC7FFCFFFC7FFCFFFC7FFCF10
:10109000FFC7FFCFFFC7FFCFFFC7FFCFFFC7FFCF00
:1010A000FFC7FFCFFFC7FFCFFFC7FFCFFFC7FFCFF0
:1010B000FFC7FFCFFFC7FFCFFFC7FFCFFFC7FFCFE0
:1010C000FFC7FFCFFFC7FFCFFFC7FFCFFFC7FFCFD0
:1010D000FFC7FFCFFFC7FFCFFFC7FFCFFFC7FFCFC0
:1010E000FFC7FFCFFFC7FFCFFFC7FFCFFFC7FFCFB0
:1010F000FFC7FFCFFFC7FFCFFFC7FFCFFFC7FFCFA0
:1011000001005BD1010000001775DE676492947ED8
:10111000A895F8942224E8EDE4BF20921001E8EDB0
:10112000F1E0E4BFF0936200EFE1F9E6EDBFFEBF4E
:10113000E0E0F9E6C0E0DAE021922197E9F792D405
:1011400009F095D4A1D409F0A4D4EFB3E0930268D8
:10115000E0910468E395F999E0930468E0910368ED
:10116000E395FB99E0930368E0910068F0910168D2
:101170003196E0930068F09301686FD44F98479AD6
:10118000AC9AA49AE0E4F8E02682A0E8B1E0A08757
:10119000B1872582A3E0A783A0E4A683A9E0A0935A
:1011A000000A2092200A2092210AA1E0A093000BBD
:1011B0002092010BAFEFA0930C0BA0930D0B20928C
:1011C00052042092B3044298A39887D4A9D4A8D4F7
:1011D0002ED4A6D4E0917F68E21175C0E0915068EA
:1011E000E2111AC370C00C9410000C9411000C94FE
:1011F00012000C9413000C9414000C9415000C9421
:1012000016000C9417000C9418000C9419000C9400
:101210001A000C941B000C941C000C941D000C94E0
:101220001E000C941F000C9420000C9421000C94C0
:1012300022000C9423000C9424000C9425000C94A0
:1012400026000C9427000C9428000C9429000C9480
:101250002A000C942B000C942C000C942D000C9460
:101260002E000C942F000C9430000C9431000C9440
:1012700032000C9433000C9434000C9435000C9420
:1012800036000C9437000C9438000C9439000C9400
:101290003A000C943B000C943C000C943D000C94E0
:1012A0003E000C943F000C9440000C9441000C94C0
:1012B00042000C9443000C9444000C9445000C94A0
:1012C00046000C944700C0E4D8E68DDFF993E9931B
:1012D0008CDFF993E99397DFE4E4F8E6D193C193C7
:1012E000B193A193A0914768AF77A1602092506914
:1012F000A093516924D3A0910091B0910191B8833A
:10130000A983A09100A1B09101A1BA83AB832C82E3
:101310001CD3288229822A822B822C8219D3E0E0D6
:10132000F1E9A081B181B883A9839BB781E08BBF2C
:10133000A081B1819BBFBA83AB832C82E8EEF3E03E
:10134000E0932369F09324690091FE154427E0910E
:101350004468E093256921E0B5C180E5E1D390912F
:10136000366980E0FA81943081F08B81953069F0A4
:1013700031FD91C18D81983009F091C1EA81E093EE
:101380002068EB81E0932168FC81F0932268209231
:1013900023692092246973D123E09AC20CD284E499
:1013A000BFD38E8180934A688F8180934B688885F4
:1013B000809348688985809349688A8560D127E051
:1013C0008BC2FED180E7ACD327E092C2F9D181E491
:1013D000A7D3909136699D3080E090E011F09B8515
:1013E0008C8590934E6880934F68888580934C6875
:1013F000898580934D688A8582FD14D2837080939D
:10140000506828E082D2809150688211FED15AC182
:1014100090913669953011F0983011F4EA8116C038
:10142000973011F09A3019F4D0D1EC810FC0993077
:1014300011F09C3019F4BFD1EE8108C09B3011F03F
:101440009E3019F4BDD1E88501C029C1EC3080F48B
:10145000F0E0E45DF54F0994E3C0E3C0E4C0E4C00C
:10146000E3C0E2C0E5C0E5C0EBC0F1C0F9C0FEC01A
:1014700029C1ABD182E454D38C818093A46B38858D
:101480004985823011F430FD1DC128E1E19A30FD1B
:1014900040D230FF41D2C7E0E4E8FBE6E0DEC09195
:1014A000A46BF0D1DCDEE8D08E819F81E4D1EDEE3B
:1014B000DE2EE8EBCE2EE3E8BE2EE0E2AE2EEFEF1E
:1014C0009E2E8E2E7E2E6E2EC3D1FCC07ED183E446
:1014D00027D30C8009140D8008040E8007040F80A8
:1014E000060428E211F428E4B3D1E0C16ED182E50C
:1014F00017D328E7B8D1E1C168D184E511D328E535
:10150000DCC163D185E40CD328E03E7F4427CEC103
:101510005CD186E405D3B6D190913669963019F046
:101520008C8130FDA4DE30FDA6DECCC030FDB1C024
:1015300090913669933009F405C0953011F445D186
:1015400001C0ADC082E7ECD29DD173DE80934869C3
:1015500011D06FDE809349690DD06BDE80934A69AC
:1015600009D067DE80934B6905D092959095909352
:101570004C69FBC1991F90FD08950894879585D10A
:101580008695E9F7089530FF84C0909136699330CD
:1015900009F422C0953011F418D11EC09B3011F40B
:1015A000229606C09D3019F410D1249601C077C050
:1015B00087E7B6D278E069910894679566D1669519
:1015C000E9F77A95C1F7A8E0B0E02897E4E8FBE6F0
:1015D00048DEA8E0B0E01BC0CFD081F478F0A0E0F6
:1015E000B2E760E8C9D011F4E8F748F08FB74DD101
:1015F0008FBF6795B8F76D93A13898F363C0A0507B
:10160000B247C0E0D2E7E4E8FBE62BDE00C0C4E866
:10161000DBE638D130FD29DE30FD33DE53C052C069
:1016200060C15ED12CCE5DC15BD1EFD002E04AC07B
:101630005CC19E3009F046C057D124D12EDE42C095
:101640009E3009F03FC050D11DD125DE3BC048D1AE
:10165000C1E0FDD1CF3519F4D13D09F4D2D40FCE7C
:101660003FD1C1E00FD1FBDD8FEF03CE39D1C3E015
:1016700009D1F5DD8FEFFDCDC6E2D9E60895909151
:101680000A0B982392111EC0089584E40CC082E5D1
:101690000AC08DE408C083E406C085E404C08CE47D
:1016A00002C084E500C03CD20DC0C0912369D09136
:1016B0002469219738F0C0932369D093246911F4E9
:1016C000B1D0B3CFEFE1F9E6EDBFFEBF29D228D20A
:1016D000B0D02CBA6AE050D01130A1F76A95D9F792
:1016E0004BD081F7E8F3913808F43094C5DF7727C1
:1016F000EE2761E041D0A9F6661FE0F769937627EF
:10170000C63368F639D069F620F0E627FFE8E081B5
:10171000F0CF7211C2CFE09337693D7FE2113260A2
:10172000C652C0933669A8DFE881ED3F69F000FD3D
:101730007CCFF981EF2BEA81EF2B29F4E091366918
:10174000E33009F472CFB1CF6981603F08F4BACFBA
:101750006F70E2EBF9E9660F660FE60FF21D01907C
:10176000022209F496CF019000FE02C031FD93CF12
:1017700001901080F0010994A89511270AB0032464
:1017800002FEFCCF9091200A2092200A2092210A8A
:101790000AB0032402FCFCCF8091200A2092200A88
:1017A0002092210A8D31111F813810FD8F30111FB9
:1017B000012E06940895E0E4F8E684E01DD00CC004
:1017C000E4E4F8E686E018D007C00FD029F00AD08C
:1017D00019F005D009F00CD0821174CF0895EAE415
:1017E000F8E609C0E8E4F8E606C0ECE4F8E603C071
:1017F000EEE4F8E600C082E0DE01129601901D9052
:10180000011411F48A95D1F70895C1E020D1CF35A4
:1018100011F4D13D09F0089583D1E09105A1E0FDD7
:1018200001D0EEC3E8EDE0933400E5E8E093011069
:101830000895F0E44211F0E1E0914801E09149019E
:10184000EF23E21103C000C048D15BC14AD15FC1A0
:1018500017D00E0111DF6A8A7B8A8C8A9D8A0F8AD3
:10186000188E298E089508DF6A887B888C889D8869
:101870008F89988D00C006D0D8DCC80FD91FCFCC77
:1018800001D005CDE4E6FBE6089530F09694879408
:101890007794679430F009C096948794779467940E
:1018A00020F09D248C247B246A24089554D09882AF
:1018B00089827A826B822C8259C0E2DFDE018091BC
:1018C000A46B49D088832982BA83AB832C824EC013
:1018D000E0E4F8E692E045C0E4E4F8E690E041C0D8
:1018E000E19A33D024D042C0E19A32D020D03EC019
:1018F00029D03CC0E19A32D0ED01ECE3E883E983E2
:10190000EA83EB83EC83ED8334C0E19A18D00FD0E7
:101910002DC0C2EFD9E92AC0C091A46BB6DCDE01AC
:101920001AD00882B983AA832B822C821FC0E0912F
:101930000110E470FC81FB7FFE2BFC830895C5E55C
:10194000D9E60895C0E5D9E60895CAE5D9E608952F
:10195000CFE5D9E60895C8E4D9E60895A0E4B9E64C
:101960000895F9DF84E05AD09883F5DFF7DF9BDC38
:1019700000C097E712D09DEA10D0F0DF86E090918A
:10198000440895FFFCCF9D91909342088A95B9F742
:101990008AE2C6D0E19B96CE08950090200A0916EF
:1019A000E0F32092200A2092210A529BB3996FCE35
:1019B00008950100AD090201CE090401E109040105
:1019C000E60900000F0B00000F0B00000F0BFF01DA
:1019D000080A0801390A7001660A2001760A4001E6
:1019E0007C0A1001810A1001880A1000960A100072
:1019F000C30A02003214FFFFF89439D0F89449D09A
:101A00000C943D09F89429D03AD00C943D090E94D9
:101A1000710DF894A895FFCF0C943F09019009929D
:101A20008A95E1F7089529928A95E9F70895E4E8FF
:101A3000FBE60E942B09C4E6D9E60E942D09E4E6E4
:101A4000FBE60E942B09C4E6D9E60C942D09E4E8D4
:101A5000FBE60E942F090C941F09C0E0D8E6AAE11A
:101A6000B0E01FC0C0E0D8E6AEE1B0E027C0C0E003
:101A7000D8E680E4D8DFEFEFE0931F680895C0E474
:101A8000D8E6AAE3B0E00DC0C0E4D8E6AEE3B0E02B
:101A900015C0C0E4D8E680E8C6DFEFEFE0937F68CA
:101AA00008950E94FF08F001A095B095C095D095CB
:101AB000A083B183C283D383248208950E94FF0848
:101AC000F00180830895E2E0F2E000C0EF23F0959A
:101AD000009020690F22E02906C0E0E004C0EFEF8B
:101AE00002C0E1E000C0E093206900C0E0912069FD
:101AF0000C94FD08EF23F095009021690F22E02956
:101B000008C0E0E006C0E5E504C0EFEF02C0EFE08A
:101B100000C0E093216900C0E09121690C94FB08AA
:101B20000895FFFFFFFFFFFFFFFFFFFFFFFFFFFF26
:102000004DC1089581E084C082E082C083E080C039
:10201000E8D0EBC085E07CC086E07AC087E078C07D
:1020200088E076C089E074C08AE072C08BE070C03E
:1020300071C000008DC000008EE06AC08FE068C0F3
:1020400080E166C081E164C082E162C083E160C07A
:1020500084E15EC085E15CC086E15AC087E158C07A
:10206000C6C0000089E154C08AE152C08BE150C073
:102070008CE14EC08DE14CC08EE14AC0F1C0000041
:10208000FAC0000081E244C082E242C0E3C0000026
:1020900084E23EC085E23CC086E23AC087E238C0B6
:1020A00088E236C089E234C08AE232C08BE230C0B6
:1020B0008CE22EC08DE22CC08EE22AC08FE228C0B6
:1020C00080E326C081E324C082E322C083E320C0F2
:1020D00084E31EC085E31CC086E31AC087E318C0F2
:1020E00088E316C089E314C08AE312C08BE310C0F2
:1020F0008CE30EC08DE30CC08EE30AC08FE308C0F2
:1021000001005FD1020100001775DE671A3E9A4791
:1021100013D2FFCF0FB73F014001E091AD6AE395C5
:10212000EF3008F0EE27E093AD6AF0E0E756FF4E9F
:10213000099466C271C27AC2AAC275C37AC37FC348
:1021400084C389C38EC393C398C39DC3A2C3A9C3C9
:10215000E89B06C0E89820921301C09242081895A7
:102160000091160B0093160BFF93EF93EFB7EF93CD
:10217000DF93CF93BF93AF93E0911C0BF0911D0BB6
:10218000A091E469B091E569E093E469F093E569B1
:10219000EA1BE093E669FB0BF093E7696894B2E011
:1021A000E037FB0708F4ED9AB3E0EC30FB0730F0C2
:1021B000E894B4E0E833FB0708F4ED9AF091140BCF
:1021C000E0E1A091FF69EE9BFE27EE98E3E0A2110B
:1021D000E5E0E0934102F093140BE091E869F2E24C
:1021E000099401E00093530118950C94062C3F01CB
:1021F000E091996AF0919A6A00911006019300911A
:1022000011060083E0919B6AF0919C6A0191009312
:102210000C060191009308060191009309060191B3
:102220000093000601910093010601910093A00024
:1022300001910093996A019100939A6A0191009328
:102240000B06019100930A06E0939B6AF0939C6A47
:10225000F30118950FB72092031021600FBF189556
:102260003F0100912008E091B36AF6E70193E09303
:10227000B36AF30118953F01E091B46AF091B56A31
:10228000EF1304C0E0E8E093250806C0F7E70191EA
:1022900000932208E093B46AF3011895A895F89486
:1022A00022242DBAE8EDE0933400E5E8E093011034
:1022B000EFE1F9E6EDBFFEBFE0E0F9E6C8EADCE0F9
:1022C00021922197E9F720920508A2E4A093120237
:1022D000ABE4A0931402A3E0A0934102A8E0A09372
:1022E0005704A4E0A0937704A0937004A093B204D1
:1022F0000D98059A0C98049A4F9A47984F98479AC8
:102300004798A2986F9A689A67986098A0E8A093F7
:102310007304A0937104A0937204A0937404A3E0C7
:10232000A093E605A1E0A093030AA1E0A093000A10
:10233000E0E0FBE02082218222862386A0EEBEE23E
:102340002486B587A1E0A683A1E0A583A3E0A083AE
:10235000E0E1FBE02082A2E0A183A1E4A483A1E06C
:10236000A683A583A3E0A083A3E0A0932002A5E019
:10237000A0932102E1E0E093C001E3E4E093C9010E
:10238000EEEEE093CB01E1E0E093C801A0E1A09381
:102390001102E0E8FBE0A2E0A0934902A0934A0208
:1023A000A4E0A08BA18BA1E8A087A187E0E8FBE0D7
:1023B000B8EDA0E0A183A0E0A283A3E3B093340032
:1023C000A28BAFEFA2A723A6A6A727A6A0A7A1A787
:1023D000A4A7A5A7A685A0FFFDCFC0910614A1E0E4
:1023E000C13009F4A3E0C23009F4A9E0B09334008D
:1023F000A083A0915101A0FDFCCFA9E1A0935001C1
:10240000A1E0A0935301A0935201E0E0F6E0A1E126
:10241000A083A0E0A183ABE0A283A0E0A383A0E01F
:10242000A483A2E0A0930506A0E0A087A7E0A1876F
:10243000A5E8A093A200A4E0A0937604A1E4A09351
:10244000A006AFEF2092A206A093A3060F98079ACA
:10245000A8E0A0935004A0935104A0935704E0E295
:10246000F8E02682A5E8B6E0A087B187A0E0A583C2
:10247000A3E0A783A2ECA68347984F9A479A489A6D
:10248000409A0E94D02DE8EDE4BFE9E0E09300011E
:102490000E94FC1D0E945E210E94C52D0E94C52D38
:1024A0000E94F4270E9456287BD083D4C2D60E9473
:1024B000961A0E94D72A0E947C2B0E94132A0E94FF
:1024C0007C240E94C52DE1E0E093506874D3EFEFC7
:1024D000E093060BE093160BE0935301E093041096
:1024E0000C94952B0895E0E003C0E0E101C0EFEF0C
:1024F000E4990BC0E095E093A80B2092A90BEFEFB5
:10250000E093AC0BE093AD0B0AC0E095E093AC0B0D
:102510002092AD0BEFEFE093A80BE093A90BEFEF48
:10252000E093AA0B2092AB0BE093AE0B2092AF0B83
:10253000E1E0E093840B089500240A94E0E8FBE0D6
:1025400000A601A604A605A6EACF0024E0E8FBE069
:1025500000A601A604A605A6E2CFE0912F70E1FF38
:1025600003C000C0E0E001C0E1E8E093880BE09325
:10257000890B0895E1E0F2E02092A80B2092A90BCC
:102580002092AC0BE093AD0B2092AA0BE093AB0B27
:102590002092AE0BF093AF0BE1E0E093840B089533
:1025A0004F9A479A0E94AD122CBAE0E005D0EEE7B0
:1025B000FBE6C0EAD5E7BBC2FE2FFF7729F0EA951C
:1025C000FA9511F4E29A01C0E298E093A26A0895A4
:1025D000E091A06AEE230895E0910870E0939A6874
:1025E0000895E091A26AE078E7CFE59903C0E59A03
:1025F000ECE002C0E598EDE0E093AD6A089508953F
:102600002092AD6A99DFE0910770F0E3EF9FE0EC74
:10261000F3E0E00DF11D61C1E1E0E093AD6AE19905
:102620006798E19B6098E0ECF3E057C1E2E0E0934B
:10263000AD6A67986098E39927C0E091AE6AF4E7C5
:102640000090AF6A1090B06AF0810F1A1208F091F2
:102650009E6A0F0E121C0092AF6A1092B06A0F2E83
:10266000F4E70192E093AE6A20920506E19904C076
:10267000E19AE6EEFBED03C0E198E6E1FCED0090A7
:10268000726A02FE7896CFD2E0ECF3E026C1E091C8
:10269000A76AF091A86AF7FF05C0F095E195FF4F92
:1026A000F7FDFFE7EE0FFF1F0F01E0912E70E770BF
:1026B000E45AF0E0FC4E099407C009C00CC011C0F8
:1026C00014C01AC020C029C0F001889431C0F001A4
:1026D000EE0FF21D2DC0F00116940794E00DF11DD0
:1026E00027C0F001E00DF11D23C0F001E00DF11D48
:1026F000F8F0E00DF11D1CC0F001EE0FFF1FC0F05F
:10270000EE0FFF1F15C0F001EE0FFF1F88F0EE0F58
:10271000FF1F70F0E00DF11D0BC0F001EE0FFF1F69
:1027200038F00F01EE0FFF1F18F0E00DF11D00C093
:1027300008F4FFEFF0939F6AE0912D70E095E69525
:102740000E2E0694E00D0694E00DE05FEF9FF00181
:10275000EE0FFF1F08F4FFEFFF2321F4E0919F6AC3
:10276000E211F1E0E0919E6AF0939E6AFE0FF79508
:10277000E091A06AEE2321F0FE1779F050F114C029
:1027800020929E6A20929F6AEFEFE093AD6A2092BA
:102790009D6AA9DEE0ECF3E0A0C0E0919D6A0090A4
:1027A000327002FCE69529C0E0919B68E211EA953F
:1027B000E0939B68E0919D6AE211EA95E0939D6A3F
:1027C0000090327000FCE69501FCE69502FCE6956F
:1027D00014C0529902C0B39B07C0E0919B68E03FD0
:1027E00008F4E395E0939B68E0919D6AE93008F472
:1027F000E395E0939D6A01C0E0E0679A609AED5F1F
:10280000F0E0FB4E09943FC038C031C02AC023C05D
:102810001CC015C00EC007C000C0E3E0E093AD6A65
:1028200048D0E0EA49C0E4E0E093AD6A42D0EAEA89
:1028300043C0E5E0E093AD6A3CD0E4EB3DC0E6E0A8
:10284000E093AD6A36D0EEEB37C0E7E0E093AD6AD7
:1028500030D0E8EC31C0E8E0E093AD6A2AD0E2ED98
:102860002BC0E9E0E093AD6A24D0ECED25C0EAE0AE
:10287000E093AD6A1ED0E6EE1FC0EBE0E093AD6AD8
:1028800018D0E0EF19C0EFEFE093AD6A12D0EAEF95
:1028900013C0EFEFE093AD6AEFEF2CDEEFEFFFEF49
:1028A00019C0EFEFE093AD6AEFEF2FDEEFEFFFEF30
:1028B00011C0E0919B681CCEF091A06A009030702E
:1028C00000FEF69501FEF69502FEF695EF0F08F470
:1028D000EFEFFCE0EF9FF00100C0E0930C0BF093F2
:1028E0000D0BE1E0E093060B0401F3010FBF189517
:1028F000E6E000902F7000FEE6950090726A02FEFE
:10290000E695E6700090F76A0E2202103BC0E09B4D
:1029100090913770E09990913870E091A06AEE2321
:1029200089F1E0919F6AE99F0894001C111C80E0E6
:10293000881F90912F7092FD000C92FD111C92FD4A
:10294000881FE0E9F8E6A081B181C281D381E09BD4
:1029500005C0A019B109C80BD20904C0A00DB11D52
:10296000C81FD21DA083B183C283D383A481B58144
:10297000C681D781A00DB11DC81FD21DA483B58308
:10298000C683D783C091A36AD091726AE091A16A8D
:10299000F091A26ACF019827E89497FD689497FD7B
:1029A000F078CF018F779F77E299CC27891721F4B0
:1029B0009030A9F0891789F040F0D5FDC0E0C150F2
:1029C000B0F5C0910370EA950BC0D4FDC0E0C150D2
:1029D00070F5C0910270E39503C0CC2701C0EF2FC2
:1029E000E7FFE09AE7FDE098E093A16AEF77E093D4
:1029F000A06A09F0E2E00EF4E061E09BE160F09192
:102A0000FF69F0FDE460E09BF095F0FFE860FFE116
:102A10000E943C26F0E0E0FDF160E3FDF260E4FDA1
:102A2000F860F093966BE099E49AE09BE498C09389
:102A3000A36A0895E0E9F8E60580A681B781000C55
:102A4000AA1FBB1F000CAA1FBB1F000CAA1FBB1F85
:102A500002101196A087B1872482258226822782C0
:102A6000B695A795B0913970AB9FD001CFEFAA0F63
:102A7000BB1F30F0AA0FB21D18F0ACEEAB9FC12DFA
:102A8000EEE7FBE663D0B0939C68E0919A68E211B0
:102A9000EA95E0939A68E211EE13A3DD0895F894A5
:102AA00082D0F89492D00C94B316F89472D083D05C
:102AB0000C94B3160E94D42DF894A895FFCF0C94D3
:102AC000B516E770F0E0E253F545E08108950102A4
:102AD000040810204080019009928A95E1F708953A
:102AE00001901990011411F48A95D1F70895299253
:102AF0008A95E9F70895E0E0FFE80990E025E08194
:102B00008A95D9F7EE230895799FE001689FD00157
:102B1000699FB00DC11DD21D789FB00DC11DD21D82
:102B2000089580E406C080E204C080E102C088E02D
:102B300000C0C083D1838283238224822582D7CFA1
:102B400011D00BC00FD007C00DD003C00BD0AA0FFF
:102B5000BB1FAA0FBB1FAA0FBB1FAA0FBB1FAA0F29
:102B6000BB1F0895B381A081AB0FB181B21DDC9171
:102B7000CC93A481B581AD1BB209AC0FB21DA48367
:102B8000B583C281D381D395DC1708F0DD27D383C9
:102B90000895C0E0D8E6AAE1B0E01FC0C0E0D8E6E2
:102BA000AEE1B0E027C0C0E0D8E680E4A0DFEFEF00
:102BB000E0931F680895C0E4D8E6AAE3B0E00DC032
:102BC000C0E4D8E6AEE3B0E015C0C0E4D8E680E8E3
:102BD0008EDFEFEFE0937F6808950E947516F00195
:102BE000A095B095C095D095A083B183C283D383BF
:102BF000248208950E947516F00180830895E09163
:102C0000996AF0919A6AEF2B0895CF93C091996ACF
:102C1000C21106C0C0919A6AC21102C0CF9103C00E
:102C2000CF9188940895CF93C2E0C0930A06C1E083
:102C3000C0930D06C191C0930006C191C0930206D6
:102C4000C191C0930306C191C0930406C191C09382
:102C50000C06C191C0930806C191C0930906C191A9
:102C6000C0930006C191C0930106C191C093A0001A
:102C7000C191C093996AC191C0939A6AC191C0935E
:102C80000B06C191C0930A06E0939B6AF0939C6A7D
:102C9000CF91089408957695679576956795769582
:102CA0006795769567958091061190910711861B1F
:102CB000970B609104117091051126DFC695B795A9
:102CC000C695B795C695B795C695B7957C2F6B2FCA
:102CD00008950C9410000C9411000C9412000C94A4
:102CE00013000C9414000C9415000C9416000C9412
:102CF00017000C9418000C9419000C941A000C94F2
:102D00001B000C941C000C941D000C941E000C94D1
:102D10001F000C9420000C9421000C9422000C94B1
:102D200023000C9424000C9425000C9426000C9491
:102D300027000C9428000C9429000C942A000C9471
:102D40002B000C942C000C942D000C942E000C9451
:102D50002F000C9430000C9431000C9432000C9431
:102D600033000C9434000C9435000C9436000C9411
:102D700037000C9438000C9439000C943A000C94F1
:102D80003B000C943C000C943D000C943E000C94D1
:102D90003F000C9440000C9441000C9442000C94B1
:102DA00043000C9444000C9445000C9446000C9491
:102DB0004700E2E7FBE6C0E0D5E7B5DEE6E6FBE686
:102DC000C0E2D5E7B0DEECE6FBE6C0E4D5E7ABDE7B
:102DD000E8E7FBE6C0E6D5E7A6CE0895F894E091D3
:102DE000446A2092446A7894E03009F40895ED3200
:102DF00008F078CBC091426AD9E6ED5FF0E0F84E7A
:102E000009950C9431176ECBEAC014C119C16ACB75
:102E100069CB68CB67CB66CB3FC153C16FC17DC166
:102E200090C1A3C1B6C1C9C1DCC1EFC1B6C05ACB04
:102E300059CB58CB57CB56CB55CB54CB53CB52CB8E
:102E400051CB50CBBAC04ECB4DCB4CCB4BCBB4C0FF
:102E500006C205C204C203C202C200C21CC200C232
:102E60000895A895F8946091A26B7091A36B7894E3
:102E700012DFEB01CF5DD040E2E7FBE663DEB0930B
:102E8000956B6894E091FF69E0FDE894D0919E6BAA
:102E9000C0919F6BC7FF05C0C095D195CF4FC7FDAF
:102EA000CFE7DD0FCC1FE6E6FBE64CDE16F0B09375
:102EB000A56B16F4B093A66BD091A06BC091A16BDB
:102EC000C7FF05C0C095D195CF4FC7FDCFE7DD0F38
:102ED000CC1FECE6FBE636DE16F4B093A56B16F0DD
:102EE000B093A66BA091A56BAB0FA795A093026AB8
:102EF000A25308F4A0E0A093976BA091A56BB091AA
:102F0000A66BAB1BA058A093A76BC091A96AD091E8
:102F1000AA6ACC0FDD1F08F4DFEFCD2FE8E7FBE650
:102F200011DEB093A86BE0916A6AF0916C6AEF17BA
:102F300008F4EF2FE0936D6AF0916D6AE5EBEF9F77
:102F4000E12DE0936E6A80911A70A0913470B09177
:102F5000A86BBA1708F08160A0913570B091956B9D
:102F6000BA1708F08460A0913670B091976BBA17C9
:102F700008F088600E94522609F082600E9456265E
:102F800080931A700895529B05C0E6E4FCED3DCE97
:102F90005299FBCFEEE5FCED38CE20925168E2E588
:102FA000F8E621922192219221922192219221925E
:102FB0002192219200DE3DC10895E091456AE330FF
:102FC00019F099818A8103C090E089818F77EFB7EA
:102FD000F89480932E6A90932F6AEFBF0895FCDADD
:102FE000E881E4FBEE0FE0F9E6FBEF71E43010F46A
:102FF000E6950DC0E450F0E08091197084FDE35C2B
:1030000084FDFF4884FFE85E84FFFF44E081E7F928
:103010009FD1EF13D0DD0FC103070C1015191E222D
:10302000272B3034393D42464B4F54585D61666A18
:103030006F73787ED1DAE9818BD1EF13BCDDFBC0F1
:10304000CBDAE98185D1FE27F0E08A819091526840
:10305000809352688927F82BE091456AE530C8F0E3
:103060008B8190915368809353688927F82BE630C1
:1030700080F08C8190915468809354688927F82B54
:10308000E73038F08D819091556880935568892795
:10309000F82BF21190DDCDC0FF27E091306A8091CE
:1030A000316A8695EE1FE095EF71888184FB880F69
:1030B00080F99091526845D180935268F2117BDD7E
:1030C000BEC0FF27E091306AEE0FE095E07E888178
:1030D0009091526836D1809352688881880F82958A
:1030E00090915368E091306AEE0FEE1FE095E17029
:1030F00028D180935368F2115EDDA1C0FF2788813B
:10310000880F90915368E091316AE095EE7119D182
:1031100080935368F2114FDD92C0FF27E091316A2E
:10312000E5FD089589819091536802D18093536899
:1031300089819091546800D180935468F2113BDDED
:103140007EC0FF27E091316AE5FD08958981909165
:103150005468EED080935468898190915568ECD082
:1031600080935568F21127DD6AC0FF27E091316A2C
:10317000E6FD0895898190915568DAD0809355686D
:10318000898190915668D8D080935668F21113DDEA
:1031900056C0FF27E091316AE6FD0895898190913C
:1031A0005668C6D080935668898190915768C4D07C
:1031B00080935768F211FFDC42C0FF27E091316A2B
:1031C000E6FD0895898190915768B2D08093576841
:1031D000898190915868B0D080935868F211EBDCE7
:1031E0002EC0FF27E091316AE6FD08958981909114
:1031F00058689ED0809358688981909159689CD076
:1032000080935968F211D7DC1AC0FF27E091316A28
:10321000E6FD08958981909159688AD08093596814
:10322000898190915A6888D080935A68F211C3DCE2
:1032300006C001D004C0E09151680C94DC1280916A
:10324000526884FF08C02092906820929168209272
:10325000926820929368809153680895ACCC089549
:10326000B7D9C1F430D031F482E0CEEFD5E10E947D
:10327000372817CC8091456A853038F02196E0E2F6
:10328000F8E683E02DDC31F00CCCF981E091226886
:10329000FE1307CC0895E881E93008F00895F0E0C6
:1032A000ED5AF64E099408C008C008C008C0089539
:1032B00008950895089508950895F1CBF0CBE1E0C5
:1032C000E093506878CCF0914C68E0914D68EF2B1A
:1032D0000895E23060F100900570109001700118BF
:1032E000039400928E68009004701090057001188D
:1032F000039400928F68FE2FE03408F0FFE3009003
:103300008E680F9E000C111CF0910170F695F10D66
:10331000E03438F0EF5300908F680E9E000C111CC3
:10332000F10DEF2FE7FDEFE7E23008F4E2E008955A
:103330008295880FE0EE05C0869586958695EFE12B
:1033400000C08E23E095E9238E2B9827F92B089552
:10335000FE2F8091326A82110895F0910F70F078FB
:10336000EC99EF2780911970F0E880FDEF278091AC
:103370002268F091FF69F07887FDEF27E7FBEF7790
:10338000A8DFE7F9F0915168E09351680895A881AA
:10339000A3700E946E29B981CF93DF930E941B29ED
:1033A000DF91CF91689409F4E89478F5F881EA8187
:1033B000FC7039F0F43031F0FC3041F0E4FF1BC018
:1033C0000CC023C016F1AE17F9F01FC0AE2F0E943B
:1033D0001F29D9F4D0F4216017C0E3FB0E946115C6
:1033E000E095AE23E0950EF4AE2B0E941F2969F400
:1033F00060F4216009C04EF0E3FB63DBAE230EF006
:10340000EE27EA2709F001C0F0C80895A881A3704B
:103410000E946E29B9810E941B2911F4EA2FD8C29B
:10342000CCC2AA81B9810E946F29E881E370E09340
:10343000996BBB810E941B2999F7A0939A6BB39556
:103440000E941B2969F7A0939B6BB3950E941B29CF
:1034500039F7A0939C6BB3950E941B2909F7A093A1
:103460009D6BC9E9DBE6B6C2A8C281F40E94F927C8
:10347000E53060F0A881A3700E946E29B981AA810D
:103480000E941F2921F42160EA2FA2C29EC295C288
:10349000B9F50E94F927E13198F1B981AA810E941A
:1034A0006F29E9E9FBE6A881A370A083AC81A18321
:1034B000BD81B283BE81B383BF81B483BB810E94CF
:1034C0001F29F9F4A0939A6BB395A0919B6B0E946E
:1034D0001F29B9F4A0939B6BB395A0919C6B0E949C
:1034E0001F2979F4A0939C6BB395A0919D6B0E94CA
:1034F0001F2939F4A0939D6B2160C9E9DBE66AC2FC
:1035000064C25BC20E94062878F0A0E00E946E2987
:10351000BCE10E941B2949F4E881E0FBA5F90E9467
:103520001F2919F421606BC250C247C2E0EFE0933B
:10353000496A0E946916E0934A6A0E947916D093FC
:103540004B6AC0934C6AB0934D6AA0934E6AC5E52E
:10355000DAE6E0E8E88385E00E947B15E883CFE4C3
:10356000DAE6E0EDE883E0E0E983E0E0EA832B825D
:103570002C8285E00E947B15E88322D000C0F7E012
:10358000E0910A0BEF230DC0E0915F6AF091606A51
:10359000EA953AF4FF0FF760FF77E0910A0BEF230B
:1035A00000C0E0935F6AF093606A0895F0914C6800
:1035B000E0914D68EF2B0895E0915E6AEE23089547
:1035C00020925E6A0895F0915D6AE0935D6AFE1B49
:1035D00008F4F195F53008F0F3CF0895CF93DF9319
:1035E000E9E4FAE6A991AF70B191BF70AB1731F47D
:1035F000A991B191AB1711F4EF34D1F7DF91CF91CD
:1036000008958F93E3E3FAE6A091456A8A2F8C0F21
:10361000B081A193BA17A081B991BA07B1938C1365
:10362000FACFC091426A8F910895E2E013C0E3E0BF
:1036300011C0E4E00FC0E5E00DC0E6E00BC0EAE039
:1036400009C0E3E0F4E007C0E4E0F7E004C0E6E02E
:10365000F9E001C0FE2FAE1718F0FA1708F0089530
:10366000E0918C68F0918D683196E0938C68F093CE
:103670008D68E0918468E395E0938468EF91EF9121
:1036800000C0E0E09EC065D1E3E29BC0CEDFEDE18B
:1036900098C0CBDFB4D1E1E094C0C9DFB0D1E4E29F
:1036A00090C0C5DFACD1E2E08CC0CEDFA8D1E3E0B2
:1036B00088C0BDDF87D1E4E084C0C3DF80D1EFE103
:1036C00080C0B3DF7CD1E0E27CC0AFDF7BD1E1E240
:1036D00078C0B3DFE5E075C0ACDFE6E072C0A7DF1D
:1036E00071D1E7E06EC0A5DF6DD1E8E06AC09DDF73
:1036F00086D1E9E066C099DF82D1EAE062C095DF59
:103700007ED1EBE05EC093DF7AD1ECE05AC08FDF70
:1037100076D1EDE056C08BDF72D1EEE052C087DF8C
:103720006ED1EFE04EC083DF6AD1E0E14AC07FDFB7
:1037300066D1E1E146C07BDF62D1E2E142C075DFE4
:10374000E091476AE395E211E093476AE3E13BC009
:103750006CDF38D1E4E135C074DF34D1E5E131C04C
:10376000A43011F058F41CC0E881E3FD03C04EDE24
:10377000E6E127C046DF79DEE7E123C0E881FE2FDE
:10378000E370F3FD06C0F2FF09C055DF4ADEE8E151
:1037900018C05DDF36DF7CDEE9E113C0EBE111C06C
:1037A000E2E20FC00FD1EEE10CC04BDFE091486ABE
:1037B000E395E211E093486AE23009F4E8DDEAE1DA
:1037C00004C02092476A2092486AE093446AE091DC
:1037D000EE69E093436A206208952DDFEA81F3DE0B
:1037E000E5DE39F4E9DE29F4CFDE19F4BCD1E5E2F7
:1037F000E8CF47CF20DFEA81E6DED8DE31F4DCDE39
:1038000021F4C2DE11F4E6E2DCCF3BCF14DFEA8123
:10381000DADE37CF10DFEA81D6DEC8DE31F4CCDE67
:1038200021F4ADDEA0D1E8E2CCCF2BCF2197D6DEBC
:1038300009F029CFE1E0E0935E6A9DD1E9E2C1CFD2
:10384000FEDE2197CBDE09F01ECFFE81EF81F06C0A
:10385000F0932D6AE0932C6AE1E0E0935E6A87D1F1
:10386000EAE2AFCFECE2ADCFE091456AE350EB3056
:10387000F8F4E093456AF0E0E55AF34E0995D1F487
:10388000E091456AACECB8EBAE0FB21DBC91CB0F2A
:10389000AE2FAB1BA093456AC093426AD9E6E8817C
:1038A000E93040F4F0E0E459F34E0995EBE289CFBA
:1038B000D7DEE7CEE8CE1FC01CC01DC02DC019C08A
:1038C00025C02AC026C022C016C023C000000002A6
:1038D000000402060400060008C007C006C005C0B8
:1038E00006C005C004C003C002C083D008956AD0DA
:1038F00008951894089598940895E8E4F8E621C08E
:10390000ECE4F8E61EC0EEE4F8E61BC0E0E4F8E6FE
:1039100010C0E4E4F8E605C0F3DFD1F0EEDFC1F05B
:10392000F2CFA581BD81AB1799F4A481BC81AB17FF
:1039300079F4A381BB81AB1759F4A281BA81AB178B
:1039400039F4A181B981AB1719F4A081B881AB1703
:103950000895E091A96BE395E33008F0E0E0E0938F
:10396000A96BF0E0EB54F34E099402C00CC015C0F3
:10397000E0911970E5FF05C0E0910D70EF73E0680C
:10398000BFC0E0E0BDC0E0911970E5FF03C0E09169
:103990000E70BBC0E0910070B3C0E0911870E3FFFF
:1039A000D8CFF091706AE0E0F2FDE160F3FDE260F3
:1039B000F1FDE460F5FDE860ADC09DD0CACF9BD0BD
:1039C000AED0C7CF98D0AFD0C4CF95D0AED0C1CFF6
:1039D000B0D0BFCFE991DE0181D0E85FE883ED91FF
:1039E000E983ED91EA83ED91EB83ED91EC83A6D031
:1039F000B0CFE0E0F0E0A0E0B0E0C1D0C8C07BD044
:103A0000E091AA6BE395EA3008F0E0E0E093AA6B5E
:103A1000F0E0E25FF24E62D009959BCF90C008C003
:103A200009C00AC00BC00CC00DC00EC00FC010C032
:103A300011D014C03FD042C045D04CC047D02EC09A
:103A400011D014C017D01AC01DD020C023D026C05A
:103A500029D02CC0E0919C68F0E080C0E09187689C
:103A6000F7E07CC0E091A86BF8E078C0E0910468D2
:103A7000F9E074C0E091FC6AFAE070C0E091F86A85
:103A8000FBE06CC0E0919868FCE068C0E091996848
:103A9000FDE064C0E091A76BFEE060C0E091016BC7
:103AA000FFE05CC0E0917F68F0E158C0E0919B6866
:103AB000F1E154C0E0919268F8E150C0E091936860
:103AC000F9E14CC0E091956BFAE148C0E091966B4A
:103AD000FBE144C0E091976BFEE240C0CCE0DAE647
:103AE0000895A4E0BAE60895A6E0BAE60895A09184
:103AF000036ABAE60895F8DFA093036A089547C001
:103B0000EDDFF1E0F883E98349C0E8DFF2E0F88314
:103B1000E98344C0E3DFF3E0F883E9833FC0CFE00B
:103B200041C0C0EF3FC0CCE33DC0CFE03BD0CCE3D1
:103B300039C0D4DFE0DF2882E9833AC042C0C4E163
:103B4000DAE6E4E0E883A0E8B8E6ED91EC83ED91F5
:103B5000EB83ED91EA83ED91E98333C0E983FA8346
:103B6000F7E0F8832AC0EF9AC9E4DAE634C0EF9AA6
:103B7000CFE4DAE630C0EF9AC5E5DAE62CC0AEDF76
:103B8000E883F983AA83BB83E0E1EC831FC0F09153
:103B9000196AFF0F28F1FF0F18F12BC0A2DFE3E035
:103BA00021D0FBC8A4DFE1E01DD0CD93A5CF9FDFDE
:103BB000E3E018D0F2D8A0CF9ADFE7E013D0EBD83B
:103BC0009BCF92DFFFE315D0E2D896CF8DDFFFE3E6
:103BD00010D0DFD891CF85DFFFEF0BD0D6D88CCFB8
:103BE000F0E007C0F091196A02C0FF1FC8F3E69524
:103BF000E0F3F093196A08950895C0EFD9E6A09113
:103C0000EF692092446AE881E85FF0E0F14E0994A0
:103C1000FFC014C113C112C111C110C10FC10EC127
:103C20000DC10CC10BC10AC109C108C107C106C140
:103C300005C104C103C102C101C100C1FFC0FEC072
:103C4000FDC0FCC0FBC0FAC0F9C0F8C0F7C0F6C0A8
:103C5000F5C0F4C0F3C0F2C0F1C0F0C0EFC0EEC0D8
:103C6000EDC0ECC0EBC0EAC0E9C0E8C0E7C0E6C008
:103C7000E5C0E4C0E3C0E2C0E1C0E0C0DFC0DEC038
:103C8000DDC0DCC0DBC0DAC0D9C0D8C0D7C0D6C068
:103C9000D5C0D4C0D3C0D2C0D1C0D0C0CFC0CEC098
:103CA000CDC0CCC0CBC0CAC0C9C0C8C0C7C0C6C0C8
:103CB000C5C0C4C0C3C0C2C0C1C0C0C0BFC0BEC0F8
:103CC000BDC0BCC0BBC0BAC0B9C0B8C0B7C0B6C028
:103CD000B5C0B4C0B3C0B2C0B1C0B0C0AFC0AEC058
:103CE000ADC0ACC0ABC0AAC0A9C0A8C0A7C0A6C088
:103CF000A0C09FC09EC09DC09CC09BC09AC099C0E0
:103D000098C097C096C095C094C093C092C091C00F
:103D1000B0C0AFC0AEC0ADC0ACC0ABC0AAC0A9C03F
:103D2000A8C0A7C0A6C0A5C0A4C0A3C0A2C0A1C06F
:103D3000A0C09FC09EC09DC09CC09BC09AC099C09F
:103D400098C097C096C095C094C093C092C091C0CF
:103D500090C08FC08EC08DC08CC08BC08AC089C0FF
:103D600088C087C086C085C084C083C082C081C02F
:103D700080C07FC07EC07DC07CC07BC07AC079C05F
:103D800078C077C076C075C074C073C072C071C08F
:103D900071C070C06FC06EC06DC06CC06BC06AC0B7
:103DA00069C068C067C066C065C064C063C062C0E7
:103DB00061C060C05FC05EC05DC05CC05BC05AC017
:103DC00059C058C057C056C055C054C053C052C047
:103DD00051C050C04FC04EC04DC04CC04BC04AC077
:103DE0001AC019C018C017C016C015C014C013C01F
:103DF00012C011C010C00FC00EC00DC00CC00BC04F
:103E00000AC009C008C007C006C00DC009C00EC066
:103E1000A150219670C0A093456AC093426AC0CC5D
:103E2000A150219625C1A15021962BC2A1502196C7
:103E300017C1E091476AE33008F0B7CCEA9AE991FC
:103E4000A1506894F0912E6AFE13E894B0912F6A05
:103E5000B211E894BF2BF0912C6AFE1739F4F0915F
:103E60002D6AF7FD03C0B21128C045C00EF00BCC7F
:103E700032C096CCEA9AE981F881A2502296E330CA
:103E800021F4F03C11F4EB9A57C0B0912D6ABF17A2
:103E9000B0912C6ABE0741F4E0912E6AF0912F6A2E
:103EA000EF2BE2110AC027C0B0912F6ABF17B09163
:103EB0002E6ABE0709F0E7CB0EC0E0911170EC67E7
:103EC000E093306AE0911270E160E093316AE1E0E2
:103ED000E093326A16C0EC9AE0911170E095E378B5
:103EE000E093306AE0911270E095EE7FE093316AE2
:103EF0002092326A06C02092306A2092316A209263
:103F0000326AA093456AC093426AE881E295EF70F5
:103F1000E457F0E0F04E09942BC040C055C054C0A7
:103F2000B8CBB7CBB6CBB5CBE2CBE1CBE8CBE3CBD1
:103F300071C070C015CC10CCA093456AC093426A82
:103F4000EA98E881E295EF70E855F0E0F04E0994C8
:103F500025CC24CC23CC22CC21CC20CC1FCC1ECCF5
:103F60001DCC1CCC1BCC1ACC19CC18CCF9CBF4CB67
:103F7000E991EF70E254F0E0F04E0994E0CBE8CB29
:103F800011CC10CC0BCC0ACC09CC08CC07CC06CC7D
:103F90009CCB9BCB03CC02CC01CC93CBE991EF70B3
:103FA000EC52F0E0F04E0994F9CBF8CB86CB85CB00
:103FB000F5CBF4CBF3CBF2CBF1CBF0CBEFCBEECB1D
:103FC000EDCBECCBEBCBEACBE991EF71E651F0E036
:103FD000F04E0994E3CBE2CBE1CBE0CBDFCBDECB01
:103FE000DDCBDCCBDBCBDACBD9CBD8CBD7CBD6CBAD
:103FF000D5CBD4CBD3CBD2CBD1CBD0CBCFCBCECBDD
:10400000CDCBCCCBCBCBCACBC9CBC8CB4ECB51CBFA
:1040100044CB47CBE991EF71E05FF0E0FF4D0994AD
:1040200062CB57CB59CBBACBB9CBB8CBB7CBB6CB8E
:10403000B5CBB4CBB3CBB2CBB1CBB0CBAFCBAECB9C
:10404000ADCBACCBABCBAACBA9CBA8CBA7CBA6CBCC
:1040500062CB65CB68CB6BCB6ECB41CB54CB57CB14
:10406000A093456AC093426AE881E21197CB0ECBD8
:10407000A093456AC093426AE991EF5BF0E0FF4D7F
:1040800009948CCB8BCB8ACB89CB88CB87CB86CB47
:1040900085CB84CB83CB82CB81CB80CB7FCB7ECBBC
:1040A0007DCB7CCB7BCB7ACB79CB78CB77CB76CBEC
:1040B00075CB74CB73CB72CB71CB70CB6FCB6ECB1C
:1040C0006DCB6CCB6BCB6ACB69CB68CB67CB66CB4C
:1040D00065CB64CB63CB62CB61CB60CB5FCB5ECB7C
:1040E0005DCB5CCB5BCB5ACB59CB58CB57CB56CBAC
:1040F00055CB54CB53CB52CB51CB50CB4FCB4ECBDC
:104100004DCB4CCB4BCB4ACB49CB48CB47CB46CB0B
:1041100045CB44CB43CB42CB41CB40CB3FCB3ECB3B
:104120003DCB3CCB3BCB3ACB39CB38CB37CB36CB6B
:1041300035CB34CB33CB32CB31CB30CB2FCB2ECB9B
:104140002DCB2CCB2BCB2ACB29CB28CB27CB26CBCB
:1041500025CB24CB23CB22CB21CB20CB1FCB1ECBFB
:104160001DCB1CCB1BCB1ACB19CB18CB17CB16CB2B
:1041700015CB14CB13CB12CB11CB10CB0FCB0ECB5B
:104180000DCB0CCB0BCB0ACB09CB08CB07CB06CB8B
:1041900005CB04CB03CB02CB01CB00CBFFCAFECABD
:1041A000FDCAFCCAFBCAFACAF9CAF8CAF7CAF6CAF3
:1041B000F5CAF4CAF3CAF2CAF1CAF0CAEFCAEECA23
:1041C000EDCAECCAEBCAEACAE9CAE8CAE7CAE6CA53
:1041D000E5CAE4CAE3CAE2CAE1CAE0CADFCADECA83
:1041E000DDCADCCADBCADACAD9CAD8CAD7CAD6CAB3
:1041F000D5CAD4CAD3CAD2CAD1CAD0CACFCACECAE3
:10420000CDCACCCACBCACACAC9CAC8CAC7CAC6CA12
:10421000C5CAC4CAC3CAC2CAC1CAC0CABFCABECA42
:10422000BDCA04CB03CB02CB01CB00CBFFCAFECA75
:10423000FDCAFCCAFBCAFACAF9CAF8CAF7CAF6CA62
:10424000F5CAFECAFDCAFCCAFBCAFACAF9CAF8CA4C
:10425000F7CAF6CAF5CAF4CAF3CAF2CAF1CAF0CA72
:10426000EFCA9CCA9BCA9ACA99CA98CA97CA96CAE0
:1042700095CA94CA93CA92CA91CAAFCABBCAC6CADF
:10428000C9CAA093456AC093426AE991E03F08F425
:1042900085CAEF70E25BF0E0FE4D0994E3CA7ECA86
:1042A0007DCA7CCA7BCA7ACA79CADECA77CA76CA8C
:1042B00075CA74CA73CA72CA71CA70CAE0E0E09360
:1042C000E8692092196A0895FFFFFFFFFFFFFFFFD3
:1044000024C04CC04EC053C058C076C196C1CAC16A
:10441000D8C1FAC101C20FC217C21FC227C232C21D
:1044200058C075C0B5C007C11CC139C13BC13CC132
:104430003DC13EC13FC140C141C142C143C144C170
:1044400045C146C147C148C149C1E2E0E093110BF3
:10445000332424C0E0918868F09189683196E09314
:104460008868F09389680AC0E0918A68F0918B6847
:104470003196E0938A68F0938B6800C0E09184687D
:10448000E395E093846800C0332403C0E3E03E2E4C
:1044900000C0E398E998ED98E1E023C20E949C28CF
:1044A00000C0ED99F1CF86F73394E3E01AC2ED999D
:1044B000EBCF56F73394E4E014C2ED99E5CF2EF438
:1044C000339409F43A94E4E00CC2E32DE43108F4A7
:1044D000DBCF3092EE69E091E669F091E769F695FD
:1044E000E795F695E795F695E795E21DE001FBEA7D
:1044F000EF9F10921C6A0E01E39A0E94C317E0EF2F
:10450000F9E6CFE02192CA95E9F7E1E1EAC10EF0C0
:10451000ED99BACFE091E669F091E769F695E795F4
:10452000F695E795F695E795E21DE001FBEAEF9F2A
:1045300010921D6A0E01E39A0E94C817EE27529B43
:10454000EFEFF091FF69E093FF69FE13EE9AE998AF
:10455000EA98EF98EB98EC982092EF692092ED6939
:10456000E0918568E395E43650F0E0918468F0913D
:104570008668E0938668EF1BE0938768E0E0E0934D
:104580008568E091016AE395E093016AE5E1A9C1DC
:10459000ED9960CFE091EF69EF3008F065CFF0EF73
:1045A000EF0FF9E6F21D3192E05FE093EF69E091E1
:1045B000ED69E325E093ED695EF509F055CFE3E0A1
:1045C000E093110BE0918068F09181683196E0935F
:1045D0008068F0938168E0918268F0918368E21DC1
:1045E000F21DE0938268F0938368E091E669F091B0
:1045F000E769F695E795F695E795F695E795E21D57
:10460000E001FBEAEF9F1092206A0E01E4E169C12C
:10461000E091E669F091E769F695E795F695E795FB
:10462000F695E795E21DE001FBEAEF9F10921E6A06
:104630000E01E3E156C1ED9B0EF40CCFE091E6696B
:10464000F091E769F695E795F695E795F695E79584
:10465000E21DE001FBEAEF9F10921F6A0E01E5E107
:1046600040C1E2E0E093110B2092E4692092E569F9
:10467000ED9B0EF0EFCEE091E669F091E769F695DB
:10468000E795F695E795F695E795E21DE001FBEADB
:10469000EF9F1092216A0E01B0DAE5E022C1E398A3
:1046A000E6E11EC0E7E121C0E8E11AC0E9E11DC072
:1046B000EAE116C0EBE119C0ECE112C0EDE115C072
:1046C000EEE10EC0EFE111C0E0E20AC0E1E20DC090
:1046D000E2E206C0E3E209C0E4E202C0E2E105C0B2
:1046E000ED99B8CE330C30F8FCC01EF030FCB2CEE1
:1046F000F8C030FEAFCEF5C0E39AE6E7FCED0E94CD
:1047000005160EF0C1CEC091196AD0911970EB99BF
:10471000D860D3FFC070D0911870EB99D260EA993D
:10472000D0FFCC7FEC9BD1FFC370EF99CFEFC0934C
:10473000196A529BB399AACE00C0E99AD0912A7007
:10474000C0910A0BCD23D0912970CD0FCF70C093AB
:104750001A6AC15BDCE0F001CD9F00921C0B109245
:104760001D0B0F01E091E669F091E769F695E79579
:10477000F695E795F695E795E21DE001FBEAEF9FD8
:104780001092226A0E01E0E0E093110BE091196AA9
:10479000E0FF06C0C090046AE89AEDE0E0931301E0
:1047A000E7E09FC0F091196AE091056AF1FDE0939E
:1047B0004208E8E6F1E0E0931C0BF0931D0BE8E003
:1047C00090C0D0912C70C0910A0BCD23D0912B704A
:1047D000CD0FCF70C0931B6ACE5AD0911A6ACD1BF1
:1047E000DCE0F001CD9F00921C0B10921D0B0F011D
:1047F000E091196AE2FF06C0C090066AE89AEDE00F
:10480000E0931301E9E06DC0E0EFF0E0E0931C0BF2
:10481000F0931D0BEAE065C0F091196AE091076A18
:10482000F3FDE0934208E0EEF1E0E0931C0BF0931F
:104830001D0BEBE056C0F091196AE091086AF4FD97
:10484000E0934208ECE04DC0F091196AE091096AEA
:10485000F5FDE0934208EDE044C0F091196AE09163
:104860000A6AF6FDE0934208EEE03BC0F091196A57
:10487000E0910B6AF7FDE0934208E2E0E093110B50
:10488000EFE02FC0E001E091E469F091E569F69571
:10489000E795F695E795F695E795E21DFBEAEF9F1C
:1048A000E12DEC51F0911B6AEF0FE093236A0E01AA
:1048B000F091196AFC7F91F0ECE1FAE6C191C783AF
:1048C000C191C783C191C783C191C783C191C78378
:1048D000C191C783C191C783C191C7832092196ACF
:1048E000D3CDE093E869AF91BF91CF91DF91EF9184
:1048F000EFBFEF91FF911895EEE0FBE6AAE4BEEC66
:10490000D0E0C1E0D583C083B183A2832682278211
:10491000208624823A96D395D830A1F76B9869986F
:104920006A986C989DC112D0ED91FD91FC83FD9128
:10493000F887FD91F98777D141F0E885EF3008F0ED
:10494000E0E0E659F0E0F94D09947DC2AD81AA0F8F
:10495000AA0FB0E0AC57BF480895CEE5DBE6CF9391
:10496000DF930E94DE2CDF91CF912A97DCDF8E81CE
:104970009F8190FB9827917009F0BCD0888181506D
:1049800041F008F088838D81882349F71FD141D1F8
:1049900067C1F981EA8181918C3008F080E090E074
:1049A00088529B4D8F939F930895F983EA83EBCFB1
:1049B0000BC00DC011C02CC036C03FC042C047C0A4
:1049C00054C05CC062C068C00B807BD0DCCF01905B
:1049D00078D011901882E9CF0E949B259F938F93E6
:1049E0008191982F92958F709F70092E081A0394C9
:1049F0001F90109C180E64D08191982F92958F7003
:104A00009F70092E081A1F90109C180E1882CDCF87
:104A10000E949B2501909191091A0394182E109CD5
:104A2000190E4ED0B8CF0E949B2501909191091A82
:104A3000182E109C190E1882B8CF91918191FC010B
:104A4000AACF91918191FC018D810995A4CF0E94FB
:104A50009B2501909191981708F4A7CF0394102CEF
:104A6000100C100CE119F20996CFE89410800B801D
:104A7000101460F021F43196319697CF689411901C
:104A80000B800114C8F7039415C0689411900B8033
:104A9000101490F70A940EC00E949B2501909191EA
:104AA000091A0394182E109C190E0B80101408F488
:104AB00007D071CF06D0119018820EF476CF63CF55
:104AC000012C0B82AEE5BBE61D80A10DB21D0C9240
:104AD0000895FFECE8E903C0FFECE0EC00C08C8136
:104AE000843108F080E0880FE80FF21D91918191E8
:104AF000FC0108958E8180F98E839EEC8CE416F47F
:104B00009EEC80E599838A8391E09883089513D081
:104B10008F77089510C00FD009F4917008950BD0CD
:104B200009F49370089507D009F49770089503D09D
:104B300009F49F70089580911A0B90910A0B8927B0
:104B40000895EEE5FBE6D091F76ADF70D395D4FDCA
:104B5000DA95C191CD17C091010ACF7E08F0C061EE
:104B6000C093010AC191CD17C091010ACD7F08F011
:104B7000C260C093010AC191CD17C091010ACB7FD9
:104B800008F0C460C093010AC191CD17C091010A19
:104B9000CF7D08F0C062C093010AC191CD1708F023
:104BA0004B9A08F44B98C191CD1708F06D9A08F410
:104BB0006D98C191CD1708F00E9A08F40E98C19126
:104BC000CD1708F00B9A08F40B980895ACE6B0E7FF
:104BD0001AD08093736A17D0E091726A8093726AD8
:104BE000E827E2FF0FC0E091A16AE7FBEF7782FDC3
:104BF000EE0FE7FDEEE782FFE695E093A06AE7F9A6
:104C0000E093A16A089581E0EE910DD0881FE0F74E
:104C10000895ACE6B0E780E8ED9105D08795E0F720
:104C20008093746A0895E53410F0EE2713C0E7FB13
:104C3000EF771E2EE770F0E0E85AF34300801694F9
:104C400016941694E2E5F8E6E10DF21DE0810EF40B
:104C5000E025E021E195089501020408102040803C
:104C6000ECE7F0E7A2EABCEDDAE08191CD91C21168
:104C70008883E238D1F708951FB6F095F894009034
:104C8000706A0F220E2A0092706A1FBE08951FB626
:104C9000F095F8940090716A0F220E2A0092716AC2
:104CA0001FBE0895E0916F6AEE230895E0913A7077
:104CB000EE3108F0EEE1E0938506FFB7F894E0915D
:104CC0006F6AE15010F0E0936F6AFFBFE1E0E0939C
:104CD00086060895B8C0A2C016C01FC028C031C043
:104CE0003AC040C048C050C057C05EC06EC077C018
:104CF00063C07FD083FDA7C082FD90C080FDA3C0AC
:104D000090FFA1C08BC075D083FD9DC082FD86C081
:104D100080FD99C090FF97C081C06BD083FD93C088
:104D200082FD7CC081FD8FC090FD8DC077C061D0B9
:104D300083FD74C082FD87C080FD85C090FD83C067
:104D40006DC057D083FD6AC082FD7DC081FD7BC0F0
:104D500090FF79C063C04DD083FF91FD65C082FF95
:104D600063C053C046D083FF91FD5EC082FF5CC02C
:104D700090FF69C04AC03DD083FF91FD55C082FFBE
:104D800053C090FD60C041C034D083FF82FF4CC04F
:104D900091FD08953AD04EC02CD083FF82FF53C0BE
:104DA00091FD90FD50C03AC024D083FF82FF4BC0DC
:104DB00091FD90FF48C032C01CD082FD0895B3E041
:104DC000B823B21183FD3FC029C013D082FD0895DE
:104DD000B3E0B823B21183FD36C01DD031C009D075
:104DE00082FD0895B3E0B823B21183FD2CC00AD030
:104DF00021C08091726A9091706AA985089587DEBA
:104E000069F0089587DE51F0089585DE39F0089540
:104E100086DE21F0089587DE09F00895E1E0EF8352
:104E2000089575DE81F0089575DE69F0089573DEEA
:104E300051F0089574DE39F0089575DE21F008957B
:104E400076DE09F008952F820895000006256C0093
:104E50000625690001000000010F010001000000AB
:104E6000010201010401080F01000106010800010F
:104E7000000002008102108102FF210703A002FE50
:104E8000810701FF00000200F10210F102FF21077B
:104E900003A000000101140211F102FF21070280AA
:104EA0000000080101043010010F01000801010495
:104EB0003010010408080F01000001000000090F74
:104EC000010450200702FF00010000000804010057
:104ED0000800010001080102531108010104060144
:104EE0000704C004C040090F010702FF0000010FC2
:104EF00001010101045020046010090F010702FFA5
:104F000000000B03010480400A00010702FF0000BB
:104F1000080401010F030104010801010101080750
:104F200005FF000008000100010F0A01000A070246
:104F3000FF000200F102FFB90200B90702FF000002
:104F400001000100010F010100130702FF00010F22
:104F500001010001010F010100110704FF00010F11
:104F600001010001010F01010001010F0101000F0A
:104F70000706FF0001000100010001080F01080100
:104F8000010702FF0000010011080F0108010107DD
:104F900002FF000008000100CE54CE58CE60CE7251
:104FA000CE86CE94CEA2CEACCEBECECCCED4CEEEDD
:104FB000CF10CF28CF32CF44CF4ECF5ECF78CF8621
:104FC000CE54CE5CCE6ACEBACEBACEBACEBACEBAB5
:104FD000CEC8CED0CF02CF02CF24CF40CF40CF74A7
:104FE000CF74CF74CF94CF942092756A2092766A52
:104FF000089504D0FE2FE0E2EF1B0895E091766A59
:10500000F091756AEF1B08F4E1950895E091766AD6
:10501000F091756A8894EF1308940895C091766AA8
:10502000C958D0E0D549B993E993F993A993C757E3
:10503000C03208F0CC27C093766A0895C091756A93
:10504000C958D0E0D549B991E991F991A991C757CB
:10505000C03208F0CC27C093756A089590E3889415
:1050600010C0A881A823A81711F492E106C0A88156
:10507000A823A817B1F393E100C0A881A817A9F04D
:105080000894A0910210A1FDFCCFA0FDFACFADE9DC
:10509000A4BF9093001008F48993A4BFA1E0A0934B
:1050A0000010A0910210A1FDFCCF08957DD06ED01C
:1050B0000BD00E946D16E093676AF093686A2092A5
:1050C000616A2092626A089582E010904E680090B2
:1050D0004F68F0914C68E0914D68EF01CD2BD9F409
:1050E000E0911070F4E6EF9FF0E0E211F0ECE09157
:1050F0000F70EF770E0E121C1F2A81E0E0910070F6
:10510000EF77F0E0C0911970C5FF05C0F0910D7008
:10511000E0910E70F06CE0932C6AF0932D6A00928F
:105120002E6A10922F6A0128E0E0F0E20210EF2FC1
:10513000A3DDCEEFD5E19BCFE091616AE23060F074
:10514000E091626A2092616A2092626AE93020F4FA
:10515000F0E0E355F74D0994089508C008C009C070
:105160000AC00BC00CC00DC00CC00CC040C00C94D9
:105170004F150C9451150C9455150C945F150C9407
:105180005A150895F8946ADF0C944F15B1D004D0E5
:10519000B3D002D0B5D000C0B0E055D0B395A09147
:1051A000656ABA17D1F70895E091FF15E03069F00C
:1051B000EF3F09F053DF9CD009D09ED007D0A0D09C
:1051C00005D0CFEFD5E180E052DF0895B0E0A8959B
:1051D00006D0B395A091656ABA17D1F7089528D083
:1051E00028F4D091636ACE2F8A2F3BDF0895F8947C
:1051F00081E0CEEFD5E13BDF7BD0B0E0F0DFB0E186
:10520000EEDFB395B431E1F70C944F15E091636A8A
:10521000E431EEE0EB0751F0E0910B70F0910C708F
:10522000EF1721F0EF91EF91989408951894089555
:1052300039D033960994F0DF35D031960994E6DF02
:1052400031D0329609942ED030960994A0E027C030
:10525000EA81A98121C0EA81F091636AA081F0917D
:10526000646AA08319C0EA81F091646AA08114C0C5
:10527000EA81F091646AB091636AD0DE0DC0E98181
:10528000FA81A08109C0E981FA81A08305C00F924B
:10529000C895A02D0F9000C01894089408951894F4
:1052A00088940895CB2FD091656ACD1778F4D0E01B
:1052B000CC0FDD1FCC0FDD1FF091666ADF0FE88198
:1052C000E43149F0F0E0EC5AF14D0895C0E0D2EE3F
:1052D000E4E5FEE20895E981FA810895B0E0B03096
:1052E00099F4A03029F0A13039F0A23049F00CC077
:1052F000A3ECBEEDF0E00BC0ADE7B2EEF0E007C00E
:10530000A1E0B4EEF1E003C0A0E0BEEDF0E0A093B8
:10531000656AB093666AFC5EF093636AF45AF09330
:10532000646A089503C007C009C010C0A0910014AA
:10533000A0930070B1CFA0910070AECFAA2329F046
:1053400022F0E0E0F0E76ADEA7CF80CFE0E0A3E064
:10535000A3CF7CCF02C003C079CFADE09DCF0E9428
:10536000E81261F4E091616AF091626AFA13E0E098
:10537000E395E093616AA093626A8ECF67CF03C022
:1053800007C009C013C0A0910B14A0930B7084CF69
:10539000A0910B7081CFAF3F11F4A0910C70A03F92
:1053A00020F4EBE0F0E73ADE77CF50CFEBE0A1E07E
:1053B00073CF03C007C009C00FC0A0910C14A09305
:1053C0000C706ACFA0910C7067CFA03F20F4ECE086
:1053D000F0E724DE61CF3ACFECE0A1E05DCF03C07F
:1053E00007C009C00FC0A0912F14A0932F7054CFF5
:1053F000A0912F7051CFEA2F0E94AF12EFE2F0E799
:105400000DDE4ACFEFE2A0E047CF20CF06C01ECF8F
:105410001DCF1CCF05C01ACF19CFE1E0F1E937CF7E
:10542000E0E0F1E934CF19C0C0911E78E091066840
:10543000CE1BC158E4E8FBE60E94A415B093B76AFE
:10544000C0911C78E0910768CE1BC158EAE8FBE6E2
:105450000E94A415B093B86A08950F9803D008D09D
:105460000F9A0895E0E0E093B26AE093B36A08957A
:10547000A0E0A093B46AA093B56A089592E0E09189
:10548000B26AF091B36AFE13E3959A95E1F7E0935F
:10549000B26A089592E0F3DFE091B26AF6E7909184
:1054A000B36A9E1729F090819993E3958A95B9F78D
:1054B000E093B26A0895C2E3D5ED1EC0C6E8D5ED0B
:1054C0001BC0C8E3D5ED18C0CEE3D5ED15C0CAE4C6
:1054D000D5ED12C0C4E4D5ED0FC0C0E5D5ED0CC0CC
:1054E000C6E5D5ED09C0CCE5D5ED06C0C2E6D5EDE3
:1054F00003C0C8E6D5ED00C09991899103D09A9573
:10550000E1F70895E091B56AF091B46AFA95EF1762
:1055100039F0F7E78193E093B56AE0EAE093250874
:105520000895F0912408F5FFFCCF00C08093220875
:10553000089505AA003F012005AA0007010005AA59
:10554000003E010005AA003D010005AA003D010C36
:1055500004AA0120080004AA011A060004AA0134C2
:10556000020004AA0155160004AA01006B0006AA55
:1055700000410221040006AA00410224000006AAFC
:1055800000410224060006AA00410221020006AAE8
:1055900000410224030006AA00410221010006AADC
:1055A00000410221070006AA0041022405000895D7
:1055B000D7EB59C25AD209D258D2E0910210E1FD7C
:1055C000FACF24DDC0F73ADDC081CA17B1F3A0835A
:1055D000FB2FCDE9D3E1C4BFD0930010A083D1E06D
:1055E000C4BFD0930010D1E0D0930410D093031027
:1055F000E2CF84E190E00E941D2DFBCF82E390E09A
:105600000E941D2D0E94AD24F9CFE4E8FBE6C0E81E
:10561000D5E70E949515EAE8FBE6C0E9D5E70E94C8
:10562000951580ED97E00E941D2D22DF1BDF82E3A0
:1056300090E00E941D2D45DF82E390E00E941D2D29
:105640003DDF82E390E00E941D2D3EDF82E390E08B
:105650000E941D2D3CDF82E390E00E941D2D02DFA1
:1056600007DF80ED97E00E941D2DFCDE42DF84E61F
:1056700090E00E941D2DC0E0D8E78BE60BDF0E9472
:10568000DE2CD2DEF2CFF1D1A0D1EFD10E94EE1606
:10569000FBCF88EE93E00E941D2D43D2F0914C6821
:1056A000E0914D68EF2BA9F032D282E390E00E94A6
:1056B0001D2D32D288EC90E00E941D2D28D282E36D
:1056C00090E00E941D2D28D288EE93E00E941D2DAF
:1056D000E4CF1DD282E390E00E941D2D1DD282EE08
:1056E00094E00E941D2DD9CF0C94A1250C94781420
:1056F0000E94ED160C941A15FBEDE8E7DAE6C9EB0B
:1057000082E10E946B1514D037D03FD047D04FD0E4
:1057100057D05FD067D06FD011272227D9E0C9E9D1
:10572000C093F56AD093F66A089578940C949F2BF1
:10573000E9EBFAE6E093F26AF093F36A08950E94C7
:10574000D82A2092F96A2092FA6A2092FB6A1D7F79
:10575000E091F96AF091FA6AC091FB6A3196C21D34
:1057600011FDEFCF2223D1F3E093F96AF093FA6AA7
:10577000C093FB6A2AD1ECCFE3ECFBE2E0933F69F4
:10578000F0933E6908950C94DA2AECECFBE2E09386
:105790005F69F0935E6908950C94F92AE5EDFBE2E8
:1057A000E0937F69F0937E6908950C94FE2AEEEDF4
:1057B000FBE2E0938169F09380690895A3E924C036
:1057C000E7EEFBE2E093A169F093A06908950C94E1
:1057D000052BE0EFFBE2E093C169F093C069089507
:1057E0000C94432BE9EFFBE2E093C369F093C269A9
:1057F0000895A6E909C0E2E0FCE2E093E369F093D2
:10580000E26908950C94492B0C949F1610FD79C001
:10581000F093046BFFB7F093036B1160E093056B9B
:10582000D093066BC093076BB093086BA093096B82
:1058300090930A6B80930B6B10920C6B00920D6B24
:10584000C091F76AC395C093F76A09F41860CF70E6
:1058500009F41460C0FD14C01061C091F56AD091C4
:10586000F66AC15015F41062C97F10F41064C9794A
:10587000D04010F41068D970C093F56AD093F66ADE
:1058800017FD4FD070D00E94742B14FD0E94762B10
:1058900013FD0E94782B14FF1BC0DAE6CFECA1E0C9
:1058A000E881F981319788F071F42A2BE883F98334
:1058B000EA81FB81FE2B49F0FB810180A0950A2241
:1058C000A095018202C0E883F9832496AA0F41F7CC
:1058D00000900D6B10900C6B80910B6B90910A6B8C
:1058E000A091096BB091086BC091076BD091066BCA
:1058F000E091056B1270F091036BFFBFF091046BA8
:105900000895F894E1E0F1E00E94C92DFFEF31978E
:10591000F1F7E0E0F1E00E94C92DF0E43197F1F7F2
:10592000F0CFE091FA6AF091FB6AEE0FFF1FEBE80F
:10593000FE9F000C111CE4E6E119E093F86A126086
:10594000C091FD6AD091FE6AC093FF6AD093006B4C
:10595000D695C795D695C795C093FC6A2092FE6AE6
:105960002092FD6A0895E091F76AEF70E093F46A7F
:10597000EE0FF0E0E254F34D099408950C94BD2C21
:105980000C94BD2C0C94BD2C0C94BD2C0C94BD2CF3
:105990000C94BD2C0C94BD2C0C94BD2C0C94BD2CE3
:1059A0000C94BD2C0C94BD2C0C94BD2C0C94BD2CD3
:1059B0000C94BD2C0C94BD2C0C94BD2CF091EF6A72
:1059C000FF0F11F02F1708F40895E091FD6AF09190
:1059D000FE6A3196E093FD6AF093FE6AC091F26A26
:1059E000D091F36AEDB7FEB7E993F883E0E2F22FC6
:1059F000C0E8FF0F30F019F0C695E450D1F7CC277E
:105A0000EE27C093EF6AE093F16AE695E093F06ABF
:105A1000DAE6C9EBCE0FD21DC093F26AD093F36AD7
:105A2000E991F881CFB7F894EDBFFEBFCFBF0895DD
:105A300091E0899FC00101C09927CBECDAE6B091D3
:105A4000F16ACB0FD21DBFB7F89488839983D091A8
:105A5000EF6AD0952D23BFBFB8CF07D0B6CF03D004
:105A6000B4CFD091EF6A2D2B0895D091EF6AD095E5
:105A70002D230895208221820895689401C0E8941E
:105A8000D091EF6ABFB7F894C081CC2321F0CE7FCC
:105A9000C083BFBF0895C181CD2BC183BFBF0EF0AE
:105AA000DCCFCBCFBFB7F894C191D081DD2321F4F7
:105AB000C160C293BFBF089520822292BFBF0DC0B4
:105AC000BFB7F894D081D260D193D081DD2311F497
:105AD000BFBF08952082BFBF00C0EBECFAE6CD2F18
:105AE0003496CC0F41F0E0F7F89421922192219264
:105AF0002192BFBFF6CFB7CF20820895BFB7F894E9
:105B0000A081AE7FA083BFBF0895F8DFB8CFE1E0EA
:105B1000F1E00E94C92D0895E0E0F1E00E94C92D56
:105B20000895CBEADBE6E4E6FBED0C2E9FEFA191B6
:105B3000B191BF3F81F011968FEF83951D90112099
:105B4000E1F3821183958993981788F38211982F36
:105B500082110C2EECCF9093016B0894C009C09376
:105B6000026B0895006920694069606980698269F3
:105B7000A269C269C469FFFF1F693D695D697D69EA
:105B80007F699F69BF69C169E1690895E2E0F2E058
:105B900000C0EF23F0950090906B0F22E02906C023
:105BA000E0E004C0EFEF02C0E1E000C0E093906BE2
:105BB00000C0E091906B0C947316EF23F095009069
:105BC000916B0F22E02908C0E0E006C0E5E504C0C3
:105BD000EFEF02C0EFE000C0E093916B00C0E091F6
:105BE000916B0C947116310B00000100073100809D
:105BF000A76A000100404031008000000002310B24
:105C00000000010007310081A76A00010040403117
:105C1000008100000002310B00000107003100800C
:105C2000A76A000100404031008000000002310BF3
:105C30000000010700310081A76A000100404031E7
:105C400000810000000231030000011110310080CA
:105C50009E6B0001004040310080000000063103CF
:105C60000000011011310080A06B000100404031A4
:105C7000008000000006110B00000112401100809E
:105C8000976A0001011240110083A96A00010142D4
:105C900040110081A26B0001004040110080000013
:105CA0000002292A2C2B0000D1CAD0CACFCACECAE2
:105CB000CDCACECACBCACACACECAD5CAD9CAC8CA20
:105CC000C5CADDCAC3CAC2CAC1CAD9CADCCABECA29
:105CD000BDCABCCABBCABACAFFFFFFFFFFFFFFFFB6
:105E00001492297F080101FF081002FF081003FF08
:105E100008FF04FF088005FF0415000014A92900ED
:105E200008010603083207FF081008FF04040000F9
:105E30000800090008000A0014BF29FF14D929FF2F
:105E400008C30DFF08E80EFF08000FFF080010FF51
:105E5000080011FF080012FF0800130008001400DA
:105E60000000000000000000080017FF089E181145
:105E7000080A1911101A7000040000FF04FF00FF47
:105E80000000000000000000000000000000000012
:105E90000000000000000000000000000000000002
:105EA00000000000000000000000000000000000F2
:105EB00000000000000000000804290F08002A0F5D
:105EC00008042B0F08002C0F08802DFF08042EFF5C
:105ED00014EF29FF080330FF0800313F0803320F99
:105EE000080033FF08FA34FF086435FF086436FF02
:105EF000088037FF088038FF08A039FF081E3AFFE6
:105F0000000000000000000008033D7F08073E7FFE
:105F1000080C3F7F0810407F0815417F0819427F19
:105F2000081E437F0822447F0827457F082B467FB1
:105F30000830477F0834487F0839497F083D4A7F49
:105F400008424B7F08464C7F084B4D7F084F4E7FE1
:105F500008544F7F0858507F085D517F0861527F79
:105F60000866537F086A547F086F557F0873567F11
:105F70000878577F087E587F000000000406000064
:105F80000C4068000C4168000C4268000C4368003B
:105F90000C4468000C4568000C4668000C4768001B
:105FA00008005AFF08005BFF04010000040900001C
:105FB0000C01A1000C0091000C0191000C0091005B
:105FC0000C1180000C10800014052AFF14092AFF10
:105FD0000C1717000CFF15000CFE150008015CFFE4
:105FE00008025DFF08035EFF08045FFF080560FF0D
:105FF000080661FF080762FF08FF63FF08FF64FFF0
:1060000008FF65FF08FF66FF08FF67FF08FF68FFDE
:1060100008FF69FF08086AFF08096BFF083D6CFF6D
:10602000083E6DFF083F6EFF08406FFF084170FF9C
:10603000084271FF084372FF084473FF08FF74FFB2
:1060400008FF75FF08FF76FF08FF77FF08FF78FF5E
:1060500008FF79FF08FF7AFF08FF7BFF08FF7CFF3E
:1060600008FF7DFF08FF7EFF08FF7FFF08FF80FF1E
:1060700008FF81FF0000820000008300080084FF09
:10608000080285FF080286FF08FF87FF080088FFD7
:10609000080289FF08038AFF08FF8BFF08008CFFB6
:1060A00008018DFF08078EFF08FF8FFF080090FF93
:1060B000080191FF080892FF08FF93FF08FF94FF73
:1060C000080095FF080096FF08FF97FF08FF98FF5C
:1060D000080099FF08009AFF08FF9BFF08FF9CFF3C
:1060E00008009DFF08009EFF08FF9FFF08FFA0FF1C
:1060F0000800A1FF0800A2FF08FFA3FF0887A4FF74
:106100000803A5FF0800A6FF04550000FFFFFFFFDE
:10620000040900000401000000000000000000007C
:106210000C4368000C4268000C4168000C406800A8
:106220000C4768000C4668000C4568000C44680088
:106230000C0878000C0978000C0A78000C0B780028
:106240000C0C78000C0D78000C0E78000C0F780008
:106250000C1078000C1178000C1278000C137800E8
:106260000C1478000C1578000C1678000C177800C8
:106270000C1878000C1978000C1A78000C1B7800A8
:106280000C1C78000C1D78000C1E78000C1F780088
:106290000C2078000C2178000C2278000C23780068
:1062A0000C2478000C2578000C2678000C27780048
:1062B0000C2878000C2978000C2A78000C2B780028
:1062C0000C2C78000C2D78000C2E78000C2F780008
:1062D0000C3078000C3178000C3278000C337800E8
:1062E0000C3478000C3578000C3678000C397800C6
:1062F0000C3A78000C1A78000C1B78000CB76A0076
:106300000CB86A000000000000000000000000005F
:106310000000000000000000000000000C90680079
:106320000C9168000C9268000C9368000C9868004F
:106330000C9968000C8068000C8168000C82680071
:106340000C8368000C8868000C8968000C8A68005F
:106350000C8B68000C8C68000C8D68000C246A00A3
:106360000C256A000C266A000C276A000C286A00BB
:106370000C296A000C2A6A000C2B6A000CEE6900DA
:106380000CFF69000C006A000CA56B000CA66B00EA
:106390000CA76B000C0268000C0368000C0468007A
:1063A0000C0568000C0068000C0168000CFD15006D
:1063B0000CAB6B000CAC6B000CAD6B000CAE6B004F
