:020000020000FC
:100000000C943E000C94F0010C94F0010C948601C9
:10001000AAC1ACC1AEC1B0C1E4C0DAC096C597C533
:10002000B0C1ADC1B5C15EC363C3E8C3EBC374C3A4
:100030007EC385C318C4F1C3FFC368C35DC361C376
:1000400091C4C4C1B8C1BDC101C306C311C312C3A9
:100050001AC326C33DC341C34CC4CCC0D2C043C4A1
:1000600076C380C35CC39CC4A5C4BAC4E9C6ECC64D
:10007000EEC6F0C6F5C603C713C772C1F8942224B2
:10008000E7E2F9E6EDBFFEBFE8EDF7E0E4BFF0938D
:100090000001A895E8EDF4E2E4BFF0936800E09178
:1000A0004000E0934000EFBBE8EDE4BF2092011078
:1000B0002BBE0F98079AE8E0E0935104E0935004B8
:1000C000E8EDF0E6E4BFF0931001E0914101E211A8
:1000D000FCCF2092480120924901E1E0E0934001E9
:1000E000E0E1E093E205EFE0E093E405E8E0E0938F
:1000F000B504E093B604E0931104E0931004E0E04B
:10010000F8E02682A0ECB0E0A087B187A0E8A58344
:10011000A3E0A783A2ECA683A6980198AD9A089ABB
:10012000A59A009A669A649A029A50D058D0F89B81
:1001300006C0E0E0F0E6AFEFA193F836E8F3E0E0C8
:10014000F9E6FB9BF899E0E0FB9BF899F8E6219231
:10015000F038E8F3E0914801F0914901F230D0F332
:10016000E2E036D03AD071D2C2E0ECD4B69B0EC0F9
:10017000E0910090EF3F11F092D419F030D48FD479
:1001800009F441C1E1E022C1B8D17B70E0E0FAE0BE
:100190002082218222822382AFE0A083E0E0FBE084
:1001A00020822182AEE6B1E0A487B587A1E0A583D5
:1001B000A5E0A08394D299D2789406D00ED0C2E65E
:1001C000B8D4E0E0C8D13AC0E0E002C0EFEF00C030
:1001D000E0FF0A9AE0FD0A980895E0E002C0EFEF20
:1001E00000C0E0FD6E9AE0FF6E98E1FD6C9AE1FFC1
:1001F0006C980895E8EDF1E0E0933400F09341004D
:10020000FFCFA895E8EDE4BFE1E0E0930001FFCF68
:10021000B2D3FBD29681A6D30C92A3D3B1C3ABD3F6
:10022000A0D397819FD3F1D209901C9001100C921A
:1002300011960197C9F795D3A3D30895E7E2F9E69C
:10024000EDBFFEBF222734E0EAE285D1C09100690C
:1002500079D426D1203491F324FD10C026FFF9CFA4
:10026000E8EEF2E0059000160590159019F4F00103
:100270000995E4CFEC30B1F720FFEBCF003449F71C
:10028000622F6370613029F72062F7D07A3B21F446
:100290006531A1F62061DDCF24FFD0CF7B3B39F45F
:1002A000693060F6C62F4ED4246031E0D2CF7C3B5B
:1002B00021F422FFC3CF7DD1CCCF7F3B51F66030FC
:1002C00011F40AD0BBCF613009F40AD0B7CF68E08F
:1002D00070C1C02F2ED4B2CF6CD3EEED3CD1AECFD7
:1002E0007ED3ECEE38D1AACF53F90152E001646716
:1002F00001616901626901636901656901666901FA
:100300007369017569016C6901001E01EFB64F0147
:10031000E0910408E7FF13C0E72DE619E03C23FF56
:1003200008F0AD9AE0910108E2FD82C0F0E7E72D08
:100330007090000871927E2EF401EFBE1895E09146
:10034000060BE093060B761411F442104A943A948B
:1003500022F4332EE4E0E0930704F401EFBE189595
:10036000E0E0F0E00895EDE0F0E00895E0E5F1ED83
:100370000895E1E0F0E00895E0E5F1ED089503D09F
:10038000E6C301D0E2C3AFE0B0E0C0E1D1E108953F
:10039000F8DFA193B193C193D193F1DFA193B1930E
:1003A000C193D1930895DFEF672C94D06710FBCFF2
:1003B0002197D9F7089517D048F00895EBE001C0D0
:1003C000EAE00FDF2092480120924901A895F894B5
:1003D000AD98F0E208D0E8F704DFF0E404D0E8F7E5
:1003E000F3DEFBDE07CF0090480100904901F015D5
:1003F0000895C0910069A6D352D3C9F4CF3511F046
:10040000CB35A9F4D0DF209205082092000A209273
:10041000000B2092050B20924801209249018ED1B9
:10042000FE01E050F048F695E795F894099411CF55
:10043000F89420920608AD98E8E0CADEE5E5D1DE42
:10044000EFEFA89500C000C000C0E211EA95119B33
:10045000F8CFE211F5CFC4CF8E2F9927C2DEE8E0A6
:10046000B7DEE4EA78D0F0910100E2E0F2FDEAE0E4
:10047000AFDE32E0672C2ED0F6CF04D0702F02D042
:10048000602F089507D002950F9304D00F90002994
:10049000F00E089505D00F7D075308F4095D089507
:1004A00019D0421002C025FDC9CE7614C9F3F0E779
:1004B000E62D00816394206442102F7B26FD2F7E61
:1004C000FBE04F2E21FF23950A3011F00D3009F487
:1004D0002C7F00C00F01A89523FD06C0E72DE6196B
:1004E000E03218F4AD9801C0AD9AF0010895019181
:1004F00001D003C00F93029501C00F930F70005DF0
:100500000A3308F0095F1BD00F910895092FF0DF1F
:10051000082FEECF0AE013D00DE011C0E0E0F1E1CA
:10052000E6DFE5DFE4DF0EE20AD029DFCE01EEDF11
:10053000CD01ECDF26DFCE01E9DFCD01E7CFD8E149
:10054000C9DF0090040805FEFBCF2197B699C1F7DB
:10055000009302080895E0930169FDE0E0910169CC
:1005600005910EBBE0930169002391F012F0E7DFE3
:10057000F4CFF1990ED0F29911D0F399C7DFF49925
:10058000CDDFF69913D0F599ADD2F099C3DFE5CF61
:100590000895C591E0930169D5D28BC2009000699E
:1005A000109031690AE210100895C9CF09E0C7DF41
:1005B00082C26CBBE099BAD2E19907D0E3999AD292
:1005C000E69921CFE799FACE089517D1B7D0C09315
:1005D0000269D093036964DF20FFFDCF0A33D9F7A6
:1005E00051DF502EF02E49DFC0910269D09103698E
:1005F000C60FD71F47DF003031F00130F1F0023075
:1006000069F0E4E029CFFDD008945208A0F02AD187
:10061000E5E0C8F037DF802F0ED1F6CF2EDF660F72
:10062000771F660F771F660F771F660F771F609320
:1006300002697093036903D0CECF5AD100C022DF84
:10064000F21411F0E6E008CF0895BBD0CAE2D3E07F
:1006500049D04EC0A8950895C487D5870895C9305C
:1006600008F0C9E0DCE0CD9FE001CA5DD547089500
:10067000F6DFADC0C083D183C48BD58BCA0FDB1F1F
:10068000C283D3830895A68FA895C28FD38FD5D068
:1006900020F0C28DD38D2197B9F70895AA27BB27E3
:1006A000C48FD58FEC8FFD8FA895A28FB38FC48D8B
:1006B000D58DFE01B2D048F0C48DD58DFE01BCD0E1
:1006C00020F0A28DB38D119779F708958FEF79D02F
:1006D000868FA895B2D0E8F70CC1FADFFFCF71D0B2
:1006E000C5ECD4E0C68BD78B08956BD0CEECD4E0AC
:1006F000C08FD18F089565D081D00ED018D025C27B
:1007000060D07CD009D013D022C25BD0F5DF028448
:100710001384C015D1050895C489D5890895C48965
:10072000D58900801180C019D10908954AD0A281CD
:10073000B38104881588A019B109089542D0C081F9
:10074000D18108953ED0C281D38108953AD00080EE
:100750001180C281D381C019D10909F021960024EA
:10076000021C08957CDFFE0100801180C281D381CC
:10077000F2CF0C2EC2E3DAE81884101419F02C968C
:10078000C239D1F70895DCE0CD9FE001CA5DD547BD
:100790000895CE01C2E3DAE808801980801591053A
:1007A00030F00A801B808015910531F028F02C96DE
:1007B000C23991F70894089588940895A0E0B1E7AC
:1007C0000895E8E2F9E60895FCDFA487B5878CE098
:1007D000099001928A95E1F73C97C481D5812197D0
:1007E000C095D095C28BD38BC081D181C687D78766
:1007F000C08BD18B278E02D07EC0E3DFC081D18138
:1008000001C0DFDFC48BD58B089584819581A685D7
:10081000B785C485D5850895D4DF25D038F0C4893F
:10082000D58950D020F08991C48BD58B089521961D
:100830008FEF0894F9CFC5DF868F15D090F053D095
:10084000C481D5812197A489B589CA23DB23119658
:10085000A48BB58BA485B585CA0FDB1F868D8883D5
:1008600088940895AEDF04881080011405881180F3
:10087000010440F0048812800114058813800104EB
:1008800019F010F008940895889408959ADFC489A7
:10089000D589A685B785CA17DB0730F0A089B1894D
:1008A000CA17DB0719F010F008940895889408958A
:1008B00088DFC685D78506D0A78DAE7F08F4A160F6
:1008C000A78F0895C034B0E1DB0748F0D63148F077
:1008D000D03628F0D03828F0D03908F002C008947B
:1008E000089588940895D3DF10F403D004D00895B8
:1008F00068DF2BD026C0C489D58902881388C0211F
:10090000D121C687D78784819581C80FD91F2197A8
:10091000C08BD18BCEDF40F0A685B785C485D58549
:100920000D9009920197E1F70895078C00FC07C02C
:100930006CDF09901D90011419F40197D1F71894F8
:100940000895F3DF09F06BCC0895078C00FC08953F
:100950005CDF09901D90102001105ACC0197C9F757
:10096000089590E0809102108370E1F78DE984BFD3
:1009700090930010089506880F9207880F920895AB
:10098000008C0F92018C0F9208952860AD9AFF930E
:10099000F4E6A0DDFA95E9F7FF910895277F9ACD57
:1009A000C2E066DE80E180930110B0DE209201108B
:1009B000089507DFEF01DFDF2BD069F09BE0D2DF86
:1009C000E895CFDF92E0CEDF00801180E895329687
:1009D000F03AD1F7C6DFFE01D3CF02D012CCF1DE60
:1009E000FF93EF93C8DFDCDF81F412D071F09491B4
:1009F0009F3F59F09BE0B6DF0082B3DF92E0B2DFA9
:100A000004900192F03AE1F7ACDFEF91FF91B8CF9B
:100A1000E0E0F0E994918191891711F4F03AD1F76F
:100A2000E0E0F0E908950000FFFF010000002D0064
:100A3000000000A0FFFF0002080266015FD10090E5
:100A4000FF9F0002080262025BD10014FF15010043
:100A5000181265035ED180109F1020000802630405
:100A60005CD100111F11010000007305000050103F
:100A7000581001000000750600000060FF670002CA
:100A8000000061075AD140104F10010000006C08AF
:100A9000000000110011010000002D09000035DEEA
:100AA000A0930469B0930569C0930669D093076960
:100AB0000895F5DF06C0E0E1E0930110F0DF209239
:100AC0000110EEEC09F4E4ED0ED0909107698091ED
:100AD00006691CDD909105698091046917DD02C0EB
:100AE000EEEC01C0EAEDFDE00591002311F027DDF9
:100AF000FBCF08950FDD81DEF3DF63DE8489958906
:100B000000E1080F090FF02EE0E925DD85DE38F061
:100B1000082FF00EEDDC55DE04890F70B9F7E0DF29
:100B2000F1940F2DE5DC9EDE40F7089566DECEDD04
:100B3000DFCE05D00091316900930069089519DE78
:100B40003DDE42CE20DE3ADE3FCEE89404C068941B
:100B5000CA0FDB1F00C0EF93FF936FEF7FEFCB0156
:100B6000FF27A8950EF019900EF41A900894179488
:100B7000062E0F1E969587957795679500FE08C0FF
:100B8000EDEE9E27E8EB8E27E3E87E27E0E26E2776
:100B9000169471F7119728F7909580957095609548
:100BA0000E01DB01EC018623872389238095FF91C9
:100BB000EF910895FFFFFFFFFFFFFFFFFFFFFFFF24
:100D0000A1811B5B34316D2E2E2E5B524553455411
:100D10002D885DA11B5B34346D2E2E2E5B524F4D02
:100D20002E4D4F422E4431355D00A1814944205B58
:100D3000905D814C3A208708523A201B5B33326D1C
:100D40004431355230303031A1533A208705553A7D
:100D500020870681413A208707423A20C702433A5A
:100D6000208704453A208703463A20870181524F65
:100D70004D205B527C537C645D202D205B617C6246
:100D80007C637C657C667C6C7C737C755D3E20003E
:100D9000813A31301B5B39346DA81B5B39306D30C3
:100DA00030A0000081811B5B34356D2E2E2E5B45FB
:100DB00072726F722023885DA0202D203C627265C4
:100DC000616B3E20746F20726573756D65001B5BEF
:100DD00039306D001B5B33326D001B5B6D00A181F0
:100DE0001B5B34346D5B532D3E5D0000A1811B5BAA
:100DF00034346D5B3C2D525D0000FFFFFFFFFFFFB1
:100E0000ACAAA9A5A3A69C9A999593968E8D8BB111
:100E1000B2B4B874726C6A696563665C5A595553AA
:100E2000564E4D4B4771E8E4E2D1C9C5D8D4D2CA79
:100E3000C6CC78171B1D1E2E363A272B2D3539337D
:100E40001ED00ED01CD00CC00BD019D009C017D0AA
:100E500007D015C005D0E991EF73E081ED930895B7
:100E6000E991EF70F881FF0FEE1FFF0FEE1FFEE814
:100E7000E081ED93E991EF73E081ED930895FEE851
:100E8000E881E695E695E081ED93E991E370E295DE
:100E9000F881F07FF295EF2BFEE8E081ED93089565
:100EA000FEE8E881E081ED930895FFFFFFFFFFFF7B
:100F0000005EBCE2613FDD83C29C7E20A3FD1F41E9
:100F10009DC3217FFCA2401E5F01E3BD3E6082DCD9
:100F2000237D9FC1421CFEA0E1BF5D0380DE3C62C9
:100F3000BEE0025CDF81633D7C22C09E1D43A1FFB9
:100F40004618FAA427799BC584DA3866E5BB5907A9
:100F5000DB856739BAE406581947A5FB7826C49A99
:100F6000653BD987045AB8E6A7F91B45C6987A2489
:100F7000F8A6441A99C7257B3A6486D85B05E7B979
:100F80008CD2306EEDB3510F4E10F2AC2F7193CD69
:100F9000114FADF3702ECC92D38D6F31B2EC0E5059
:100FA000AFF1134DCE90722C6D33D18F0C52B0EE49
:100FB000326C8ED0530DEFB1F0AE4C1291CF2D7339
:100FC000CA947628ABF517490856B4EA6937D58B29
:100FD0005709EBB536688AD495CB2977F4AA481619
:100FE000E9B7550B88D6346A2B7597C94A14F6A809
:100FF000742AC896154BA9F7B6E80A54D7896B35F9
:1010000087C0FFCFFFC7FFCFFFC7FFCFFFC7FFCF0F
:10101000FFC7FFCFFFC7FFCFFFC7FFCFFFC7FFCF80
:10102000FFC7FFCFFFC7FFCFFFC7FFCFFFC7FFCF70
:10103000FFC7FFCFFFC7FFCFFFC7FFCFFFC7FFCF60
:10104000FFC7FFCFFFC7FFCFFFC7FFCFFFC7FFCF50
:10105000FFC7FFCFFFC7FFCFFFC7FFCFFFC7FFCF40
:10106000FFC7FFCFFFC7FFCFFFC7FFCFFFC7FFCF30
:10107000FFC7FFCFFFC7FFCFFFC7FFCFFFC7FFCF20
:10108000FFC7FFCFFFC7FFCFFFC7FFCFFFC7FFCF10
:10109000FFC7FFCFFFC7FFCFFFC7FFCFFFC7FFCF00
:1010A000FFC7FFCFFFC7FFCFFFC7FFCFFFC7FFCFF0
:1010B000FFC7FFCFFFC7FFCFFFC7FFCFFFC7FFCFE0
:1010C000FFC7FFCFFFC7FFCFFFC7FFCFFFC7FFCFD0
:1010D000FFC7FFCFFFC7FFCFFFC7FFCFFFC7FFCFC0
:1010E000FFC7FFCFFFC7FFCFFFC7FFCFFFC7FFCFB0
:1010F000FFC7FFCFFFC7FFCFFFC7FFCFFFC7FFCFA0
:1011000001005BD101000000444444447B201DF1F8
:10111000A895F8942224E8EDE4BF20921001E8EDB0
:10112000F1E0E4BFF0936200EFE1F9E6EDBFFEBF4E
:101130004F98479AAC9AA49AE0E4F8E02682A0E897
:10114000B1E0A087B1872582A3E0A783A0E4A683AE
:10115000A9E0A093000A2092200A2092210AA1E08F
:10116000A093000B2092010BAFEFA0930C0BA09368
:101170000D0B209252042092B3044298A398E5D319
:10118000A895E8EDE4BFE7E0E093000104D406D4BD
:101190009AD36ED4B3D380911B688211B4D3EFB3CA
:1011A000E0931C68E0911B68E21105C0E0911168B2
:1011B000E2113EC200C0C0E0D8E610D3F993E99333
:1011C0000FD3F993E9931AD3E4E0F8E6D193C193EE
:1011D000B193A19320924E69AF77A160A0934F691C
:1011E000A6D2A0910091B0910191B883A983A0915A
:1011F00000A1B09101A1BA83AB832C829BD2A091B4
:101200000091B0910191B883A9832A822B822C820C
:1012100021E066C180E50DD48D814DD123E067C208
:10122000D6D184E406D48E8180930A688F8180931E
:101230000B688885809308688985809309688A850A
:101240003AD127E058C2C8D180E7F3D327E05BC288
:10125000C3D181E4EED3888580930C68898580931F
:101260000D688A8582FDEAD183708093116828E039
:101270004DD2809111688211D4D132C190913469DC
:10128000953011F0983011F4EA8116C0973011F0C2
:101290009A3019F4A6D1EC810FC0993011F09C302E
:1012A00019F495D1EE8108C09B3011F09E3019F4ED
:1012B00093D1E88501C00FC1E93068F4F0E0EE5940
:1012C000F64F0994E0C0E0C0E1C0E1C0E0C0DFC07B
:1012D000E1C0E2C0E7C004C184D182E4AAD38C811A
:1012E00080939D6B38854985823011F430FDF8C0BC
:1012F00028E1E19A30FD0DD230FF0ED2C7E0EDE7D4
:10130000FBE6A8D2C0919D6BCCD1A4D2D1D08E8166
:101310009F81C0D1EDEEDE2EE8EBCE2EE3E8BE2EAF
:10132000E0E2AE2EEFEF9E2E8E2E7E2E6E2E9FD101
:10133000D7C057D183E47DD30C8009140D800804F5
:101340000E8007040F80060428E211F428E48FD1F0
:10135000BCC147D182E56DD328E794D1BDC141D14D
:1013600084E567D328E5B8C13CD185E462D328E0A1
:101370003E7F4427AAC135D186E45BD392D19091B8
:101380003469963019F08C8130FD6CD230FD6ED20C
:10139000A7C030FD9AC090913469933009F405C01C
:1013A000953011F41ED101C096C082E742D379D1A5
:1013B0003BD28093466911D037D2809347690DD0D4
:1013C00033D28093486909D02FD28093496905D0E0
:1013D0009295909590934A69BAC1991F90FD08958E
:1013E0000894879561D18695E9F7089530FF6DC01F
:1013F00090913469933009F422C0953011F4F1D002
:101400001EC09B3011F4229606C09D3019F4E9D01D
:10141000249601C060C087E70CD378E069910894F6
:10142000679542D16695E9F77A95C1F7A8E0B0E0F3
:101430002897EDE7FBE610D2A8E0B0E01BC0A8D0EB
:1014400081F478F0A0E0B2E760E8A2D011F4E8F708
:1014500048F08FB729D18FBF6795B8F76D93A13842
:1014600098F33EC0A050B247C0E0D2E7EDE7FBE6FC
:10147000F3D100C0CDE7DBE614D130FDF1D130FD72
:10148000FBD12EC02DC03CC13AD1F4C139C137D1F6
:10149000C8D026C034D124C09E3009F021C02FD13D
:1014A000F7D11EC09E3009F01BC029D1EFD118C062
:1014B000C4E2D9E6089590910A0B8923821110C0E5
:1014C000089584E40CC082E50AC08DE408C083E47A
:1014D00006C085E404C08CE402C084E500C0A9D243
:1014E000EFE1F9E6EDBFFEBF4FD289D2AED02CBA04
:1014F0006AE04ED01130A1F76A95D9F749D081F74B
:10150000E8F3913808F43094D3DF7727EE2761E0D1
:101510003FD019F7661FE0F769937627C233D8F6F4
:1015200037D0D9F620F0E627FFE8E081F0CF8EE251
:1015300080D27211CECFE09335693D7FE2113260E7
:10154000C452C0933469C0912369C395C093236981
:1015500009F49ECFADDFE881ED3F11F620922369BB
:101560006981603F08F4BCCF6F70E6E9F7E9660F68
:10157000660FE60FF21D0190022209F4A6CF01903A
:1015800000FE02C031FDA3CF01901080F00109944C
:10159000A89511270AB0032402FEFCCF9091200ADF
:1015A0002092200A2092210A0AB0032402FCFCCFD8
:1015B0008091200A2092200A2092210A8D31111F49
:1015C000813810FD8F30111F012E06940895E0E040
:1015D000F8E684E01DD00CC0E4E0F8E686E018D020
:1015E00007C00FD029F00AD019F005D009F00CD0AF
:1015F000821176CF0895EAE0F8E609C0E8E0F8E65F
:1016000006C0ECE0F8E603C0EEE0F8E600C082E0D9
:10161000DE01129601901D90011411F48A95D1F704
:101620000895C1E060D1CF3511F4D13D09F008959E
:10163000E6D1E09105A1E0FD01D0E2C4E8EDE09340
:101640003400E5E8E09301100895E091060BE0FF17
:101650000895E093060BE0912269E395E0932269F7
:10166000E6FF01C002C071D182C171D184C117D01F
:101670000E011EDF6A8A7B8A8C8A9D8A0F8A188EE9
:10168000298E089515DF6A887B888C889D888F89CC
:10169000988D00C006D0C4D0C80FD91FBBC001D0E0
:1016A000F1C0EDE5FBE6089530F0969487947794C9
:1016B000679430F009C0969487947794679420F0EB
:1016C0009D248C247B246A24089537D098828982B3
:1016D0007A826B822C823CC0E2DFDE0180919D6BBE
:1016E0002CD088832982BA83AB832C8231C0E0E07E
:1016F000F8E690E028C0E4E0F8E690E024C0E19A43
:10170000C8E5D9E625C0CEE4D9E622C0E19A0FD0DB
:101710001FC0C6EDD7E91CC0C0919D6BB1D0DE01E2
:101720000CD00882B983AA832B822C8211C0C3E516
:10173000D9E60895C8E5D9E60895C6E4D9E608953E
:10174000AEE3B9E60895F9DF84E0B4D09883F5DF1D
:10175000F7DFA4D000C097E712D09AEA10D0F0DFEC
:1017600086E09091440895FFFCCF9D9190934208AC
:101770008A95B9F78AE25DD1E19BB2CE08950090D7
:10178000200A0916E0F32092200A2092210A529B97
:10179000B39999CE089501010A09020110090401C3
:1017A0002309040128090000420A0000420A00003F
:1017B000420AFF013E0908016C09700199092001E4
:1017C000A9094001AF091001B4091001BB091000BB
:1017D000C9091000F60902003214FFFF0C9408003A
:1017E0000C9409000C940A000C940B000C940C004F
:1017F0000C940D000C940E000C940F000C9410002F
:101800000C9411000C9412000C9413000C9414000E
:101810000C9415000C9416000C9417000C941800EE
:101820000C9419000C941A000C941B000C941C00CE
:101830000C941D000C941E000C941F000C942000AE
:101840000C9421000C9422000C9423000C9424008E
:101850000C9425000C9426000C9427000C9428006E
:101860000C9429000C942A000C942B000C942C004E
:101870000C942D000C942E000C942F000C9430002E
:101880000C9431000C9432000C9433000C9434000E
:101890000C9435000C9436000C9437000C943800EE
:1018A0000C9439000C943A000C943B000C943C00CE
:1018B0000C943D00019009928A95E1F708952992D0
:1018C0008A95E9F70895EDE7FBE60E94260CCDE541
:1018D000D9E60E94280CEDE5FBE60E94260CCDE53A
:1018E000D9E60C94280CEDE7FBE60E942A0C0C9438
:1018F0001A0CC0E0D8E6A6E1B0E00EC0C0E0D8E621
:10190000AAE1B0E014C0C0E0D8E680E0D8DF00C0B3
:10191000EFEFE0931B6808956DDFF001A095B0959F
:10192000C095D095A083B183C283D383089562DF2D
:10193000F00180830895E2E0F2E000C0EF23F0952B
:10194000009020690F22E02904C0E0E002C0EFEF20
:1019500000C0E093206900C0E09120690C94F80B6E
:10196000EF23F095009021690F22E02906C0E0E006
:1019700004C0E5E502C0EFEF00C0E093216900C0BC
:10198000E09121690C94F60BB69904C0E5E5119B32
:101990000C94240C07C0442455240895AD98089550
:1019A000AD9A0895E0910408E7FF0895E0910008DA
:1019B000E0930070089502D08CE23BC001D003C0D8
:1019C0008F93829501C08F938F70805D8A3308F06A
:1019D000895F2FD08F9108958AE02BD08DE029C0A8
:1019E0000F01451451F0F0910408F5FF06C0F1E72E
:1019F000E52DF081F09302085394F0010895451409
:101A000059F0F0910408F5FFFACFF1E7E52DF081E8
:101A1000F09302085394F3CF0895C42DD1E70190B9
:101A2000002029F00882C395C511F9CFCA954C2E24
:101A3000D8CF0F01F201FA95EF1719F0F1E7808383
:101A40004394CFCF8F938E2FF201FA95EF1719F0B1
:101A5000F1E7808343948F9108958991ACDF9A9543
:101A6000E1F708958991821188130895E2DFFACF92
:101A7000C4E8DAE9F7DF80911C68A0DFC4E9DAE99D
:101A8000F1DFBDCF0A0D1B5B34346D2E2E2E5B4271
:101A90004C442D005D1B5B6D0A0D0000C4EADAE9C1
:101AA000E1DFADCF0A0D1B5B34336D2E2E2E5B555F
:101AB00050445D1B5B6D0A0D0000CCECDAE9D2DF0F
:101AC000C0E0D8E690E1C9DF87DF99CF0A0D1B5B44
:101AD00034326D2E2E2E5B4150505D1B5B6D202DE0
:101AE0002000FFFFFFFFFFFFFFFFFFFFFFFFFFFFE4
:1020000055C1FFCF81E084C082E082C083E080C000
:10201000F0D0F3C085E07CC086E07AC087E078C06D
:1020200088E076C089E074C08AE072C08BE070C03E
:1020300071C000008BD09DC08EE06AC08FE068C088
:1020400080E166C081E164C082E162C083E160C07A
:1020500084E15EC085E15CC086E15AC087E158C07A
:10206000CEC0000089E154C08AE152C08BE150C06B
:102070008CE14EC08DE14CC08EE14AC0F9C0000039
:1020800002C1000081E244C082E242C0EBC0000015
:1020900084E23EC085E23CC086E23AC087E238C0B6
:1020A00088E236C089E234C08AE232C08BE230C0B6
:1020B0008CE22EC08DE22CC08EE22AC08FE228C0B6
:1020C00080E326C081E324C082E322C083E320C0F2
:1020D00084E31EC085E31CC086E31AC087E318C0F2
:1020E00088E316C089E314C08AE312C08BE310C0F2
:1020F0008CE30EC08DE30CC08EE30AC08FE308C0F2
:1021000001005FD1020100004444444481578BEC3C
:10211000C4D2FFCF0FB73F014001E091686AE39559
:10212000ED3008F0EE27E093686AF0E0E756FF4EE6
:1021300009940AC315C31BC34BC3CEC3D1C3D4C3B5
:10214000D7C3DAC3DDC3E0C3E3C3E6C3E89B08C07B
:10215000E89820921301C0924208CF90CF90189532
:10216000209252010091160B0093160B2092150B32
:102170001895FF93EF93EFB7EF93DF93CF93BF9350
:10218000AF93F894E0911C0BF0911D0B7894A09103
:10219000E469B091E569E093E469F093E569EA1BCD
:1021A000E093E669FB0BF093E7696894B2E0E037EF
:1021B000FB0708F4ED9AB2E0E43FFB0730F0E89447
:1021C000B4E0E833FB0708F4ED9AF1E4E091FF692D
:1021D000E21104C05299F061E3E003C0B399F061E9
:1021E000E5E0E0934102F093140BE091E869FAE135
:1021F000099401E00093530118950C940A213F01C2
:10220000E091536AF091546A009110060193009195
:1022100011060083E091556AF091566A019100938E
:102220000C060191009308060191009309060191A3
:102230000093000601910093010601910093A00014
:1022400001910093536A01910093546A01910093A4
:102250000B06019100930A06E093556AF093566AC3
:10226000F30118950FB72092031021600FBF189546
:102270003F0100912008E0916E6AF5E70193E09339
:102280006E6AF30118953F01E0916F6AF091706AF0
:10229000EF1304C0E0E8E093250806C0F6E70191DB
:1022A00000932208E0936F6AF3011895A895F894BB
:1022B00022242DBAE8EDE0933400E5E8E093011024
:1022C000EFE1F9E6EDBFFEBFE0E0F9E6C0EADBE0F2
:1022D00021922197E9F720920508A2E4A093120227
:1022E000ABE4A0931402A3E0A0934102A8E0A09362
:1022F0001604A4E0A0937104A0937704A093720441
:102300000D98059A0C98049A0B9A0398A998A19A8B
:102310000698629869986F9861986798E0E0FBE08A
:102320002082218222862386A0EEBEE22486B58703
:10233000A1E0A683A1E0A583A3E0A083E0E1FBE008
:102340002082A2E0A183A1E4A483A1E0A683A583C7
:10235000A3E0A083A3E0A0932002A5E0A093210224
:10236000E1E0E093C001E3E4E093C901EEEEE09325
:10237000CB01E1E0E093C801A0E1A0931102E0E805
:10238000FBE0A2E0A0934902A0934A02A4E0A08B44
:10239000A18BA1E8A087A187E0E8FBE0B8EDA0E071
:1023A000A183A0E0A283A3E3B0933400A28BAFEF9C
:1023B000A2A723A6A6A727A6A0A7A1A7A4A7A5A7CB
:1023C000A685A0FFFDCFA1E0B0933400A083A0912B
:1023D0005101A0FDFCCFA9E1A0935001A1E0A09381
:1023E0005301A0935201E0E0F6E0A1E1A083A0E058
:1023F000A183ABE0A283A0E0A383A0E0A483A2E03A
:10240000A0930506A7E0A087A1E0A1870F98079AEF
:10241000A8E0A0935004A0935104A0935704E0E2D5
:10242000F8E02682A5E8B6E0A087B187A0E0A58302
:10243000A3E0A783A2ECA68347984F9A479A489AAD
:10244000409A0E947A23E8EDE4BFE8E0E0930001BF
:102450000E94021C0E94E9190E94CA220E94CD22F9
:102460000E94CD1E0E94FD1D4CD1ECD373D50E945D
:10247000EB1F0E9480200E94271F0E945C23E1E046
:10248000E0931168E0911068E395E09310684ED3F3
:102490000C9499200895A881A3700E94801EB98190
:1024A0000E943B1EEA2FC5C6AA81B9810E94811EE7
:1024B000E881E370E093F46ABB810E943B1EA09325
:1024C000F56AB3950E943B1EA093F66AB3950E94ED
:1024D0003B1EA093F76AB3950E943B1EA093F86A37
:1024E000C4EFDAE6A8C679F40E94D21EE53058F0AF
:1024F000A881A3700E94801EB981AA810E943E1EFD
:102500002160EA2F96C6ABC691C6E9F70E94D21E9B
:10251000E131C8F3B981AA810E94811EE4EFFAE695
:10252000A881A370A083AC81A183BD81B283BE8149
:10253000B383BF81B483BB810E943E1EA093F56A22
:10254000B395A091F66A0E943E1EA093F66AB395D9
:10255000A091F76A0E943E1EA093F76AB395A091DE
:10256000F86A0E943E1EA093F86A2160C4EFDAE682
:1025700062C60C9408000C9409000C940A000C9498
:102580000B000C940C000C940D000C940E000C9499
:102590000F000C9410000C9411000C9412000C9479
:1025A00013000C9414000C9415000C9416000C9459
:1025B00017000C9418000C9419000C941A000C9439
:1025C0001B000C941C000C941D000C941E000C9419
:1025D0001F000C9420000C9421000C9422000C94F9
:1025E00023000C9424000C9425000C9426000C94D9
:1025F00027000C9428000C9429000C942A000C94B9
:102600002B000C942C000C942D000C942E000C9498
:102610002F000C9430000C9431000C9432000C9478
:1026200033000C9434000C9435000C9436000C9458
:1026300037000C9438000C9439000C943A000C9438
:102640003B000C943C000C943D00E0E003C0E0E152
:1026500001C0EFEFE095E4990AC0E093A80B209247
:10266000A90BEFEFE093AC0BE093AD0B09C0E09347
:10267000AC0B2092AD0BEFEFE093A80BE093A90B0E
:10268000EFEFE093AA0B2092AB0BE093AE0B2092FE
:10269000AF0BE1E0E093840B089500240A94E0E896
:1026A000FBE000A601A604A605A6EACF0024E0E808
:1026B000FBE000A601A604A605A6E2CFE0912F70DC
:1026C000E1FF03C000C0E0E001C0E1E8E093880B57
:1026D000E093890B0895E1E0F2E02092A80B2092AC
:1026E000A90B2092AC0BE093AD0B2092AA0BE093C8
:1026F000AB0B2092AE0BF093AF0BE1E0E093840BB9
:102700000895AF9AA79AE0912268E211EE13E4EDE2
:10271000E09322680E945E132CBAE0E000C0FE2F16
:10272000FF7721F0EA9509F4E29A09F0E298E09344
:102730005C6A0895E0910870E09321680895E09143
:102740005C6AE078ECCF08952092686AA6DFE09199
:102750000770FCE0EF9FE0E5F7E0E00DF11DE0C061
:10276000E1996198E19B6798E0EBF4E0D9C061984A
:102770006798E39928C0E091696AF3E700906A6A74
:1027800010906B6AF0810F1A1208F091586A0F0EC0
:10279000121C00926A6A10926B6A0F2EF3E7019284
:1027A000E093696A20920506E19904C0E19AE2E3A8
:1027B000F7EC03C0E198E2E6F7EC00902F7002FC22
:1027C0007896EAD102C02092686AE0ECF3E0A8C0F3
:1027D000619A679AE091626AF091636AF7FF05C0B7
:1027E000F095E195FF4FF7FDFFE7EE0FFF1FEE0FAE
:1027F000F21D08F4FFEFF093596AE0910470E09540
:10280000E6950E2E0694E00D0694E00DE05FEF9F36
:10281000F001EE0FFF1F08F4FFEFFF2321F4E0911A
:10282000596AE211F1E0F093586AE0915A6AEE2396
:1028300021F0FE1769F068F022C02092586A2092B9
:10284000596AEFEFE093686A00DFE0ECFDE568C0ED
:102850007BCFE091576AF0913270EF1720F4E39547
:10286000E093576A71CF00905A6A10906B6AE0E06B
:10287000101410F4E0913170E0935E6A29C0E09189
:10288000576AE211EA95E093576A5ECFF0915A6A6F
:10289000EF0F08F4EFEFF0915E6AEF0F08F4EFEF3F
:1028A000F0912268EF9FE12DE03F08F0EFEFD2CEEC
:1028B000F091606AF695F695F45F07C0F0915A6A58
:1028C000F695F695F45F01C0FCE0EF9FF00128C09B
:1028D000E9E9DCDFE4E6F8CFE5EAD8DFE8E7F4CFC2
:1028E000E2EBD4DFECE8F0CFEFEBD0DFE0EAECCFC7
:1028F000ECECCCDFE4EBE8CFE8EDC8DFE8ECD8CFD8
:10290000E5EEC4DFE8ECDACFE5EEC0DFE4EBD6CFEE
:10291000ECECBCDFE8E7D8CFE2EBB8DFE4E6D4CFFD
:10292000E0930C0BF0930D0BE1E0E093060B040138
:10293000F3010FBF1895E09B80913870E09980916A
:102940003A70E09B90913770E09990913970E091E6
:102950002F70E0FF04C0E091B26AE1FD38C0E09161
:102960005A6AEE23A1F1E8528058E802000C111CCB
:10297000812D8058E091596AE99FF001E89FE001BC
:10298000F89F0D0E121CCC0F001C111C80E0881F3C
:10299000E0911D68F0911E68C0911F68D091206879
:1029A0000092EF6A1092F06AE09B05C0E019F1090D
:1029B000C80BD20904C0E00DF11DC81FD21DE09361
:1029C0001D68F0931E68C0931F68D0932068E09143
:1029D000606AF0913070EF1BE093606AC0915D6AAD
:1029E000E0915B6AF0915C6ACF01982797FDF078DF
:1029F000CF018F779F77E299CC27891721F4903008
:102A000089F0891769F030F0C150F0F4C09103707B
:102A1000EA9509C0C150C0F4C0910270E39503C0AB
:102A2000CC2701C0EF2FE7FFE09AE7FDE098E093A5
:102A30005B6AEF77E0935A6AE099E498E09BE49A46
:102A4000E099E598E09BE59AC0935D6A0895E0916E
:102A50002168E211EA95E0932168E211EE136FDE3E
:102A6000E0910470E195E03408F4E0E4E03C08F023
:102A7000E0ECE093616AE0915A6AF0916B6AFE17AC
:102A8000E091226830F0F0913370EF1730F0EA9562
:102A900002C0E39511F0E093226808950190099235
:102AA0008A95E1F7089529928A95E9F70895799F23
:102AB000E001689FD001699FB00DC11DD21D789FB4
:102AC000B00DC11DD21D089580E404C080E202C093
:102AD00080E100C0C083D183828323822482258247
:102AE000E2CF0DD007C00BD003C009D0AA0FBB1F87
:102AF000AA0FBB1FAA0FBB1FAA0FBB1F0895B3814C
:102B0000A081AB0FB181B21DDC91CC93A481B581C2
:102B1000AD1BB209AC0FB21DA483B583C281D381B2
:102B2000D395DC1708F0DD27D3830895C0E0D8E6FD
:102B3000A6E1B0E00EC0C0E0D8E6AAE1B0E014C063
:102B4000C0E0D8E680E0AFDF00C0EFEFE0931B68A5
:102B500008951BDDF001A095B095C095D095A08398
:102B6000B183C283D383089510DDF001808308957B
:102B7000E091536AF091546AEF2B0895CF93C0917E
:102B8000536AC21106C0C091546AC21102C0CF91EB
:102B900003C0CF9188940895CF93C2E0C0930A06F2
:102BA000C1E0C0930D06C191C0930006C191C093CE
:102BB0000206C191C0930306C191C0930406C1915E
:102BC000C0930C06C191C0930806C191C093090639
:102BD000C191C0930006C191C0930106C191C093F9
:102BE000A000C191C093536AC191C093546AC1912E
:102BF000C0930B06C191C0930A06E093556AF09307
:102C0000566ACF910894089576956795769567955D
:102C10007695679576956795809106119091071145
:102C2000861B970B609104117091051140DFC695CA
:102C3000B795C695B795C695B795C695B7957C2FA8
:102C40006B2F0895E5EDFAE6C0E0D4E73FDFE9EC4D
:102C5000FAE6C0E2D4E73ADFEFECFAE6C0E4D4E704
:102C600035DFEBEDFAE6C0E6D4E730CF80911368AC
:102C7000FFE0E0E080FF0AC0E59BE160E599E260EB
:102C800081FF04C0E599E460E59BE8600E9485232C
:102C90000895F894E0912A6A20922A6A7894E030A4
:102CA00009F40895EB3208F0F5CBC091286AD9E613
:102CB000E25AF0E0F94E09950C948A16EBCBEACB78
:102CC00097C09FC0E7CBE6CBE5CBE4CBE3CBC7C057
:102CD000D4C0E6C0F1C000C1DDCBDCCBDBCBDACBAE
:102CE000D9CBD8CBD7CBD6CBD5CBD4CBD3CBD2CBE0
:102CF000D1CBD0CBCFCBCECBCDCBCCCBCBCBCACB10
:102D0000C9CBC8CBC7CBC6CBC5CBC4CBC3CBC2CB3F
:102D100003C10895A895F8946091FD6A7091FE6AC8
:102D2000789472DFEB01CF5DD040E5EDFAE6DBDEB3
:102D3000B093F16AC091F96ACC0FC091FA6ACC1FC6
:102D400008F4CC27E9ECFAE6CEDEB093006BC09134
:102D5000FB6ACC0FC091FC6ACC1F08F4CC27EFECC7
:102D6000FAE6C1DEB093016BA091006BAB0FA795A3
:102D7000A093006AA25308F4A0E0A093F26AC09165
:102D8000646AD091656AD695C795D695C795D6954C
:102D9000C795D695C795EBEDFAE6A5DEB093026B25
:102DA00080911A70A0913470B091026BBA1708F03C
:102DB0008160A0913570B091F16ABA1708F0846013
:102DC000A0913670B091F26ABA1708F088608093CB
:102DD0001A700895E091FF69E03039F0E2E9F7EC0C
:102DE000CDCEE091FF69E030C9F3EAEAF7ECC6CE58
:102DF000A1DC89819091126880931268891396DE14
:102E0000ABC098DC8981F091126880931268F82732
:102E10008A8190911368809313688927F82BE09139
:102E20002B6AE530C8F08B81909114688093146808
:102E30008927F82BE63080F08C819091156880937B
:102E400015688927F82BE73038F08D819091166846
:102E5000809316688927F82BF21168DE7BC0FF2764
:102E6000888184FB880F80F990911368EFE14DD041
:102E700080931368F2115ADE73C0FF278881909106
:102E800013683AD0809313688881880F8295909157
:102E90001468E1E03AD080931468F21147DE60C014
:102EA000FF278881880F90911468EEE12ED08093DF
:102EB0001468F2113BDE54C0FF2789819091146899
:102EC0001BD08093146889819091156819D08093E4
:102ED0001568F2112BDE44C0FF2789819091156897
:102EE0000BD08093156889819091166809D08093E2
:102EF0001668F2111BDE34C08295880FE0EE05C023
:102F0000869586958695EFE100C08E23E095E923AE
:102F10008E2B9827F92B0895E881E93068F4F0E0CA
:102F2000ED56F84E099409C00BC00BC00AC009C089
:102F300008C0089508950895089580E50C94182315
:102F400064CBE559E0931168F1DDE0911168E1305F
:102F5000B9F7089501D004C0E09112680C948F1362
:102F60008091136884FF08C020921D6820921E681B
:102F700020921F682092206885FF08C0E0911C778E
:102F8000E0932C68E0911E77E0932B6880911468A1
:102F900008958F93E9E1FAE6A0912B6A8A2F8C0FAE
:102FA000B081A193BA17A081B991BA07B1938C13DC
:102FB000FACFC091286A8F910895E3E2AAC0EB99F5
:102FC000FCCFE881E03011F0ECE1A3C0EB99F5CF44
:102FD000EDE19FC0EB99F1CF29D1E1E09AC0EB99E7
:102FE000ECCF3DD1E2E095C0EB99E7CF1FD1E3E014
:102FF00090C0EB99E2CF1AD1E4E08BC0EB99DDCF22
:1030000015D1EFE186C0EB99D8CF0DD1E0E281C0B8
:10301000EB99D3CF0BD1E1E27CC0EB99CECFE5E0C9
:1030200078C0EB99CACFE6E074C0EB99C6CFFED06A
:10303000E7E06FC0EB99C1CFF9D0E8E06AC0EB9947
:10304000BCCF0DD1E9E065C0EB99B7CF08D1EAE07C
:1030500060C0EB99B2CF03D1EBE05BC0EB99ADCF91
:10306000FED0ECE056C0EB99A8CFF9D0EDE051C00E
:10307000EB99A3CFF4D0EEE04CC0EB999ECFEFD00C
:10308000EFE047C0EB9999CFEAD0E0E142C0EB997D
:1030900094CFE5D0E1E13DC0EB998FCFE0D0E2E104
:1030A00038C0EB998ACFE3E134C0EB9986CFE4E1F5
:1030B00030C0BCD0E5E12DC0E0912B6AE43011F0C6
:1030C00058F41CC0E881E3FD03C0E5D9E6E121C066
:1030D00060DF09DAE7E11DC0E881FE2FE370F3FD50
:1030E00005C0F2FF07C0E0D9E8E113C052DF0DDAF6
:1030F000E9E10FC0EB9961CFEBE10BC0EB995DCF3C
:10310000E2E207C0EB9959CF91D0EEE102C0EAE1CB
:1031100000C0E0932A6AE091EE69E093296A206298
:103120000895E0912B6AE350EB30C0F4E0932B6AF2
:10313000F0E0E155F74E099589F4E0912B6AA4E798
:10314000B1EBAE0FB21DBC91CB0FAE2FAB1BA0935A
:103150002B6AC093286A7ED0EAE2DBCF2ECF12C062
:103160000FC010C020C00CC018C01DC019C015C0B1
:1031700009C016C000000002000402060400060098
:103180001894089598940895E8E0F8E621C0ECE0DA
:10319000F8E61EC0EEE0F8E61BC0E0E0F8E610C07E
:1031A000E4E0F8E605C0F3DFD1F0EEDFC1F0F2CFE6
:1031B000A581BD81AB1799F4A481BC81AB1779F4CB
:1031C000A381BB81AB1759F4A281BA81AB1739F443
:1031D000A181B981AB1719F4A081B881AB1708950B
:1031E000E091036BE395E23008F0E0E0E093036BDD
:1031F000F0E0E450F74E099401C00BC0E091197063
:10320000E5FF05C0E0910D70EF73E0688BC0E0E072
:1032100089C0E0911970E5FF03C0E0910E7087C08E
:10322000E09100707FC079D087D0DACF76D088D097
:10323000D7CF88D0D5CFE991DE0162D0E85FE883AF
:10324000ED91E983ED91EA83ED91EB83ED91EC83D0
:103250007ED0C6CFE0910100F0E07FD085C05DD088
:10326000E091046BE395E63008F0E0E0E093046B56
:10327000F0E0E25CF64E44D00995B2CF05C006C03E
:1032800007C008C009C00AC00BD00EC029D02CC08E
:103290002FD032C00DD010C013D016C019D01CC012
:1032A000E0916B6AF0E054C0E0912A68F7E050C00A
:1032B000E091026BF8E04CC0E0911068F9E048C082
:1032C000E091B76AFAE044C0E091B36AFBE040C025
:1032D000E091726AFCE03CC0E091736AFDE038C0A6
:1032E000E0911F68F8E134C0E0912068F9E130C056
:1032F000E091F16AFAE12CC0E091F26AFEE228C0A6
:10330000CAE0DAE60895A2E0BAE60895A4E0BAE6D3
:103310000895A091016ABAE60895F8DFA093016AC2
:10332000089522C0EDDFF1E0F883E98324C0E8DFEF
:10333000F2E0F883E9831FC0CFE021C0C0EF1FC0D7
:10334000CCE31DC0DDDFE9DF2882E9831EC026C093
:10335000E983FA83F7E0F8831DC0D2DFE883F983BD
:103360002A822B822C821FC0F091126AFF0F28F153
:10337000FF0F18F12BC0C7DFE3E021D05EC9C9DF22
:10338000E1E01DD0CD93CACFC4DFE3E018D055D91A
:10339000C5CFBFDFE7E013D04ED9C0CFB7DFFFE323
:1033A00015D045D9BBCFB2DFFFE310D042D9B6CF9D
:1033B000AADFFFEF0BD039D9B1CFF0E007C0F09111
:1033C000126A02C0FF1FC8F3E695E0F3F093126A99
:1033D0000895E0E0E093E8692092126A0895FFFF03
:1034000026C03FC01EC13AC170C180C1A2C1ABC1BC
:10341000BBC1C3C1CBC1D3C1DEC13DC042C06BC0C3
:10342000B7C0C9C0E3C0E5C0E6C0E7C0E8C0E9C0B6
:10343000EAC0EBC0ECC0EDC0EEC0EFC0F0C0F1C020
:10344000F2C0F3C0E0912768E395E0932768EC9918
:103450000C94101EE2E0E093110BF89420921A0BEA
:1034600020921B0B78942092E4692092E569332422
:1034700003C0E3E03E2E00C0E398E998ED98E1E058
:10348000B0C1ED99E4CF1EF43394E1E0AAC1E32D7D
:10349000E43108F4ECCF3092EE69E39A9BDCEEE085
:1034A000A0C1ED99D4CF1EF3E39A9BDCEE27529B8B
:1034B000E395E093FF69E998EA98EB982092EF6929
:1034C0002092ED69E0EFF9E6CFE02192CA95E9F7A5
:1034D000E0912868E395E43650F0E0912768F09198
:1034E0002968E0932968EF1BE0932A68E0E0E09305
:1034F0002868E2E176C1ED99A5CFE091EF69EF3060
:1035000008F0A0CFF0EFEF0FF9E6F21D3192E05F87
:10351000E093EF69E091ED69E325E093ED6946F50D
:1035200009F090CFE3E0E093110BE0912368F09174
:1035300024683196E0932368F0932468E09125682D
:10354000F0912668E21DF21DE0932568F09326684D
:10355000E091E669F091E769F695E795F695E795CC
:10356000F695E795F211EFEFE093166AE1E139C1C4
:10357000E091E669F091E769F695E795F695E795AC
:10358000F695E795F211EFEFE093146AE0E129C1B7
:10359000ED9B0EF457CFE091E669F091E769F6955F
:1035A000E795F695E795F695E795F211EFEFE0933D
:1035B000156AE2E116C1ED9B0EF044CFE2E0E09324
:1035C000110B2092E4692092E569E091E669F0919F
:1035D000E769F695E795F695E795F695E795F21183
:1035E000EFEFE093176A0FD1E2E0FBC0E398E3E16D
:1035F0001EC0E4E11FC0E5E11AC0E6E11BC0E7E13F
:1036000016C0E8E117C0E9E112C0EAE113C0EBE13E
:103610000EC0ECE10FC0EDE10AC0EEE10BC0EFE13E
:1036200006C0E0E207C0E1E202C0EFE003C0330CF5
:1036300030F8D7C01EF030FC05CFD3C030FE02CF2B
:10364000D0C0E39AE2ECF7ECA7DA0EF000CFC0911D
:10365000126AD0911970EB99D860D3FFC070D091E5
:103660001870EB99D260EA99D0FFCC7FD1FFC3707C
:10367000C093126A529BB399FCCE00C0E99AD091D4
:103680002A70C0910A0BCD23D0912970CD0FCF7035
:10369000C093136AC15BDCE0F001CD9FF894009207
:1036A0001C0B10921D0B78940F01E091E669F091CC
:1036B000E769F695E795F695E795F695E795F211A2
:1036C000EFEFE093186AE0E00E94C112E0E0E093BF
:1036D000110BE091126AE0FF06C0C090026AE89AFE
:1036E000EDE0E0931301E4E07CC0F091126AE09118
:1036F000036AF1FDE0934208E8E6F1E0F894E09314
:103700001C0BF0931D0B7894E5E06BC0D0912C70EE
:10371000C0910A0BCD23D0912B70CD0FCF70CE5A14
:10372000D091136ACD1BDCE0F001CD9FF89400929C
:103730001C0B10921D0B78940F01E091126AE2FFAE
:1037400006C0C090046AE89AEDE0E0931301E6E059
:1037500048C0E0EFF0E0F894E0931C0BF0931D0BF1
:103760007894E7E03EC0F091126AE091056AF3FDBB
:10377000E0934208E0EEF1E0F894E0931C0BF09344
:103780001D0B7894E8E02DC0F091126AE091066A72
:10379000F4FDE0934208E9E024C0F091126AE09160
:1037A000076AF5FDE0934208EAE01BC0F091126A57
:1037B000E091086AF6FDE0934208EBE012C0F09158
:1037C000126AE091096AF7FDE0934208E2E0E093B3
:1037D000110BECE006C02092126A0E949523E0E0F3
:1037E00000C0E093E869AF91BF91CF91DF91E1E034
:1037F000E093150BE1E0E0935201EF91EFBFEF9101
:10380000FF9108950895C0EFD9E6A091EF69209245
:103810002A6AE881E25FF0E0F34E0994FFC010C12C
:103820000FC10EC10DC10CC10BC10AC109C108C134
:1038300007C106C105C104C103C102C101C100C164
:10384000FFC0FEC0FDC0FCC0FBC0FAC0F9C0F8C09C
:10385000F7C0F6C0F5C0F4C0F3C0F2C0F1C0F0C0CC
:10386000EFC0EEC0EDC0ECC0EBC0EAC0E9C0E8C0FC
:10387000E7C0E6C0E5C0E4C0E3C0E2C0E1C0E0C02C
:10388000DFC0DEC0DDC0DCC0DBC0DAC0D9C0D8C05C
:10389000D7C0D6C0D5C0D4C0D3C0D2C0D1C0D0C08C
:1038A000CFC0CEC0CDC0CCC0CBC0CAC0C9C0C8C0BC
:1038B000C7C0C6C0C5C0C4C0C3C0C2C0C1C0C0C0EC
:1038C000BFC0BEC0BDC0BCC0BBC0BAC0B9C0B8C01C
:1038D000B7C0B6C0B5C0B4C0B3C0B2C0B1C0B0C04C
:1038E000AFC0AEC0ADC0ACC0ABC0AAC0A9C0A8C07C
:1038F000A7C0A6C0A5C0A4C0A3C0A2C0A0C09FC0AE
:103900009EC09DC09CC09BC09AC099C098C097C0E3
:1039100096C095C094C093C092C091C09FC09EC0F5
:103920009DC09CC09BC09AC099C098C097C096C0CB
:1039300095C094C093C092C091C090C08FC08EC0FB
:103940008DC08CC08BC08AC089C088C087C086C02B
:1039500085C084C083C082C081C080C07FC07EC05B
:103960007DC07CC07BC07AC079C078C077C076C08B
:1039700075C074C073C072C071C070C06FC06EC0BB
:103980006DC06CC06BC06AC069C068C067C066C0EB
:1039900065C064C063C062C061C060C060C05FC019
:1039A0005EC05DC05CC05BC05AC059C058C057C043
:1039B00056C055C054C053C052C051C050C04FC073
:1039C0004EC04DC04CC04BC04AC049C048C047C0A3
:1039D00046C045C044C043C042C041C040C03FC0D3
:1039E0003EC03DC03CC03BC03AC039C01AC019C03F
:1039F00018C017C016C015C014C013C012C011C023
:103A000010C00FC00EC00DC00CC00BC00AC009C052
:103A100008C007C006C00DC009C00EC0A150219645
:103A200036C0A0932B6AC093286A68CBA150219618
:103A3000C6C0A1502196C4C0A1502196BBC000C0F1
:103A4000EA9AE881F0910070B0911970B5FFEF1318
:103A5000B4CAA15021961BC0EB9AFBCF4FCBEA9A78
:103A6000E981E330E88111F4E03C79F0F0910D70E8
:103A7000B0911970B5FDEF13A0CAE981F0910E70F5
:103A8000EF139BCAA250229602C0EB9AFBCFA093E1
:103A90002B6AC093286AE881E295EF70EE5AF0E055
:103AA000F24E09940FC024C039C038C093CA92CADC
:103AB00091CA90CAC4CAC3CACCCAC6CA55C054C0E7
:103AC000FBCAF7CAE991EF70E859F0E0F24E0994A9
:103AD000E8CAEBCA17CB16CB0DCB0CCB0BCB0ACB62
:103AE00009CB08CB95CA94CA05CB04CB03CB8BCAB0
:103AF000E991EF70E258F0E0F24E0994FBCAFACA7D
:103B00007DCA7CCAF7CAF6CAF5CAF4CAF3CAF2CAB1
:103B1000F1CAF0CAEFCAEECAEDCAECCAE991EF7178
:103B2000EC56F0E0F24E0994E5CAE4CAE3CAE2CAF0
:103B3000E1CAE0CADFCADECADDCADCCADBCADACA49
:103B4000D9CAD8CAD7CAD6CAD5CAD4CAD3CAD2CA79
:103B5000D1CAD0CACFCACECACDCACCCACBCACACAA9
:103B600043CA47CAC7CA3BCAE991EF71E654F0E0BD
:103B7000F24E09945FCA51CA54CABCCABBCABACA77
:103B8000B9CAB8CAB7CAB6CAB5CAB4CAB3CAB2CA39
:103B9000B1CAB0CAAFCAAECAADCAACCAABCAAACA69
:103BA000A9CAA8CA65CA69CA6DCA71CA75CA3DCA16
:103BB00055CA59CAA0932B6AC093286A00CA9ACAE8
:103BC000A0932B6AC093286AE991E03F08F492CA57
:103BD000EF70E351F0E0F24E09948CCA8BCA8ACAA6
:103BE00089CA88CA87CA86CA9CCA84CA83CA82CA42
:103BF00081CA80CA7FCA7ECA7DCA20D016D0F09101
:103C00000C68E0910D68EF01CD2B49F0F0930D7039
:103C1000E0930E70E0911970E062E09319700895DE
:103C2000F8940E94071F0C94051369D0B0E029D0C6
:103C3000B395A0912D6ABA17D1F70895E091FF15B9
:103C4000E030A9F0EF3F09F0E2D059D0B0E0A895FC
:103C50000FD020F4CE2FD4E18A2FDCD0B395A091E1
:103C60002D6ABA17A9F7CFEFD5E180E0D5D0089536
:103C70002AD03396099427D03196099424D03296CD
:103C8000099421D030960994A0E01BC0EA81A98153
:103C900016C0EA81F4E1A081F0E7A08310C0EA81B8
:103CA000F0E7A0810CC0EA81F0E791D008C0E9817B
:103CB000FA81A08104C0E981FA81A08300C0089440
:103CC000089588940895CB2FD0912D6ACD1778F45C
:103CD000D0E0CC0FDD1FCC0FDD1FF0912E6ADF0F7F
:103CE000E881E43149F0F0E0E950FC4D0895C0E08E
:103CF000DCECE7EFF3E20895E981FA810895A0E0B2
:103D0000B0E0B03059F4A03019F0A13021F006C075
:103D1000AEE6BAEC05C0A3E5BCEC02C0A0E0BAEC8C
:103D2000A0932D6AB0932E6A089503C007C009C0FE
:103D300010C0A0910014A0930070C1CFA09100709A
:103D4000BECFAA2329F022F0E0E0F0E740D0B7CFC1
:103D50009BCFE0E0A3E0B3CF97CF02C003C094CFE6
:103D6000ADE0ADCFA83011F4EC9AA9CF8DCF03C050
:103D700007C009C00FC0A0912F14A0932F709FCF30
:103D8000A0912F709CCFEA2F0E946013EFE2F0E722
:103D90001ED095CFEFE2A0E092CF20922F6A209222
:103DA000306A089504D0FE2FE0E2EF1B0895E09101
:103DB000306AF0912F6AEF1B08F4E1950895E091C5
:103DC000306AF0912F6A8894EF1308940895C09197
:103DD000306ACF5CD0E0D549B993E993F993A993C0
:103DE000C153C03208F0CC27C093306A0895C09107
:103DF0002F6ACF5CD0E0D549B991E991F991A991A9
:103E0000C153C03208F0CC27C0932F6A089590E3C5
:103E1000889408C092E102C093E100C0A881A8176D
:103E2000A9F00894A0910210A1FDFCCFA0FDFACF4B
:103E3000ADE9A4BF9093001008F48993A4BFA1E05A
:103E4000A0930010A0910210A1FDFCCF089519C00D
:103E5000C0911E77E0912B68CE1BC158E1EEFAE6C7
:103E60000E947515B093726AC0911C77E0912C681E
:103E7000CE1BC158E7EEFAE60E947515B093736A3F
:103E800008950F9803D008D00F9A0895E0E0E093CA
:103E90006D6AE0936E6A0895A0E0A0936F6AA093A4
:103EA000706A089592E0E0916D6AF0916E6AFE1377
:103EB000E3959A95E1F7E0936D6A089592E0F3DF58
:103EC000E0916D6AF5E790916E6A9E1729F09081F6
:103ED0009993E3958A95B9F7E0936D6A0895CAE5D9
:103EE000DFEB1EC0CEEADFEB1BC0C0E6DFEB18C085
:103EF000C6E6DFEB15C0C2E7DFEB12C0CCE6DFEBB6
:103F00000FC0C8E7DFEB0CC0CEE7DFEB09C0C4E8A9
:103F1000DFEB06C0CAE8DFEB03C0C0E9DFEB00C09F
:103F20009991899103D09A95E1F70895E091706A8B
:103F3000F0916F6AFA95EF1739F0F6E78193E09305
:103F4000706AE0EAE09325080895F0912408F5FFEF
:103F5000FCCF00C080932208089505AA003F0120ED
:103F600005AA0007010005AA003E010005AA003DC0
:103F7000010005AA003D010C04AA0120080004AAC2
:103F8000011A060004AA0134020004AA0155160011
:103F900004AA01006B0006AA00410221040006AA3F
:103FA00000410224000006AA00410224060006AADD
:103FB00000410221020006AA00410224030006AAD1
:103FC00000410221010006AA00410221070006AAC1
:103FD000004102240500E5E0FBE64AC2D3EB41C202
:103FE00042D2F5D140D2E0910210E1FDFACFE7DEF6
:103FF000C0F7FDDEC081CA17B1F3A083F4E1CDE9BB
:10400000D3E1C4BFD0930010A083D1E0C4BFD0934C
:104010000010D1E0D0930410D0930310E2CF84E1DC
:1040200090E00E941B220E94C3220E94EF22F7CF41
:10403000E1EEFAE6C0E8D4E70E946815E7EEFAE69A
:10404000C0E9D4E70E94681580ED97E00E941B222A
:1040500023DF1CDF82E390E00E941B2246DF82E325
:1040600090E00E941B223EDF82E390E00E941B2230
:104070003FDF82E390E00E941B223DDF82E390E07D
:104080000E941B2203DF08DF01DF47DF84E690E0A8
:104090000E941B22C0E0D7E78FE710DF91D1D8DE66
:1040A000F3CFE1D194D1DFD10E944916FBCFE5E0F7
:1040B000FBE6E3D185E090E00E941B228FE090E0D8
:1040C0000E941B22F4CF00002AD21FD282E390E08C
:1040D0000E941B221FD288EC90E00E941B2215D266
:1040E00082E390E00E941B2215D288EE93E00E94AA
:1040F0001B22EACF0C949B140E9436160C942715B1
:10410000F5ECE4E7DAE6C4E782E10E944E1514D04C
:1041100037D03FD047D04FD057D05FD067D06FD087
:1041200011272227D9E0C9E9C093B06AD093B16AB8
:10413000089578940C94A320E4E7FAE6E093AD6A3E
:10414000F093AE6A08950E94EE1F2092B46A209206
:10415000B56A2092B66A1D7FE091B46AF091B56AA3
:10416000C091B66A3196C21D11FDEFCF2223D1F363
:10417000E093B46AF093B56AC093B66A28D1ECCFE5
:10418000E7ECF0E2E0933F69F0933E6908950C9408
:10419000F01FE0EDF0E2E0935F69F0935E6908954F
:1041A0000C940F20E9EDF0E2E0936169F09360690F
:1041B0000895A2E92DC0E2EEF0E2E0936369F09386
:1041C00062690895A3E924C0EBEEF0E2E09383690D
:1041D000F093826908950C941820E4EFF0E2E093E4
:1041E000A369F093A26908950C945120EDEFF0E2D9
:1041F000E093C369F093C26908950C945720E6E0F8
:10420000F1E2E093E369F093E26908950C9463208E
:104210000C94EF1210FD77C0F093BF6AFFB7F093D4
:10422000BE6A1160E093C06AD093C16AC093C26A4B
:10423000B093C36AA093C46A9093C56A8093C66A18
:104240001092C76A0092C86AC091B26AC395C093BF
:10425000B26A09F41860CF7009F41460C0FD14C08C
:104260001061C091B06AD091B16AC15015F410626A
:10427000C97F10F41064C979D04010F41068D97067
:10428000C093B06AD093B16A17FD4DD06ED014FDC3
:104290000E947A2013FD0E947C2014FF1BC0DAE6E6
:1042A000CAE8A1E0E881F981319788F071F42A2BFE
:1042B000E883F983EA81FB81FE2B49F0FB810180D1
:1042C000A0950A22A095018202C0E883F983249672
:1042D000AA0F41F70090C86A1090C76A8091C66A19
:1042E0009091C56AA091C46AB091C36AC091C26A34
:1042F000D091C16AE091C06A1270F091BE6AFFBFAE
:10430000F091BF6A0895F894E1E0F1E00E94732310
:10431000FFEF3197F1F7E0E0F1E00E947323F0E462
:104320003197F1F7F0CFE091B56AF091B66AEE0FF0
:10433000FF1FEBE8FE9F000C111CE4E6E119E0937F
:10434000B36A1260C091B86AD091B96AC093BA6A70
:10435000D093BB6AD695C795D695C795C093B76AD3
:104360002092B96A2092B86A0895E091B26AEF701B
:10437000E093AF6AEE0FF0E0E054FE4D099408952B
:104380000C94BF210C94BF210C94BF210C94BF212D
:104390000C94BF210C94BF210C94BF210C94BF211D
:1043A0000C94BF210C94BF210C94BF210C94BF210D
:1043B0000C94BF210C94BF210C94BF210C94BF21FD
:1043C000F091AA6AFF0F11F02F1708F40895E091F9
:1043D000B86AF091B96A3196E093B86AF093B96A15
:1043E000C091AD6AD091AE6AEDB7FEB7E993F8839C
:1043F000E0E2F22FC0E8FF0F30F019F0C695E4506C
:10440000D1F7CC27EE27C093AA6AE093AC6AE69571
:10441000E093AB6ADAE6C4E7CE0FD21DC093AD6A73
:10442000D093AE6AE991F881CFB7F894EDBFFEBFA3
:10443000CFBF08959927C6E8DAE6B091AC6ACB0FF2
:10444000D21DBFB7F89488839983D091AA6AD0957A
:104450002D23BFBFBCCF07D0BACF03D0B8CFD091E8
:10446000AA6A2D2B0895D091AA6AD0952D2308957C
:10447000208221820895689401C0E894D091AA6AAC
:10448000BFB7F894C081CC2321F0CE7FC083BFBFDB
:104490000895C181CD2BC183BFBF0EF0DCCFCBCF40
:1044A000BFB7F894C191D081DD2321F4C160C293DC
:1044B000BFBF089520822292BFBF0DC0BFB7F8943E
:1044C000D081D260D193D081DD2311F4BFBF089594
:1044D0002082BFBF00C0E6E8FAE6CD2F3496CC0FAD
:1044E00041F0E0F7F8942192219221922192BFBFEE
:1044F000F6CFB7CF20820895BFB7F894A081AE7FE2
:10450000A083BFBF0895F8DFB8CFE1E0F1E00E94DB
:1045100073230895E0E0F1E00E9473230895C7E05B
:10452000DBE6E0E6F5EC0C2E9FEFA191B191BF3FE9
:1045300081F011968FEF83951D901120E1F3821188
:1045400083958993981788F38211982F82110C2EE6
:10455000ECCF9093BC6A0894C009C093BD6A0895DB
:104560000069206940696069626964698469A46955
:10457000C469FFFF1F693D695D695F6961698169A0
:10458000A169C169E169B69904C0E5E5119B0C9484
:10459000EF1207C0442455240895AD980895AD9AAC
:1045A0000895E0910408E7FF0895E0910008E09382
:1045B0000071089502D08CE23BC001D003C08F93FC
:1045C000829501C08F938F70805D8A3308F0895F78
:1045D0002FD08F9108958AE02BD08DE029C00F0154
:1045E000451451F0F0910408F5FF06C0F2E7E52DFF
:1045F000F081F09302085394F0010895451459F0A6
:10460000F0910408F5FFFACFF2E7E52DF081F09381
:1046100002085394F3CF0895C42DD2E701900020EF
:1046200029F00882C395C511F9CFCA954C2ED8CF71
:104630000F01F201FA95EF1719F0F2E78083439426
:10464000CFCF8F938E2FF201FA95EF1719F0F2E783
:10465000808343948F9108958991ACDF9A95E1F717
:1046600008958991821188130895E2DFFACFC2E894
:10467000D6ECF7DF80911C68A0DFC2E9D6ECF1DF51
:10468000BDCF0A0D1B5B34346D2E2E2E5B424C4485
:104690002D005D1B5B6D0A0D0000C2EAD6ECE1DF68
:1046A000ADCF0A0D1B5B34336D2E2E2E5B5550445F
:1046B0005D1B5B6D0A0D0000CAECD6ECD2DFC0E0DA
:1046C000D8E690E1C9DF87DF99CF0A0D1B5B343252
:1046D0006D2E2E2E5B4150505D1B5B6D202D2000FA
:1046E000E2E0F2E000C0EF23F0950090ED6A0F22C7
:1046F000E02904C0E0E002C0EFEF00C0E093ED6A03
:1047000000C0E091ED6A0C94C312EF23F095009085
:10471000EE6A0F22E02906C0E0E004C0E5E502C031
:10472000EFEF00C0E093EE6A00C0E091EE6A0C94F7
:10473000C112310B0000010701310080626A0001E3
:1047400000404031008000000002310B00000107F2
:1047500001310081626A00010040403100810000A7
:104760000002310B0000010107310080626A000184
:1047700000404031008000000002310B00000101C8
:1047800007310081626A0001004040310081000071
:10479000000231030000010010310080F96A0001BD
:1047A0000040403100800000000231030000011091
:1047B00000310080FB6A00010040403100800000B1
:1047C0000002110B0000010240110080516A00013B
:1047D000010240110080646A000101424011008121
:1047E000FD6A0001004040110080000000024CCA38
:1047F0004BCA4ACA49CA48CA49CA46CA45CA49CA26
:104800004ECA51CA43CA40CA52CA3ECA3DCA3CCA2D
:104810004ECA51CA39CA38CA37CA36CA35CAFFFF62
:104A000014951E7F080101FF080402FF080403FF3C
:104A1000088004FF084005FF0415000014AC1E00C8
:104A2000040206FF084007FF081008FF0404000006
:104A30000800090008000A0008010BFF08010CFF2C
:104A400008C30DFF08E80EFF08000FFF080010FF65
:104A500008001100080012000800130008001400EC
:104A60000800150008001600080017FF0896181126
:104A7000080A1911101A7000040000FF04FF00FF5B
:104A800008011BFF08021CFF08041DFF08081EFF89
:104A900008101FFF082020FF084021FF088022FF88
:104AA000080023FF080024FF080025FF080026FF58
:104AB000080027FF080028FF0804290F08002A0F14
:104AC00008042B0F08002C0F08052DFF080A2EFFE5
:104AD00014B71EFF080B30FF080A313F0802320FDF
:104AE00008D433FF08C834FF086435FF086436FF74
:104AF000088037FF088038FF088039FF08803AFFB8
:104B000000000000000000000000000000000000A5
:104B10000000000000000000000000000000000095
:104B20000000000000000000000000000000000085
:104B30000000000000000000000000000000000075
:104B40000000000000000000000000000000000065
:104B50000000000000000000000000000000000055
:104B60000000000000000000000000000000000045
:104B70000000000000000000000000000000000035
:104B80000C0368000C0268000C0168000C0068004F
:104B90000C0768000C0668000C0568000C0468002F
:104BA00008003BFF08003CFF04010000040900006E
:104BB0000401000004000000FFFFFFFFFFFFFFFFF4
:104C00000409000004010000000000000000000092
:104C10000C0368000C0268000C0168000C006800BE
:104C20000C0768000C0668000C0568000C0468009E
:104C30000C0877000C0977000C0A77000C0B770042
:104C40000C0C77000C0D77000C0E77000C0F770022
:104C50000C1077000C1177000C1277000C13770002
:104C60000C1477000C1577000C1677000C177700E2
:104C70000C1877000C1977000C1A77000C1B7700C2
:104C80000C1C77000C1D77000C1E77000C1F7700A2
:104C90000C2077000C2177000C2277000C23770082
:104CA0000C2477000C2577000C2677000C27770062
:104CB0000C2877000C2977000C2A77000C2B770042
:104CC0000C2C77000C2D77000C2E77000C2F770022
:104CD0000C3077000C3177000C3277000C33770002
:104CE0000C3477000C3577000C3677000C397700E0
:104CF0000C3A770000000000000000000C1C680067
:104D00000C1D68000C1E68000C1F68000C20680059
:104D10000C2368000C2468000C2568000C26680031
:104D20000C1A77000C1B77000C726A000C736A0077
:104D30000C146A000C156A000C166A000C176A0045
:104D40000C186A000CEE690004550000FFFFFFFF1D
:00000001FF
