@ba15 ; Affinity 
@bb01 ; MemBank 
@bc03 ; Command 
:020000020A00F2
:1000000088C087C081E084C082E082C083E080C075
:1000100084E07EC085E07CC086E07AC087E078C05E
:1000200088E076C089E074C08AE072C08BE070C05E
:100030008CE06EC08DE06CC08EE06AC08FE068C05E
:1000400080E166C081E164C082E162C083E160C09A
:1000500084E15EC085E15CC086E15AC087E158C09A
:1000600088E156C089E154C08AE152C08BE150C09A
:100070008CE14EC08DE14CC08EE14AC08FE148C09A
:1000800080E246C081E244C082E242C083E240C0D6
:1000900084E23EC085E23CC086E23AC087E238C0D6
:1000A00088E236C089E234C08AE232C08BE230C0D6
:1000B0008CE22EC08DE22CC08EE22AC08FE228C0D6
:1000C00080E326C081E324C082E322C083E320C012
:1000D00084E31EC085E31CC086E31AC087E318C012
:1000E00088E316C089E314C08AE312C08BE310C012
:1000F0008CE30EC08DE30CC08EE30AC08FE308C012
:1001000001005FD103000000906AF966DC2965EE0A
:10011000FFCFA895F8942224EFE1F9E6EDBFFEBFEA
:100120004F98479AD3D0A895E8EDE4BFE7E0E09375
:100130000001F0D0F2D086D070D1A4D02ED0A0E0B3
:10014000B0E1C0E0D0EBE0E0F0E9099011900114DB
:1001500019F41197D1F71AC036D0E2E2FBE6C2E0FB
:10016000BBD1D4D1F9F744D0E2E4FBE6C1E0B4D18D
:10017000C0E0D0EB91D1E2E2FBE6C2E0ADD1A0E07D
:10018000B0E1C2E4DBE6E2E2FBE6ACD148D0E2E477
:10019000FBE6C1E0A1D18FEFA9C1C2EAD1EA21D12A
:1001A000EDC01B5B33336D2E2E2E636F6D7061724D
:1001B000696E67204E455720776974682043555211
:1001C0001B5B6D0A0D00CEECD1EA0BD1D7C01B5BD7
:1001D00033336D2E2E2E636865636B696E67204224
:1001E0004C44206261636B75701B5B6D0A0D0000EF
:1001F000C8EFD1EAF6D0C2C01B5B33336D2E2E2E72
:10020000696E7374616C6C696E67206E65772042ED
:100210004C4420636F64651B5B6D0A0D0000C6E2F1
:10022000D2EADFD0ABC01B5B39326D2E2E2E636C51
:1002300065616E75701B5B6D0A0D000029928A95D1
:10024000E9F70895E2E4FBE60E946812C2E2D9E60B
:100250000E946A12E2E2FBE60E946812C2E2D9E65C
:100260000C946A12E2E4FBE60E946C120C945C129D
:10027000C0E0D8E6A6E1B0E00ED0C0E0D8E6AAE142
:10028000B0E014C0C0E0D8E680E0D8DF00C0EFEFF7
:10029000E0931B680895F0D0F001A095B095C0954B
:1002A000D095A083B183C283D3830895E5D0F001B4
:1002B00080830895E2E0F2E000C0EF23F095009023
:1002C00020690F22E02904C0E0E002C0EFEF00C087
:1002D000E093206900C0E09120690C943A12EF236A
:1002E000F095009021690F22E02906C0E0E004C0EB
:1002F000E5E502C0EFEF00C0E093216900C0E091A6
:1003000021690C943812B69904C0E5E5119B0C9450
:10031000661207C0442455240895AD980895AD9AF7
:100320000895E0910408E7FF0895E0910008E09344
:10033000006C089502D08CE23BC001D003C08F93C3
:10034000829501C08F938F70805D8A3308F0895F3A
:100350002FD08F9108958AE02BD08DE029C00F0116
:10036000451451F0F0910408F5FF06C0FDE6E52DB7
:10037000F081F09302085394F0010895451459F068
:10038000F0910408F5FFFACFFDE6E52DF081F0933A
:1003900002085394F3CF0895C42DDDE601900020A8
:1003A00029F00882C395C511F9CFCA954C2ED8CF34
:1003B0000F01F201FA95EF1719F0FDE680834394DF
:1003C000CFCF8F938E2FF201FA95EF1719F0FDE63C
:1003D000808343948F9108958991ACDF9A95E1F7DA
:1003E00008958991821188130895E2DFFACFC2E05F
:1003F000D4EAF7DF80911C68A0DFC2E1D4EAF1DF24
:10040000BDCF0A0D1B5B34346D2E2E2E5B424C4447
:100410002D005D1B5B6D0A0D0000C2E2D4EAE1DF36
:10042000ADCF0A0D1B5B34336D2E2E2E5B55504421
:100430005D1B5B6D0A0D0000CAE4D4EAD2DFC0E0A8
:10044000D8E690E1C9DF87DF99CF0A0D1B5B343214
:100450006D2E2E2E5B4150505D1B5B6D202D2000BC
:100460000C9410000C9411000C9412000C941300C6
:100470000C9414000C9415000C9416000C941700A6
:100480000C9418000C9419000C941A000C941B0086
:100490000C941C000C941D000C941E000C941F0066
:1004A0000C9420000C9421000C9422000C94230046
:1004B0000C9424000C9425000C9426000C94270026
:1004C0000C9428000C9429000C942A000C942B0006
:1004D0000C942C000C942D000C942E000C942F00E6
:1004E0000C9430000C9431000C9432000C943300C6
:1004F0000C9434000C9435000C9436000C943700A6
:100500000C9438000C9439000C943A000C943B0085
:100510000C943C000C943D000C943E000C943F0065
:100520000C9440000C9441000C9442000C94430045
:100530000C9444000C944500FFFFFFFFFFFFFFFFFA
:1010000087C0FFCFFFC7FFCFFFC7FFCFFFC7FFCF0F
:10101000FFC7FFCFFFC7FFCFFFC7FFCFFFC7FFCF80
:10102000FFC7FFCFFFC7FFCFFFC7FFCFFFC7FFCF70
:10103000FFC7FFCFFFC7FFCFFFC7FFCFFFC7FFCF60
:10104000FFC7FFCFFFC7FFCFFFC7FFCFFFC7FFCF50
:10105000FFC7FFCFFFC7FFCFFFC7FFCFFFC7FFCF40
:10106000FFC7FFCFFFC7FFCFFFC7FFCFFFC7FFCF30
:10107000FFC7FFCFFFC7FFCFFFC7FFCFFFC7FFCF20
:10108000FFC7FFCFFFC7FFCFFFC7FFCFFFC7FFCF10
:10109000FFC7FFCFFFC7FFCFFFC7FFCFFFC7FFCF00
:1010A000FFC7FFCFFFC7FFCFFFC7FFCFFFC7FFCFF0
:1010B000FFC7FFCFFFC7FFCFFFC7FFCFFFC7FFCFE0
:1010C000FFC7FFCFFFC7FFCFFFC7FFCFFFC7FFCFD0
:1010D000FFC7FFCFFFC7FFCFFFC7FFCFFFC7FFCFC0
:1010E000FFC7FFCFFFC7FFCFFFC7FFCFFFC7FFCFB0
:1010F000FFC7FFCFFFC7FFCFFFC7FFCFFFC7FFCFA0
:1011000001005BD101000000906AF9662516066FA8
:10111000A895F8942224E8EDE4BF20921001E8EDB0
:10112000F1E0E4BFF0936200EFE1F9E6EDBFFEBF4E
:101130004F98479AAC9AA49AE0E4F8E02682A0E897
:10114000B1E0A087B1872582A3E0A783A0E4A683AE
:10115000A9E0A093000A2092200A2092210AA1E08F
:10116000A093000B2092010BAFEFA0930C0BA09368
:101170000D0B209252042092B3044298A3982ED4CF
:10118000A895E8EDE4BFE7E0E09300014DD44FD42B
:10119000E3D3B7D4FCD380911B688211FDD3EFB3A6
:1011A000E0931C68E0911B68E21105C0E0911168B2
:1011B000E2117FC200C0C0E0D8E659D3F993E993A9
:1011C00058D3F993E99363D3E4E0F8E6D193C1935C
:1011D000B193A193A0910768AF77A16020924F6966
:1011E000A0935069E7D2A0910091B0910191B8838A
:1011F000A983A09100A1B09101A1BA83AB832C82F5
:10120000DFD2288229822A822B822C82DCD2E0E063
:10121000F1E9A081B181B883A9839BB781E08BBF3D
:10122000A081B1819BBFBA83AB832C82E8EEF3E04F
:10123000E0932369F09324690091FE1521E08FC1AA
:1012400080E540D49091356980E0933049F08A81FF
:10125000943031F031FD6DC18D81983009F06DC150
:10126000209223692092246958D123E082C2F0D1D0
:1012700084E428D48E8180930A688F8180930B68E0
:101280008885809308688985809309688A8545D117
:1012900027E073C2E2D180E715D427E078C2DDD120
:1012A00081E410D4888580930C68898580930D68CB
:1012B0008A8582FD04D283708093116828E069D208
:1012C000809111688211EED14AC1909135699530B3
:1012D00011F0983011F4EA8116C0973011F09A306D
:1012E00019F4C0D1EC810FC0993011F09C3019F481
:1012F000AFD1EE8108C09B3011F09E3019F4ADD112
:10130000E88501C01AC1EA3070F4F0E0E757F64F03
:101310000994E1C0E1C0E2C0E2C0E1C0E0C0E3C0C6
:10132000E4C0E9C0EEC01BC19DD182E4CBD38C8167
:101330008093A36B38854985823011F430FD0FC14D
:1013400028E1E19A30FD28D230FF29D2C7E0E3E856
:10135000FBE6C9D2C091A36BE6D1C5D2DBD08E81AA
:101360009F81DAD1EDEEDE2EE8EBCE2EE3E8BE2E45
:10137000E0E2AE2EEFEF9E2E8E2E7E2E6E2EB9D197
:10138000EEC070D183E49ED30C8009140D80080454
:101390000E8007040F80060428E211F428E4A9D186
:1013A000D6C160D182E58ED328E7AED1D7C15AD15C
:1013B00084E588D328E5D2C155D185E483D328E0DC
:1013C0003E7F4427C4C14ED186E47CD3ACD19091FA
:1013D0003569963019F08C8130FD8DD230FD8FD279
:1013E000BEC030FDA4C090913569933009F405C0AA
:1013F000953011F437D101C0A0C082E763D393D1F7
:101400005CD28093476911D058D2809348690DD03F
:1014100054D28093496909D050D280934A6905D04B
:101420009295909590934B69DBC1991F90FD08951B
:10143000089487957BD18695E9F7089530FF77C0AA
:1014400090913569933009F422C0953011F40AD196
:101450001EC09B3011F4229606C09D3019F402D1B3
:10146000249601C06AC087E72DD378E0699108947B
:1014700067955CD16695E9F77A95C1F7A8E0B0E089
:101480002897E3E8FBE631D2A8E0B0E01BC0C1D06A
:1014900081F478F0A0E0B2E760E8BBD011F4E8F79F
:1014A00048F08FB743D18FBF6795B8F76D93A138D8
:1014B00098F355C0A050B247C0E0D2E7E3E8FBE69E
:1014C00014D200C0C3E8DBE62ED130FD12D230FDCD
:1014D0001CD245C044C056C154D115C253C151D1CC
:1014E000E1D002E03CC050D13AC09E3009F037C094
:1014F0004BD117D234C09E3009F031C045D10FD244
:101500002EC03FD1C1E038D2CF3519F4D13D09F416
:1015100078D5F9C1C5E2D9E6089590910A0B8923DF
:1015200082111DC0089584E40CC082E50AC08DE4D8
:1015300008C083E406C085E404C08CE402C084E5EE
:1015400000C0C0D20CC0C0912369D09124692197FA
:1015500030F0C0932369D093246909F4C1CFEFE13F
:10156000F9E6EDBFFEBF59D293D2B0D02CBA6AE0F3
:1015700050D01130A1F76A95D9F74BD081F7E8F335
:10158000913808F43094C6DF7727EE2761E041D028
:10159000B1F6661FE0F769937627C33370F639D04A
:1015A00071F620F0E627FFE8E081F0CF7211C3CF9B
:1015B000E09336693D7FE2113260C552C0933569D0
:1015C000A9DFE881ED3F69F000FD8ACFF981EF2BBB
:1015D000EA81EF2B29F4E0913569E33009F480CFFB
:1015E000B2CF6981603F08F4BACF6F70E8E2F8E9E2
:1015F000660F660FE60FF21D0190022209F497CFE5
:10160000019000FE02C031FD94CF01901080F001E6
:101610000994A89511270AB0032402FEFCCF9091EB
:10162000200A2092200A2092210A0AB0032402FCF8
:10163000FCCF8091200A2092200A2092210A8D312D
:10164000111F813810FD8F30111F012E069408954F
:10165000E0E0F8E684E01DD00CC0E4E0F8E686E0C7
:1016600018D007C00FD029F00AD019F005D009F022
:101670000CD0821174CF0895EAE0F8E609C0E8E0E2
:10168000F8E606C0ECE0F8E603C0EEE0F8E600C0DD
:1016900082E0DE01129601901D90011411F48A95EA
:1016A000D1F70895C1E068D1CF3511F4D13D09F0EB
:1016B0000895EED1E09105A1E0FD01D0A1C4E8EDCF
:1016C000E0933400E5E8E09301100895E091060B03
:1016D000E0FF0895E093060BE0912269E395E09323
:1016E0002269E6FF01C002C079D18AC179D1EFE059
:1016F0008DC117D00E010EDF6A8A7B8A8C8A9D8A83
:101700000F8A188E298E089505DF6A887B888C8859
:101710009D888F89988D00C006D0CBD0C80FD91F67
:10172000C2C001D0F8C0E3E6FBE6089530F096941D
:1017300087947794679430F009C09694879477944F
:10174000679420F09D248C247B246A2408953ED045
:10175000988289827A826B822C8243C0E2DFDE012A
:101760008091A36B33D088832982BA83AB832C8288
:1017700038C0E0E0F8E692E02FC0E4E0F8E690E060
:101780002BC0E19A1DD02DC0E19A1DD02AC015D0E2
:1017900028C0E19A0FD025C0C8E6D8E922C0C09180
:1017A000A36BB7D0DE0112D00882B983AA832B8243
:1017B0002C8217C0C4E5D9E60895CFE4D9E6089590
:1017C000C9E5D9E60895CEE5D9E60895C7E4D9E696
:1017D0000895AFE3B9E60895F9DF84E0B4D09883C3
:1017E000F5DFF7DFA4D000C097E712D09DEA10D054
:1017F000F0DF86E09091440895FFFCCF9D91909397
:1018000042088A95B9F78AE25DD1E19BA8CE089596
:101810000090200A0916E0F32092200A2092210A63
:10182000529BB39982CE0895010020090201370925
:1018300004014A0904014F0900006A0A00006A0A0B
:1018400000006A0AFF016509080194097001C109D5
:101850002001D1094001D7091001DC091001E30979
:101860001000F10910001E0A02003214FFFF0C9450
:1018700010000C9411000C9412000C9413000C94A2
:1018800014000C9415000C9416000C9417000C9482
:1018900018000C9419000C941A000C941B000C9462
:1018A0001C000C941D000C941E000C941F000C9442
:1018B00020000C9421000C9422000C9423000C9422
:1018C00024000C9425000C9426000C9427000C9402
:1018D00028000C9429000C942A000C942B000C94E2
:1018E0002C000C942D000C942E000C942F000C94C2
:1018F00030000C9431000C9432000C9433000C94A2
:1019000034000C9435000C9436000C9437000C9481
:1019100038000C9439000C943A000C943B000C9461
:101920003C000C943D000C943E000C943F000C9441
:1019300040000C9441000C9442000C9443000C9421
:1019400044000C944500019009928A95E1F70895AE
:1019500029928A95E9F70895E3E8FBE60E946F0C67
:10196000C3E6D9E60E94710CE3E6FBE60E946F0C29
:10197000C3E6D9E60C94710CE3E8FBE60E94730C15
:101980000C94630CC0E0D8E6A6E1B0E00ED0C0E055
:10199000D8E6AAE1B0E014C0C0E0D8E680E0D8DF25
:1019A00000C0EFEFE0931B6808956DDFF001A09594
:1019B000B095C095D095A083B183C283D383089599
:1019C00062DFF00180830895E2E0F2E000C0EF23DF
:1019D000F095009020690F22E02904C0E0E002C0E9
:1019E000EFEF00C0E093206900C0E09120690C9403
:1019F000410CEF23F095009021690F22E02906C0E9
:101A0000E0E004C0E5E502C0EFEF00C0E09321692B
:101A100000C0E09121690C943F0CB69904C0E5E543
:101A2000119B0C946D0C07C0442455240895AD9867
:101A30000895AD9A0895E0910408E7FF0895E091B4
:101A40000008E0930070089502D08CE23BC001D002
:101A500003C08F93829501C08F938F70805D8A330E
:101A600008F0895F2FD08F9108958AE02BD08DE008
:101A700029C00F01451451F0F0910408F5FF06C08C
:101A8000F1E7E52DF081F09302085394F0010895F9
:101A9000451459F0F0910408F5FFFACFF1E7E52D70
:101AA000F081F09302085394F3CF0895C42DD1E749
:101AB0000190002029F00882C395C511F9CFCA957D
:101AC0004C2ED8CF0F01F201FA95EF1719F0F1E77C
:101AD00080834394CFCF8F938E2FF201FA95EF1727
:101AE00019F0F1E7808343948F9108958991ACDFD9
:101AF0009A95E1F708958991821188130895E2DF9C
:101B0000FACFC6E1DBE9F7DF80911C68A0DFC6E20F
:101B1000DBE9F1DFBDCF0A0D1B5B34346D2E2E2EB9
:101B20005B424C442D005D1B5B6D0A0D0000C6E35B
:101B3000DBE9E1DFADCF0A0D1B5B34336D2E2E2EBA
:101B40005B5550445D1B5B6D0A0D0000CEE5DBE983
:101B5000D2DFC0E0D8E690E1C9DF87DF99CF0A0D78
:101B60001B5B34326D2E2E2E5B4150505D1B5B6D26
:101B7000202D2000FFFFFFFFFFFFFFFFFFFFFFFF04
:00000001FF
; 
; *** EOF 
